:020000040800F2
:1000000060060020B1010008B9010008BB0100082A
:10001000BD010008BF010008C10100080000000088
:10002000000000000000000000000000C301000804
:10003000C501000800000000C7010008C901000850
:10004000CB010008CB010008CB010008CB01000860
:10005000CB010008CB010008CB010008CB01000850
:10006000CB010008CB010008CB010008CB01000840
:10007000CB010008CB010008CB010008CB01000830
:10008000CB010008CB010008CB010008CB01000820
:10009000CB010008CB010008CB010008CB01000810
:1000A000CB010008CB010008CB010008CB01000800
:1000B000CB010008CB010008CB010008CB010008F0
:1000C000CB010008CB010008CB010008CB010008E0
:1000D000CB010008CB010008CB010008CB010008D0
:1000E000CB010008CB010008CB010008CB010008C0
:1000F000CB010008CB010008CB010008CB010008B0
:10010000CB010008CB010008CB010008CB0100089F
:10011000CB010008CB010008CB010008CB0100088F
:10012000CB010008CB010008CB010008CB0100087F
:1001300000F002F800F02CF80AA090E8000C8244CD
:100140008344AAF10107DA4501D100F021F8AFF2AA
:10015000090EBAE80F0013F0010F18BFFB1A43F0A5
:1001600001031847A0030000B0030000002300248F
:1001700000250026103A28BF78C1FBD8520728BFB7
:1001800030C148BF0B6070471FB51FBD10B510BD13
:1001900000F031F81146FFF7F7FF00F021F900F009
:1001A0004FF803B4FFF7F2FF03BC00F057F800006C
:1001B0000948804709480047FEE7FEE7FEE7FEE7FB
:1001C000FEE7FEE7FEE7FEE7FEE7FEE70448054937
:1001D000054A064B70470000710300083101000812
:1001E0006000002060060020600200206002002005
:1001F000704770477047754600F02CF8AE46050012
:100200006946534620F00700854618B020B5FFF731
:10021000DDFFBDE820404FF000064FF000074FF033
:1002200000084FF0000B21F00701AC46ACE8C00914
:10023000ACE8C009ACE8C009ACE8C0098D4670471D
:1002400010B50446AFF300802046BDE81040FFF72C
:10025000A8BF000000487047000000200149182096
:10026000ABBEFEE726000200704701B505E00020A6
:1002700000E0401CB0F5487FFBD300994A1E009275
:100280000029F4D108BD10B500F002F810BD00003F
:100290000CB50020019000903348006840F4803095
:1002A0003149086000BF3048006800F40030009019
:1002B0000198401C0190009818B90198B0F5A06F02
:1002C000F1D12948006800F4003010B101200090FD
:1002D00001E0002000900098012843D123480068E5
:1002E00040F01000214908600846006820F0030033
:1002F00008600846006840F0020008601A4840683C
:10030000194948600846406848600846406840F41B
:10031000806048600846406820F47C1048600846C9
:10032000406840F4E81048600846006840F080707B
:10033000086000BF0C48006800F000700028F9D089
:100340000948406820F003000749486008464068B3
:1003500040F00200486000BF0348406800F00C0015
:100360000828F9D10CBD0000001002400020024016
:1003700010B51348006840F00100114908600846B4
:100380004068104908400E494860084600680E4918
:1003900008400B4908600846006820F48020086087
:1003A0000846406820F4FE0048604FF41F00886053
:1003B000FFF769FF4FF000600449086010BD0000BE
:1003C000001002400000FFF8FFFFF6FE08ED00E01D
:1003D0004FF6FF7001490860704700000C0C0140A7
:1003E0006CE000243648806940F008003449886198
:1003F0000020344908600846006840F48010086016
:100400000846006840F0010008600846006840F0B7
:10041000100008604FF6FF702A490C31086000BFD9
:1004200049E034B900F064F84FF4FA60FFF71DFFBB
:100430003EE0012C06D100F051F84FF4FA60FFF7CE
:1004400014FF35E0022C06D100F03EF84FF4FA60BC
:10045000FFF70BFF2CE0032C08D100F049F800F067
:100460003DF84FF4FA60FFF700FF21E0042C08D1BB
:1004700000F034F800F028F84FF4FA60FFF7F5FECA
:1004800016E0052C08D100F033F800F01DF84FF409
:10049000FA60FFF7EAFE0BE0062C09D100F028F81D
:1004A00000F01CF800F010F84FF4FA60FFF7DDFEE2
:1004B000FFF78EFF641C072CB3DB00BF91E7000041
:1004C00000100240000C01400348006820F00200C8
:1004D00001490860704700000C0C014003480068A7
:1004E00020F0010001490860704700000C0C014039
:1004F0000348006820F020000149086070470000B0
:100500000C0C0140140500080000002060060000EB
:040510006C01000872
:0400000508000131BD
:00000001FF
