:020000040800F2
:100000002843002001010008090100080B01000835
:100010000D0100080F010008110100080000000098
:1000200000000000000000000000000013010008B4
:100030001501000800000000170100081901000860
:100040001B0100081B0100081B0100081B01000820
:100050001B0100081B0100081B0100081B01000810
:100060001B0100081B0100081B0100081B01000800
:100070001B0100081B0100081B0100081B010008F0
:100080001B0100081B0100081B0100081B010008E0
:100090001B0100081B0100081B0100081B010008D0
:1000A0001B0100081B0100081B0100081B010008C0
:1000B0001B0100081B0100081B0100081B010008B0
:1000C0001B0100081B0100081B0100081B010008A0
:1000D0001B010008890800081B0100081B0100081B
:1000E0001B0100081B0100081B010008DFF80CD0F1
:1000F00000F02EF800480047750D00082843002046
:100100000648804706480047FEE7FEE7FEE7FEE7B1
:10011000FEE7FEE7FEE7FEE7FEE7FEE72908000848
:10012000ED00000830B50B460146002020220124D6
:1001300009E021FA02F59D4205D303FA02F5491BB5
:1001400004FA02F52844151EA2F10102F1DC30BDCB
:10015000064C074D06E0E06840F0010394E8070014
:1001600098471034AC42F6D3FFF7C4FF20190008BB
:10017000401900082DE9F041024600250026002024
:1001800000230024002791F803C00CF00F0591F81C
:1001900003C00CF0100CBCF1000F03D091F802C0AA
:1001A0004CEA050591F800C0BCF1000F31D014688D
:1001B00000202BE04FF0010C0CFA00F3B1F800C066
:1001C0000CEA03069E4220D183004FF00F0C0CFA7C
:1001D00003F7BC4305FA03FC4CEA040491F803C09E
:1001E000BCF1280F06D14FF0010C0CFA00FCC2F84C
:1001F00014C00AE091F803C0BCF1480F05D14FF0DC
:10020000010C0CFA00FCC2F810C0401C0828D1D325
:100210001460B1F800C0BCF1FF0F34DD5468002059
:100220002EE000F1080C4FF0010808FA0CF3B1F8C9
:1002300000C00CEA03069E4221D183004FF00F0C50
:100240000CFA03F7BC4305FA03FC4CEA040491F8EA
:1002500003C0BCF1280F05D100F1080C08FA0CF816
:10026000C2F8148091F803C0BCF1480F07D100F127
:10027000080C4FF0010808FA0CF8C2F81080401C76
:100280000828CED35460BDE8F0810000F0B50A46DE
:10029000002300240021002500F00046B6F1004FA5
:1002A00002D11D4EF16901E01B4E7168C0F3034598
:1002B00083B200F44016B6F5401F08D121F07061FA
:1002C000154E766826F07066134F7E6012E000F4DB
:1002D0008016B6F5801F06D1032606FA05F4A14361
:1002E00041F0706106E0460D360103FA06F6B143AF
:1002F00041F0706122B1460D360103FA06F6314332
:1003000000F00046B6F1004F02D1034EF16101E06A
:10031000014E7160F0BD0000000001400246002067
:1003200093680B400BB1012000E000207047416151
:1003300070470161704708B501208DF803008DF802
:1003400001008DF8020025208DF80000684600F0BD
:1003500001F808BD70B5002100230F22C47804B352
:10036000154C246804F4E064C4F5E064210AC1F18A
:100370000403CA40447804FA03F18478144021430A
:1003800009010E4C0678A155047804F01F050124DC
:10039000AC4005786D11AD0005F1E025C5F80041D0
:1003A00009E0047804F01F050124AC40044D0678F0
:1003B000761145F8264070BD0CED00E000E400E049
:1003C00080E100E002490143024A116070470000E9
:1003D0000000FA050CED00E029B1064A92690243DB
:1003E000044B9A6104E0034A92698243014B9A618B
:1003F000704700000010024030B5002100220024A8
:1004000000232D4D6D6805F00C0121B1042905D0A4
:10041000082923D105E0294D056022E0274D05601C
:100420001FE0254D6D6805F47012234D6D6805F4CD
:100430008034022505EB92421CB9214D55430560DD
:100440000BE01D4D6D6805F400351DB11C4D554385
:10045000056002E0194D5543056002E0174D056047
:1004600000BF00BF144D6D6805F0F0010909154D7E
:100470006B5C0568DD4045600F4D6D6805F4E0611B
:10048000090A104D6B5C4568DD4085600A4D6D685A
:1004900005F46051C90A0B4D6B5C4568DD40C560D1
:1004A000054D6D6805F44041890B074D6B5CC568CF
:1004B000B5FBF3F5056130BD0010024000127A0073
:1004C00000093D00170000202700002010B500F0B3
:1004D00001F810BD0CB50020019000903348006871
:1004E00040F480303149086000BF3048006800F4B3
:1004F000003000900198401C0190009818B90198B4
:10050000B0F5A06FF1D12948006800F4003010B1B7
:100510000120009001E0002000900098012843D1C4
:100520002348006840F01000214908600846006830
:1005300020F0030008600846006840F002000860F0
:100540001A484068194948600846406848600846AB
:10055000406840F4806048600846406820F47C10A1
:1005600048600846406840F4E81048600846006863
:1005700040F08070086000BF0C48006800F0007018
:100580000028F9D00948406820F003000749486076
:100590000846406840F00200486000BF03484068D9
:1005A00000F00C000828F9D10CBD0000001002403A
:1005B00000200240002001E0411CC8B22828FBDBDB
:1005C0007047000008B501210820FFF705FF14203F
:1005D0008DF8030003208DF802004020ADF80000E4
:1005E00069460948FFF7C6FD8020ADF8000069465E
:1005F0000548FFF7BFFD40210348FFF79AFE802121
:100600000148FFF796FE08BD000C014010B500241C
:1006100080210C48FFF78DFEFFF7CCFF40210948F1
:10062000FFF787FEFFF7C6FF80210648FFF776FE3B
:1006300000B1012440210348FFF779FEFFF7BAFF1C
:10064000204610BD000C014070B500F021F80024D8
:10065000002516E06006040E40210C48FFF769FEF5
:10066000FFF7A8FF80210948FFF758FE08B1601C7A
:10067000C4B240210548FFF75AFEFFF79BFF681CF4
:10068000C5B2082DE6DB204670BD0000000C01401D
:1006900008B504208DF8030003208DF802008020A7
:1006A000ADF8000069460248FFF764FD08BD000090
:1006B000000C014008B514208DF8030003208DF8CC
:1006C00002008020ADF8000069460248FFF752FDA5
:1006D00008BD0000000C014010B5FFF7EBFF8021C2
:1006E0000A48FFF724FEFFF765FF40210748FFF7A0
:1006F00020FEFFF75FFF40210448FFF718FEFFF7D9
:1007000059FF80210148FFF714FE10BD000C014085
:1007100070B50446FFF7CEFF002523E004F080000B
:1007200020B180211148FFF704FE03E080210F482B
:10073000FFF7FDFDFFF73EFF40210C48FFF7F9FDF5
:10074000FFF738FF40210948FFF7F1FD072D03D1DE
:1007500080210648FFF7EDFD6006040EFFF72AFF33
:10076000681C85B2082DD9DB70BD0000000C01406B
:1007700010B5FFF79FFF80210848FFF7DAFDFFF76C
:1007800019FF40210548FFF7D4FDFFF713FF402173
:100790000248FFF7CCFDFFF70DFF10BD000C014034
:1007A00010B5FFF787FF80210A48FFF7C2FD4021FF
:1007B0000848FFF7BEFDFFF7FDFE80210548FFF763
:1007C000B6FDFFF7F7FE40210248FFF7B0FDFFF747
:1007D000F1FE10BD000C014010B5FFF76BFF80214A
:1007E0000648FFF7A4FD40210448FFF7A2FDFFF7EC
:1007F000E1FE80210148FFF79CFD10BD000C014087
:10080000042808D14FF0E021096941F004014FF0BC
:10081000E022116107E04FF0E021096921F00401B5
:100820004FF0E0221161704710B51348006840F0A6
:1008300001001149086008464068104908400E4907
:100840004860084600680E4908400B4908600846A1
:10085000006820F4802008600846406820F4FE000C
:1008600048604FF41F008860FFF730FE4FF00060D3
:100870000449086010BD0000001002400000FFF8AD
:10088000FFFFF6FE08ED00E010B540F225510D48DF
:1008900000F037F858B10B4800F0EEF8C1B20A4842
:1008A00002780078401C084B18700848815440F2C8
:1008B0002441044800F025F810B1024800F0DCF8AB
:1008C00010BD000000380140160000204427002021
:1008D00021B1828942F40052828104E082894DF67E
:1008E000FF731A408281704702460020B1F5007FF5
:1008F00000D100BF13880B400BB1012000E00020A5
:10090000704770B50246002400230025002040F601
:100910006A16B14200D100BFC1F3421501F01F03B6
:10092000012606FA03F3012D02D19689334006E031
:10093000022D02D1168A334001E0968A33400C1210
:10094000012606FA04F41688344013B10CB10120D4
:1009500000E0002070BDF0B503460024002600250D
:10096000002040F66A17B94200D100BF1846C1F313
:10097000421401F01F06012707FA06F5012C01D1E8
:100980000C3004E0022C01D1103000E014301AB118
:1009900007682F43076002E00768AF430760F0BDB8
:1009A0002DE9F04786B005460E460024A24600BF5A
:1009B000A1460027B08900B100BF2F462C8A4CF613
:1009C000FF700440F08804432C82AC894EF6F3108B
:1009D0000440B08831890843718908430443AC81DD
:1009E000AC8A4FF6FF400440B0890443AC8201A8B2
:1009F000FFF702FD1F48874202D1DDF810A001E099
:100A0000DDF80CA0A88900F4004040B10AEBCA0050
:100A100000EB0A1031684900B0FBF1F807E00AEB7F
:100A2000CA0000EB0A1031688900B0FBF1F86420BD
:100A3000B8FBF0F004012009642101FB1089A889AA
:100A400000F4004040B1322000EBC900B0FBF1F0EF
:100A500000F00700044308E0322000EB0910642195
:100A6000B0FBF1F000F00F0004432C8106B0BDE8AC
:100A7000F08700000038014001468888C0F3080074
:100A80007047C1F3080282807047000000B585B04E
:100A900001210420FFF7A0FC01218803FFF79CFC43
:100AA0004FF48060ADF8100004208DF8130004A905
:100AB0001C48FFF75FFB4FF40070ADF810001820E2
:100AC0008DF8130003208DF8120004A91548FFF7D4
:100AD00051FB0020ADF80400ADF806004FF4E13002
:100AE00000900020ADF80800ADF80C000C20ADF827
:100AF0000A0069460C48FFF753FF01210A48FFF737
:100B0000E7FEFFF718FC012240F225510648FFF7E7
:100B100022FF012240F224410348FFF71CFF05B0E9
:100B200000BD000000080140003801400FB4054B33
:100B300010B503A9044A029800F018F810BC5DF83B
:100B400014FB0000510D00084000002002E008C81E
:100B5000121F08C1002AFAD170477047002001E037
:100B600001C1121F002AFBD1704700002DE9FF4F81
:100B700089B09B460446002506E025280BD05A463E
:100B80000B999047641C6D1C20780028F5D10DB09E
:100B90002846BDE8F08F0027B8460122474900E00B
:100BA000074314F8013F203B02FA03F00842F7D153
:100BB00020782E2819D114F8010F47F004072A28AD
:100BC0000ED06FF02F022078A0F1300109290CD847
:100BD00008EB880102EB410100EB0108641CF2E71D
:100BE0000A98641C50F8048B0A9020780028CED014
:100BF000642808D0692806D075281ED05A460B995B
:100C000090476D1C58E00A994FF00A0901C90A91F2
:100C1000002802DA40422D2102E0390504D52B21BB
:100C20008DF82010012103E0F90704D02021F7E717
:100C30008A4608AE0DE00021FAE70A994FF00A094A
:100C400001C90A91F7E74946FFF76CFA303106F817
:100C5000011D0028F7D1ADEB060000F1200978074F
:100C600001D44FF00108C84502DDA8EB090000E0FF
:100C700000208046002706E008A85A46C05D0B9970
:100C800090476D1C7F1C5745F6DB04E030205A4628
:100C90000B9990476D1CB8F10001A8F10108F5DC33
:100CA00005E016F8010B5A460B9990476D1CB9F1F7
:100CB0000001A9F10109F4DC641C65E709280100C1
:100CC00010B56FF00400FFF79BFD0A4800680A4961
:100CD000B0FBF1F0094908700846007800EB4001CC
:100CE000C1EBC0104FF6FF7101EAC0000449088053
:100CF00010BD00002C00002000127A00120000201D
:100D0000140000200146114A12884A434FF0E023A4
:100D10005A6100229A611A46126942F001021A6170
:100D200000BF4FF0E022106900F001021AB100F498
:100D30008032002AF5D04FF0E022126922F0010241
:100D40004FF0E0231A6100229A61704714000020DE
:100D500070B504460D46E1B20548FFF792FE00BFAC
:100D600080210348FFF7C0FD0028F9D0204670BD60
:100D7000003801400EB54FF4A060FFF723FBFFF7EA
:100D80009FFFFFF783FEFFF71DFC00F070FC534947
:100D9000002000F043FC00F071FB514D00264FF4A1
:100DA000FA705049086000241DE000BF4E480068FA
:100DB0000128FBD04D4A02EB84014D4A02EB84002E
:100DC00000F0C2FB4A4850F82400A84202D248482A
:100DD00050F82450464850F82400B04202D9444804
:100DE00050F82460641C3F4800688442DDDB4148C1
:100DF0004149424A424BCDE9002102903C4A3948E0
:100E000001683A4800F0BAF866E00024344D002644
:100E1000642420E0364850F82410A4F16400344AD9
:100E200042F82010314850F82410A4F164002F4AF1
:100E300042F820102E4850F82400A84202D22C4834
:100E400050F824502A4850F82400B04202D92848CB
:100E500050F82460641CB4F5FA7FDBDB4FF4C874EF
:100E600011E000BF204800680128FBD001A902A8BA
:100E700000F06AFB1D49019841F824001C490298C2
:100E800041F82400641CB4F5FA7FEADB19481A49DA
:100E90001A4A1B4BCDE900210290154A11480168FE
:100EA000124800F06BF81448016816A0FFF73EFEE8
:100EB000104890F9001015A0FFF738FE104801689F
:100EC00016A0FFF733FE0D4890F9001016A0FFF7AB
:100ED0002DFE0120FFF716FF97E70000110000200C
:100EE000FFFF03000000002014012142A41700208E
:100EF000741F0020100000200C00002008000020BB
:100F0000040000202048523D25692C0020485276DC
:100F1000616C69643D25692C000000002053704F0E
:100F2000323D25692C0000002053504F3256616C31
:100F300069643D25690D0A002DE9F84705460C4610
:100F400016461F46DDE90A9ADDF824803B46324604
:100F500021462846CDF8008000F0B5FB4B463246CE
:100F60002146284600F0ECFB2068504501DA206855
:100F700000E050462060BDE8F88700002DE9FF4FF3
:100F8000C6B08846994600204590002406E0469861
:100F900050F82410459808444590641C4445F6DBFD
:100FA0004598B0FBF8F04590002408E0469850F8CA
:100FB00024104598081AFE4941F82400641C444551
:100FC000F4DB002417E0FA4850F824100246601CB5
:100FD00052F820000144A01C52F820000144E01CFB
:100FE00052F820000F183846F91707EB9171891055
:100FF00042F82410641CB4F5F87FE4DB00240AE016
:10100000EB49601C51F8200051F82410401AE949BE
:1010100041F82400641CB4F5F77FF1DD00240EE0F4
:10102000E44951F824200B46611C53F82110501854
:1010300000EBD07149101A4642F82410641CB4F534
:10104000F77FEDDB00251BE0002043902C460BE0F2
:10105000D84850F82410601BD74A32F81020439823
:1010600001FB12004390641C681D8442F0DB40F2D7
:101070007A41439890FBF1F0CE4941F825006D1C70
:10108000B5F5F47FE0DD00204190002410E0C94870
:1010900050F82400002803DDC64850F8240003E07F
:1010A000C44850F824004042419908444190641CCF
:1010B000B4F5F77FEBDD40F2EF11419890FBF1F0D2
:1010C000419005210822419840F2EF13CDE901211A
:1010D0000090B84A40A912A8FFF72EFF00201190F7
:1010E0004098022821DB01240BE012A850F82410BC
:1010F000601E12AA52F82000091A11980844119093
:10110000641C40988442F0DB4098401E119991FB8A
:10111000F0F0119041F27071119891FBF0F1549838
:10112000016001215598017005E0A44954980160BF
:10113000002155980170002407E012A850F82400FF
:10114000801C30A941F82400641C40988442F4DBE0
:1011500000240CE0469850F82400954941F82400FA
:10116000489850F82400964941F82400641C4445EE
:10117000F0DB0020429000242DE00120449030A8B4
:1011800050F824A04FF080703F900AF10500B0F5B0
:10119000F77F1FDC0A3800281CDD054611E0844873
:1011A00050F825103F9881420ADA449808B100208F
:1011B00044907F4850F825003F9021A840F82450E3
:1011C0006D1C0AF105008542E9DB449810B942988C
:1011D000401C4290641C40988442CEDB4298022816
:1011E00008DA7648C9F800000021539801704AB027
:1011F000BDE8F08F00242EE06D4951F824200B4605
:10120000611C53F821100A44A11C53F821100A4410
:10121000E11C53F821105018C11700EB917189108F
:101220001A4642F82410664951F824200B46611CE6
:1012300053F821100A44A11C53F821100A44E11C60
:1012400053F821105018C11700EB917189101A46FC
:1012500042F82410641CB4F5F87FCDDB0020049024
:101260000026002404E0002005A941F82400641CA5
:10127000052CF8DB00240DE021A850F82400B0F57F
:10128000FA7F06DD4D48C9F800000021539801702F
:10129000ADE7641C42988442EEDB0024AEE04FF0E0
:1012A0007F400D900C9021A9601C51F8200051F84E
:1012B0002410401A0A2879DD21A850F8245016E09D
:1012C0003B4850F825100C98814204DD384850F80E
:1012D00025000C900A953A4850F825100D98814247
:1012E00004DD374850F825000D900B956D1C21A9A1
:1012F000601C51F82000A842E2DC601C51F820007C
:101300002F4951F8200021A951F824102C4A52F8F5
:101310002110401A21A951F824200B99891A484319
:10132000109021A9601C51F8200051F82410411A96
:10133000109890FBF1F021A951F82410204A52F89E
:1013400021100844109011460B9851F82010109865
:10135000081A109021A9601C51F82000144951F876
:10136000200021A951F82410114A52F82110401AE6
:1013700021A951F824200A99891A48430F9021A9DC
:10138000601C51F8200051F82410411A0F9890FB6E
:10139000F1F021A951F82410054A52F8211008440F
:1013A0000F9011460B9851F820100BE025E000003B
:1013B000842F0020C42700202818000819FCFFFFF4
:1013C000543700200F98081A0F900C991098484332
:1013D000C01103900D990F984843C711002F0CDDE1
:1013E000052E0ADA039840B164210398484390FB24
:1013F000F7F005A941F82600761C641C4298401EAF
:10140000A0423FF74CAF314605A800F0D2F9304674
:1014100006EBD0714FEA610BBBF1010F0CDDABF1B4
:10142000010105AA52F8211052F82B20881800EB70
:10143000D0714910049103E005A850F82B000490E6
:10144000049802280DDD0498B8280ADA094904989E
:10145000085C0E900E98C9F80000012153980170A5
:1014600005E00548C9F8000000215398017000BF4D
:10147000BDE600006618000819FCFFFF08B5012151
:101480001420FEF7A9FF01212D48FEF7FFFE2020C2
:10149000ADF8000004208DF8030069462948FEF7E6
:1014A00069FEE021022000F0ECF808B9002008BD38
:1014B0000221032000F0E5F808B90020F7E7002139
:1014C000042000F0DEF808B90020F0E70021052034
:1014D00000F0D7F808B90020E9E70021062000F065
:1014E000D0F808B90020E2E70F21082000F0C9F881
:1014F00008B90020DBE70321092000F0C2F808B991
:101500000020D4E726210A2000F0BBF808B900200B
:10151000CDE72F210C2000F0B4F808B90020C6E771
:101520002F210D2000F0ADF808B90020BFE77F2182
:10153000102000F0A6F808B90020B8E70120B6E7AF
:101540000002300000080140F8B504460D460020B6
:1015500028602060694600F061F86946012000F0CB
:101560005DF8FFF71DF9AE20FFF7D2F8FFF74EF850
:1015700000B14FE00720FFF7CBF8FFF747F800B1C5
:1015800048E0FFF70DF9AF20FFF7C2F8FFF73EF88C
:1015900000B13FE0FFF758F80646FFF79DF8360424
:1015A000206830442060FFF74FF80646FFF794F8B4
:1015B0003602206830442060FFF746F80646FFF701
:1015C0008BF8206830442060FFF73EF80646FFF7AE
:1015D00083F83604286830442860FFF735F806465B
:1015E000FFF77AF83602286830442860FFF72CF8B5
:1015F0000646FFF771F82868304428602068C0F379
:10160000110020602868C0F311002860FFF7E4F89B
:101610000120F8BDFFF7E0F80020FAE770B50546B5
:101620000C46FFF7BDF8AE20FFF772F8FEF7EEFFAD
:1016300000B118E02846FFF76BF8FEF7E7FF00B1AE
:1016400011E0FFF7ADF8AF20FFF762F8FEF7DEFF1D
:1016500000B108E0FEF7F8FF2070FFF789F8FFF708
:10166000BBF8012070BDFFF7B7F80020FAE710B50E
:101670004021092000F005F808B9002010BD012024
:10168000FCE770B505460C46FFF78AF8AE20FFF779
:101690003FF8FEF7BBFF00B111E02846FFF738F82E
:1016A000FEF7B4FF00B10AE02046FFF731F8FEF77D
:1016B000ADFF00B103E0FFF78FF8012070BDFFF729
:1016C0008BF80020FAE7F0B505461C46059E012080
:1016D00000270F6030E052F82070B7422BDD52F83F
:1016E00020C0471E52F82770BC4524DD012300E0CE
:1016F0005B1CC718A74207DA52F8207000EB030CF6
:1017000052F82CC06745F3D052F8207000EB030C60
:1017100052F82CC067450CDD0F680F2F09DAD1F89D
:1017200000C00CF101070F6045F82C005F1C384425
:1017300002E0184400E0401C671E8742CBDCF0BD8D
:101740002DE9F04F05460C469246984629465046EC
:10175000226800F049F84FF0FF3621E0D4F800B0DD
:10176000701C2060771C18E055F82710701C10B909
:101770004FF0FF3001E055F82600A1EB0009C1450C
:1017800003DCC8F10000814506DA55F8271022680D
:10179000501C206045F822107F1C5F45E4DB761C5E
:1017A0002068B042DADC2846216800F002F8BDE883
:1017B000F08F30B50C46012213E050F8223011466C
:1017C00005E04D1E50F8255040F82150491E0029D3
:1017D00004DD4D1E50F825509D42F2DC40F82130CA
:1017E000521CA242E9DB30BDF0B50346154601228A
:1017F00017E051F82240104605E0461E51F82660D9
:1018000041F82060401E002808DD53F82470461E71
:1018100051F8266053F82660B742EEDC41F82040CC
:10182000521CAA42E5DBF0BD29001401000214019C
:10183000290000000000000000000000000000007F
:101840000000000000000000000000000000000098
:101850000000000000000000000000000000000088
:101860000000000000005F5F5F60606061616161B7
:10187000616262626262636363636363636364643D
:101880006464646464646464646464646464646418
:10189000646463636363636363636262626262621C
:1018A00061616161606060605F5F5F5E5E5E5D5D43
:1018B0005D5C5C5C5B5B5A5A59595958585757568E
:1018C0005655555454535252515150504F4E4E4DFF
:1018D0004C4C4B4A4A494848474645454443424296
:1018E00041403F3E3E3D3C3B3A393838373635344F
:1018F000333231302F2E2D2C2B2A29282726252430
:101900002322211F1E1D1C1B1A1917161514131133
:10191000100F0E0C0B0A0907060503020100000058
:101920004019000800000020440000004C0B000893
:101930008419000844000020E44200005C0B000809
:101940000000000000000000000000000000000097
:10195000000000000000000000000001020304017C
:1019600002030406070809020406080000A24A044C
:10197000000000000000000001020304060708093F
:041980000000000063
:04000005080000ED02
:00000001FF
