:020000040800F2
:10000000A0040020450100084D0100084F01000830
:1000100051010008530100085501000800000000CC
:100020000000000000000000000000005701000870
:1000300059010008000000005B0100085D01000894
:100040005F0100085F0100085F0100085F01000810
:100050005F0100085F0100085F0100085F01000800
:100060005F0100085F0100085F0100085F010008F0
:100070005F0100085F0100085F0100085F010008E0
:100080005F0100085F0100085F0100085F010008D0
:100090005F0100085F0100085F0100085F010008C0
:1000A0005F0100085F0100085F0100085F010008B0
:1000B0005F0100085F0100085F0100085F010008A0
:1000C0005F0100085F0100085F0100085F01000890
:1000D0005F010008990600085F0100085F01000841
:1000E0005F0100085F0100085F0100085F01000870
:1000F0005F0100085F0100085F0100085F01000860
:100100005F0100085F0100085F0100085F0100084F
:100110005F0100085F0100085F0100085F0100083F
:100120005F0100085F0100085F0100085F0100082F
:10013000DFF80CD000F068F800480047E91100082B
:10014000A00400200648804706480047FEE7FEE777
:10015000FEE7FEE7FEE7FEE7FEE7FEE7FEE7FEE777
:1001600039060008310100082DE9F05F054600203E
:1001700092469B4688460646814640241BE0284618
:1001800041464746224600F02FF853465A46C01AC9
:10019000914110D311461846224600F016F82D1A48
:1001A00067EB01084F4622460120002100F00DF8C0
:1001B00017EB00094E41201EA4F10104DFDC484684
:1001C00031462A464346BDE8F09F202A04DB203A08
:1001D00000FA02F1002070479140C2F1200320FA9A
:1001E00003F3194390407047202A04DB203A21FA98
:1001F00002F00021704721FA02F3D040C2F1200240
:100200009140084319467047064C074D06E0E068E8
:1002100040F0010394E8070098471034AC42F6D34D
:10022000FFF78AFF201400084014000801B502E01F
:100230000098401E009000980028F9D108BD2DE9D3
:10024000F04102460025002600200023002400275C
:1002500091F803C00CF00F0591F803C00CF0100CDE
:10026000BCF1000F03D091F802C04CEA050591F8EB
:1002700000C0BCF1000F31D0146800202BE04FF01B
:10028000010C0CFA00F3B1F800C00CEA03069E4220
:1002900020D183004FF00F0C0CFA03F7BC4305FA92
:1002A00003FC4CEA040491F803C0BCF1280F06D10A
:1002B0004FF0010C0CFA00FCC2F814C00AE091F8EF
:1002C00003C0BCF1480F05D14FF0010C0CFA00FC43
:1002D000C2F810C0401C0828D1D31460B1F800C087
:1002E000BCF1FF0F34DD546800202EE000F1080C53
:1002F0004FF0010808FA0CF3B1F800C00CEA03064D
:100300009E4221D183004FF00F0C0CFA03F7BC433F
:1003100005FA03FC4CEA040491F803C0BCF1280F71
:1003200005D100F1080C08FA0CF8C2F8148091F815
:1003300003C0BCF1480F07D100F1080C4FF00108D1
:1003400008FA0CF8C2F81080401C0828CED354607C
:10035000BDE8F081416170470161704708B5012037
:100360008DF803008DF801008DF8020025208DF82E
:100370000000684600F002F808BD000070B50021DA
:1003800000230F22C47804B3154C246804F4E064FD
:10039000C4F5E064210AC1F10403CA40447804FAB8
:1003A00003F184781440214309010E4C0678A155CD
:1003B000047804F01F050124AC4005786D11AD00F0
:1003C00005F1E025C5F8004109E0047804F01F05B7
:1003D0000124AC40044D0678761145F8264070BDE6
:1003E0000CED00E000E400E080E100E029B1064A05
:1003F00092690243044B9A6104E0034A9269824382
:10040000014B9A61704700000010024030B5002196
:100410000022002400232D4D6D6805F00C0121B150
:10042000042905D0082923D105E0294D056022E0E3
:10043000274D05601FE0254D6D6805F47012234DB2
:100440006D6805F48034022505EB92421CB9214DFC
:10045000554305600BE01D4D6D6805F400351DB179
:100460001C4D5543056002E0194D5543056002E0FF
:10047000174D056000BF00BF144D6D6805F0F00119
:100480000909154D6B5C0568DD4045600F4D6D68D1
:1004900005F4E061090A104D6B5C4568DD4085603C
:1004A0000A4D6D6805F46051C90A0B4D6B5C4568D7
:1004B000DD40C560054D6D6805F44041890B074D71
:1004C0006B5CC568B5FBF3F5056130BD00100240FB
:1004D00000127A0000093D000100002011000020F8
:1004E00021B1028842F04002028004E002884FF607
:1004F000BF731A40028070470246002013890B40E8
:100500000BB1012000E00020704701468889704748
:100510008181704710B50022028802F441520B8895
:100520004C8823438C882343CC8823430C89234362
:100530004C8923438C892343CC8923431A4302806B
:10054000838B4FF2FF74234083830B8A038210BD99
:1005500010B500F001F810BD0CB50020019000901E
:100560003348006840F480303149086000BF3048AB
:10057000006800F4003000900198401C0190009841
:1005800018B90198B0F5A06FF1D12948006800F4BE
:10059000003010B10120009001E000200090009890
:1005A000012843D12348006840F010002149086029
:1005B0000846006820F0030008600846006840F024
:1005C000020008601A4840681949486008464068B7
:1005D00048600846406840F48060486008464068CB
:1005E00020F47C1048600846406840F4E8104860F9
:1005F0000846006840F08070086000BF0C48006842
:1006000000F000700028F9D00948406820F003008D
:10061000074948600846406840F00200486000BF53
:100620000348406800F00C000828F9D10CBD000018
:10063000001002400020024010B51348006840F04E
:1006400001001149086008464068104908400E49F9
:100650004860084600680E4908400B490860084693
:10066000006820F4802008600846406820F4FE00FE
:1006700048604FF41F008860FFF76AFF4FF000608A
:100680000449086010BD0000001002400000FFF89F
:10069000FFFFF6FE08ED00E010B540F225510D48D1
:1006A00000F037F858B10B4800F0EEF8C1B20A4834
:1006B00002780078401C084B18700848815440F2BA
:1006C0002441044800F025F810B1024800F0DCF89D
:1006D00010BD000000380140000000201C00002078
:1006E00021B1828942F40052828104E082894DF670
:1006F000FF731A408281704702460020B1F5007FE7
:1007000000D100BF13880B400BB1012000E0002096
:10071000704770B50246002400230025002040F6F3
:100720006A16B14200D100BFC1F3421501F01F03A8
:10073000012606FA03F3012D02D19689334006E023
:10074000022D02D1168A334001E0968A33400C1202
:10075000012606FA04F41688344013B10CB10120C6
:1007600000E0002070BDF0B50346002400260025FF
:10077000002040F66A17B94200D100BF1846C1F305
:10078000421401F01F06012707FA06F5012C01D1DA
:100790000C3004E0022C01D1103000E014301AB10A
:1007A00007682F43076002E00768AF430760F0BDAA
:1007B0002DE9F04786B005460E460024A24600BF4C
:1007C000A1460027B08900B100BF2F462C8A4CF605
:1007D000FF700440F08804432C82AC894EF6F3107D
:1007E0000440B08831890843718908430443AC81CF
:1007F000AC8A4FF6FF400440B0890443AC8201A8A4
:10080000FFF704FE1F48874202D1DDF810A001E087
:10081000DDF80CA0A88900F4004040B10AEBCA0042
:1008200000EB0A1031684900B0FBF1F807E00AEB71
:10083000CA0000EB0A1031688900B0FBF1F86420AF
:10084000B8FBF0F004012009642101FB1089A8899C
:1008500000F4004040B1322000EBC900B0FBF1F0E1
:1008600000F00700044308E0322000EB0910642187
:10087000B0FBF1F000F00F0004432C8106B0BDE89E
:10088000F08700000038014001468888C0F3080066
:100890007047C1F3080282807047000000B585B040
:1008A00001210420FFF7A2FD01218803FFF79EFD2F
:1008B0004FF48060ADF8100004208DF8130004A9F7
:1008C0001C48FFF7BCFC4FF40070ADF81000182076
:1008D0008DF8130003208DF8120004A91548FFF7C6
:1008E000AEFC0020ADF80400ADF806004FF4E13096
:1008F00000900020ADF80800ADF80C000C20ADF819
:100900000A0069460C48FFF753FF01210A48FFF728
:10091000E7FEFFF723FD012240F225510648FFF7CD
:1009200022FF012240F224410348FFF71CFF05B0DB
:1009300000BD0000000801400038014070B50546C8
:100940000C46164610211048FFF704FD032000F066
:100950009FF9C4F3074000F09BF9C4F3072000F0AF
:1009600097F9E0B200F094F904E0FF2000F090F96C
:1009700028706D1C301EA6F101018EB2F5D1102138
:100980000148FFF7E9FC70BD000801402DE9F05F68
:1009900007460E4614464FF00008C146C2460025E1
:1009A000AB4606F0FF0ACAF10000C5B22046E117C7
:1009B00004EB1161C1F30728E11704EB116109127F
:1009C000A4EB012101F0FF09BAF1000F20D1B8F129
:1009D000000F05D122463146384600F08BF864E01E
:1009E00009E04FF480723146384600F083F806F58E
:1009F000807607F58077B8F10000A8F1010101F0D9
:100A0000FF08EED14A463146384600F073F84CE014
:100A1000B8F1000F18D1A94510DDA9EB050000F0D1
:100A2000FF0B2A463146384600F064F82E442F4426
:100A30005A463146384600F05DF836E022463146E7
:100A4000384600F057F830E0601B84B22046E117CA
:100A500004EB1161C1F30728E11704EB11610912DE
:100A6000A4EB012101F0FF092A463146384600F087
:100A700041F82E442F4409E04FF480723146384645
:100A800000F038F806F5807607F58077B8F10000B9
:100A9000A8F1010101F0FF08EED1B9F1000F04D077
:100AA0004A463146384600F025F8BDE8F09F000080
:100AB00010B5044600F024F900F00CF910210C48A0
:100AC000FFF748FC202000F0E3F8C4F3074000F0F3
:100AD000DFF8C4F3072000F0DBF8E0B200F0D8F84C
:100AE00010210348FFF738FC00F0F4F810BD0000B7
:100AF0000008014070B505460C461646B6F5807FE5
:100B000000DD70BD00F0FCF810211148FFF722FC59
:100B1000022000F0BDF8C4F3074000F0B9F8C4F3B8
:100B2000072000F0B5F8E0B200F0B2F803E0287852
:100B300000F0AEF86D1C301EA6F101018EB2F6D1A8
:100B400010210348FFF708FC00F0C4F800BFD8E705
:100B50000008014010B5002410210A48FFF7FAFBF5
:100B6000AB2000F095F800F02FF800F02DF800F021
:100B70002BF800F029F8044610210248FFF7ECFB9F
:100B8000204610BD0008014070B500240025002655
:100B900010210C48FFF7DEFB9F2000F079F800F0F1
:100BA00013F8044600F010F8054600F00DF806466C
:100BB00010210448FFF7D0FB200440EA0520304311
:100BC00070BD00000008014010B5FF2000F060F883
:100BD00010BD000000B587B001210803FFF706FC37
:100BE0004FF40070ADF812000020ADF808004FF48B
:100BF0008270ADF80A000020ADF80C000220ADF8BC
:100C00000E000120ADF810000820ADF814000020FF
:100C1000ADF816000720ADF8180002A91A48FFF732
:100C200079FC01211848FFF75BFC01210420FFF744
:100C3000DDFB10208DF8070003208DF80600102042
:100C4000ADF8040001A91148FFF7F9FA2020ADF82A
:100C5000040018208DF8070001A90C48FFF7EFFAEF
:100C60004020ADF8040001A90848FFF7E8FA802009
:100C7000ADF8040001A90548FFF7E1FA1021034887
:100C8000FFF76AFB07B000BD0030014000080140DB
:100C900010B5044610210D48FFF75CFB00BF022190
:100CA0000B48FFF729FC0028F9D021460848FFF738
:100CB0002FFC00BF01210648FFF71EFC0028F9D0D9
:100CC0000348FFF722FCC0B210BD0000000801403D
:100CD0000030014010B510210848FFF73BFB05200C
:100CE000FFF7D6FF00BFFFF76FFF00F001000028FD
:100CF000F9D110210148FFF72FFB10BD000801407A
:100D000010B510210548FFF725FB0620FFF7C0FFAF
:100D100010210248FFF720FB10BD00000008014031
:100D20000FB4054B10B503A9044A029800F018F857
:100D300010BC5DF814FB0000C5110008180000206D
:100D400002E008C8121F08C1002AFAD17047704794
:100D5000002001E001C1121F002AFBD170470000F2
:100D60002DE9FF4F8DB00F460546002606E02528E9
:100D70000BD0DDE90F1290476D1C761C28780028F7
:100D8000F5D111B03046BDE8F08F0024A246A1464F
:100D90000122EC4900E0044315F8013F203B02FA30
:100DA00003F00842F7D128782A2810D06FF02F02DC
:100DB0002878A0F13001092914D80AEB8A0102EB46
:100DC000410144F0020400EB010A6D1CF0E701CF81
:100DD0005FEA000A03D544F40054CAF1000A44F063
:100DE00002046D1C28782E2817D115F8010F44F045
:100DF00004042A280ED06FF02F022878A0F13001C9
:100E000009290AD809EB890102EB410100EB01092C
:100E10006D1CF2E757F8049B6D1C28786C280FD0E6
:100E200006DC4C2817D068280DD06A2814D104E0BD
:100E3000742810D07A280FD10DE044F400140AE091
:100E400044F4801401E044F440146978814202D1F2
:100E500004F580146D1C6D1C2A786E2A1FD00CDCE2
:100E6000632A31D004DC002A8BD0582A11D1A3E0A8
:100E7000642A68D0692A0CD165E0732A2ED004DC7C
:100E80006F2A73D0702A04D19BE0752A6FD0782A1C
:100E90006ED01046DDE90F129047761C50E1C4F386
:100EA0000250022806D0032809D0042801CF09D017
:100EB000066045E101CFF117C0E9006140E101CFD3
:100EC00006803DE106703BE117F8040B8DF8000049
:100ED00000208DF80100EB46012003E057F804BB29
:100EE0004FF0FF3061074FF0000102D40DE008F130
:100EF0000101884649450FDA8045F8DB1BF80810E8
:100F00000029F4D108E008F1010188468142FADBAA
:100F10001BF808100029F6D1DDE90F23AAEB080021
:100F20008146214600F036F9304400EB080604E023
:100F3000DDE90F121BF8010B9047B8F10108F7D259
:100F400021464846F7E00A21C4F302534FF0000B54
:100F50000891022B04D001CFC117032B09D00AE05E
:100F6000FF1D27F00707F7E8020108E032E01FE065
:100F700020E000B2C117042B01D140B2C117031EFB
:100F800071F1000307DA4FF0000CD0EB0C006CEBB2
:100F900001012D2302E0230504D52B238DF82430F5
:100FA000012303E0E30701D02023F7E7984658E048
:100FB0000A2110E010210EE010204FF0000B0890E5
:100FC0000CE010214FF0000B44F004044FF008092E
:100FD000089103E008214FF0000B0891C4F302537D
:100FE000022B04D001CF0021032B06D006E0FF1D09
:100FF00027F00707F7E8020103E080B2042B00D1D5
:10100000C0B24FF0000823072BD5702A07D0DDF8B7
:1010100020C08CF0100C5CEA0B0C05D00EE04023D5
:101020008DF82430012308E050EA010306D0302374
:101030008DF824308DF8252002239846DDF820C055
:101040008CF0080C5CEA0B0C0BD150EA010301D1C7
:10105000630706D530238DF824304FF00108A9F13D
:101060000109582A04D038A20B9208AA0A920BE070
:101070003AA2F9E75B46089AFFF776F80B9B9B5C70
:101080000A9A521E0A92137050EA0102F2D10A988B
:10109000ADEB000000F1200B600702D524F4803492
:1010A00001E04FF00109D94502DDA9EB0B0000E09A
:1010B000002000EB0B0141440890AAEB010AE00379
:1010C00006D4DDE90F232146504600F063F80644BC
:1010D0004FF0000908E009A911F80900DDE90F1235
:1010E000904709F10109761CC145F4DBE0030CD5FA
:1010F000DDE90F232146504600F04CF8064404E099
:10110000DDE90F1230209047761C0899481E0890A0
:101110000029F5DC08E00A980A990078491C0A9130
:10112000DDE90F129047761CBBF10001ABF1010B1A
:10113000F1DC21465046DDE90F2300F019F80644A2
:101140006D1C1BE609280100303132333435363747
:101150003839616263646566000000003031323303
:1011600034353637383941424344454600000000A3
:101170002DE9F041044600251E461746880404D494
:1011800005E039462020B0476D1C641EF9D528467D
:10119000BDE8F0812DE9F041044600251E46904649
:1011A000C80301D5302700E02027880404D505E0D6
:1011B00041463846B0476D1C641EF9D52846BDE847
:1011C000F081000070B504460D46E1B20548FFF716
:1011D00060FB00BF80210348FFF78EFA0028F9D09A
:1011E000204670BD00380140ADF5627DFFF756FB2B
:1011F00035A0FFF795FD3F48FFF792FD3E48FFF70A
:1012000015F800200CE000EB40025100CA1701EB7A
:1012100012621212A1EB022271AB1A54411C88B265
:10122000B0F5E17FEFDBFFF7D5FCFFF793FC074656
:10123000C820FEF7FBFFFFF7A7FC05463A46294604
:101240002EA0FFF76DFD3B48854237D13AA0FFF74E
:1012500067FD4148FFF72CFC4FF4E1723E4971A84D
:10126000FFF794FB4FF4E1723B496846FFF766FBDA
:10127000002606E01DF8061038A0FFF751FD701C8F
:1012800086B2B6F5E17FF5DB002408E071A8005DC9
:101290001DF80410884200D004E0601C84B2B4F54C
:1012A000E17FF3DB00BFB4F5E17F03D12EA0FFF7B0
:1012B00037FD02E035A0FFF733FD02E03CA0FFF769
:1012C0002FFD00BFFEE700000D0A20D5E2CAC7D2FD
:1012D000BBB8F6384D62797465B4AED0D0666C6137
:1012E00073682857323551363429CAB5D1E9200DF3
:1012F0000A000000CC130008A08601000D0A204659
:101300006C617368494420697320307825582C0932
:101310004D616E75666163747572657220446576A1
:1013200069636520494420697320307825580D0A87
:10133000000000001740EF000D0A20BCECB2E2B53F
:10134000BDB4AED0D0666C6173682057323551366B
:101350003420210D0A000000003061003078253073
:101360003258200A000000000D0A20384DB4AED0DB
:10137000D0666C6173682857323551363429B2E231
:10138000CAD4B3C9B9A6210A0D0000000D0A20383D
:101390004DB4AED0D0666C61736828573235513683
:1013A0003429B2E2CAD4CAA7B0DC210A0D00000079
:1013B0000D0A20BBF1C8A1B2BBB5BD2057323551D3
:1013C0003634204944210A0D000000000D0A20CACD
:1013D000B9D3C3D6B8C4CFD5DFB5D7B0E5CAB1202D
:1013E000D7F3C9CFBDC7C5C5D5EBCEBBD6C320B2D9
:1013F000BBD2AABDAB504330B8C7D3D0CCF8C3B131
:1014000020B7C0D6B9D3B0CFEC504330D7F6535045
:1014100049464C415348C6ACD1A1BDC5200D0A0078
:1014200040140008000000201C000000400D0008CF
:101430005C1400081C00002084040000500D00080B
:101440000000000000010203040102030406070873
:0C14500009020406080000000000000073
:0400000508000131BD
:00000001FF
