:020000040800F2
:100000000004002001010008090100080B0100089C
:100010000D0100080F010008110100080000000098
:1000200000000000000000000000000013010008B4
:100030001501000800000000170100081901000860
:100040001B0100081B0100081B0100081B01000820
:100050001B0100081B0100081B0100081B01000810
:100060001B010008490100088D0100081B01000860
:100070001B0100081B0100081B0100081B010008F0
:100080001B0100081B0100081B0100081B010008E0
:100090001B0100081B0100081B010008D10100081A
:1000A0001B0100081B0100081B0100081B010008C0
:1000B0001B0100081B0100081B0100081B010008B0
:1000C0001B0100081B0100081B0100081B010008A0
:1000D0001B0100081B0100081B0100081B01000890
:1000E0001B0100081B0100081B010008DFF80CD0F1
:1000F00000F018F8004800474D07000800040020F1
:100100000648804706480047FEE7FEE7FEE7FEE7B1
:10011000FEE7FEE7FEE7FEE7FEE7FEE7CD060008A6
:10012000ED000008064C074D06E0E06840F00103D2
:1001300094E8070098471034AC42F6D3FFF7DAFF93
:10014000840700089407000810B5082000F084F820
:10015000B8B14FF6FF7400BF201EA4F10104FBD11B
:100160000821084800F081F938B90F21064800F04D
:1001700087F90121044800F081F9082000F066F8B1
:1001800000BF10BD000C01400008014010B5102058
:1001900000F062F8B8B14FF6FF7400BF201EA4F162
:1001A0000104FBD11021084800F05FF938B90F2194
:1001B000064800F065F90221044800F05FF91020BC
:1001C00000F044F800BF10BD000C014000080140E1
:1001D00010B5202000F040F8B8B14FF6FF7400BF12
:1001E000201EA4F10104FBD12021164800F03DF9A6
:1001F00038B90F21144800F043F90421124800F0E7
:100200003DF9202000F022F81BE0402000F024F807
:10021000B8B14FF6FF7400BF201EA4F10104FBD15A
:100220004021084800F021F938B90F21064800F0B4
:1002300027F90821044800F021F9402000F006F8D1
:1002400000BF10BD000C01400008014001490860DA
:100250007047000014040140014600200022074BB3
:100260001B6803EA0102054B14331B680B4013B1F2
:100270000AB1012000E000207047000000040140A6
:10028000002123498279002A3AD00A46126803687D
:100290009A430B461A600A1D126803689A430B1DA5
:1002A0001A60027911440A6803681A430A60184AFE
:1002B0000832126803689A43154B08331A601A1DF6
:1002C000126803689A43124B0C331A604279102A61
:1002D0000ED11A1F126803681A430D4B08331A60B7
:1002E0001A1D126803681A43094B0C331A600DE09B
:1002F0000749427911440A6803681A430A6005E015
:10030000027911440A6803689A430A607047000042
:100310000004014030B500228B071C0F0F2303FAA5
:1003200004F20B4B8C1053F824309343084C8D107F
:1003300044F8253023468C1053F824308C07240FC2
:1003400000FA04F42343024C8D1044F8253030BDEC
:10035000080001402DE9F04102460025002600205A
:1003600000230024002791F803C00CF00F0591F83A
:1003700003C00CF0100CBCF1000F03D091F802C0C8
:100380004CEA050591F800C0BCF1000F31D01468AB
:1003900000202BE04FF0010C0CFA00F3B1F800C084
:1003A0000CEA03069E4220D183004FF00F0C0CFA9A
:1003B00003F7BC4305FA03FC4CEA040491F803C0BC
:1003C000BCF1280F06D14FF0010C0CFA00FCC2F86A
:1003D00014C00AE091F803C0BCF1480F05D14FF0FA
:1003E000010C0CFA00FCC2F810C0401C0828D1D344
:1003F0001460B1F800C0BCF1FF0F34DD5468002078
:100400002EE000F1080C4FF0010808FA0CF3B1F8E7
:1004100000C00CEA03069E4221D183004FF00F0C6E
:100420000CFA03F7BC4305FA03FC4CEA040491F808
:1004300003C0BCF1280F05D100F1080C08FA0CF834
:10044000C2F8148091F803C0BCF1480F07D100F145
:10045000080C4FF0010808FA0CF8C2F81080401C94
:100460000828CED35460BDE8F0810246002093688E
:100470000B400BB1012000E0002070474161704744
:100480000161704710B500F025F800F039F800F070
:1004900001F810BD1CB503210120FFF73BFF04212B
:1004A0000120FFF737FF05210120FFF733FF062169
:1004B0000120FFF72FFF7820009000208DF8040026
:1004C0000C208DF8050001208DF806006846FFF726
:1004D000D7FE1CBD08B50121092000F073F84820A3
:1004E0008DF803007820ADF8000003208DF802009D
:1004F00069460248FFF72EFF08BD0000000C0140CE
:1005000008B54FF4C06000F053F809208DF80000E2
:1005100001208DF801008DF802008DF80300684677
:1005200000F00EF80A208DF80000684600F008F888
:1005300017208DF80000684600F002F808BD0000A2
:1005400070B5002100230F22C47804B3154C246831
:1005500004F4E064C4F5E064210AC1F10403CA4074
:10056000447804FA03F184781440214309010E4CC5
:100570000678A155047804F01F050124AC400578E5
:100580006D11AD0005F1E025C5F8004109E00478E2
:1005900004F01F050124AC40044D0678761145F89F
:1005A000264070BD0CED00E000E400E080E100E0DA
:1005B00002490143024A1160704700000000FA0539
:1005C0000CED00E029B1064A92690243044B9A619E
:1005D00004E0034A92698243014B9A61704700002C
:1005E0000010024010B500F001F810BD0CB500205D
:1005F000019000903348006840F480303149086031
:1006000000BF3048006800F4003000900198401CA2
:100610000190009818B90198B0F5A06FF1D1294860
:10062000006800F4003010B10120009001E00020CB
:1006300000900098012843D12348006840F0100042
:10064000214908600846006820F003000860084659
:10065000006840F0020008601A4840681949486084
:100660000846406848600846406840F4806048603A
:100670000846406820F47C1048600846406840F412
:10068000E81048600846006840F08070086000BFCD
:100690000C48006800F000700028F9D00948406854
:1006A00020F00300074948600846406840F0020017
:1006B000486000BF0348406800F00C000828F9D1EA
:1006C0000CBD0000001002400020024010B513488D
:1006D000006840F001001149086008464068104970
:1006E00008400E494860084600680E4908400B491A
:1006F00008600846006820F48020086008464068CA
:1007000020F4FE0048604FF41F008860FFF76AFF86
:100710004FF000600449086010BD00000010024066
:100720000000FFF8FFFFF6FE08ED00E002E008C859
:10073000121F08C1002AFAD170477047002001E05B
:1007400001C1121F002AFBD17047000008B501212A
:100750000420FFF737FF10208DF803000F20ADF8BD
:10076000000003208DF8020069460548FFF7F2FDFE
:100770000F210348FFF784FEFFF784FE00BFFEE76A
:100780000008014094070008000000200004000059
:040790003C0700081A
:04000005080000ED02
:00000001FF
