:020000040800F2
:10000000A004002001010008090100080B010008FC
:100010000D0100080F010008110100080000000098
:1000200000000000000000000000000013010008B4
:100030001501000800000000170100081901000860
:100040001B0100081B0100081B0100081B01000820
:100050001B0100081B0100081B0100081B01000810
:100060001B0100081B0100081B0100081B01000800
:100070001B0100081B0100081B0100081B010008F0
:100080001B0100081B0100081B0100081B010008E0
:100090001B0100081B0100081B0100081B010008D0
:1000A0001B0100081B0100081B0100081B010008C0
:1000B0001B0100081B0100081B0100081B010008B0
:1000C0001B0100081B0100081B0100081B010008A0
:1000D0001B010008F90500081B0100081B010008AE
:1000E0001B0100081B0100081B010008DFF80CD0F1
:1000F00000F02EF800480047550A0008A004002030
:100100000648804706480047FEE7FEE7FEE7FEE7B1
:10011000FEE7FEE7FEE7FEE7FEE7FEE799050008DB
:10012000ED00000830B50B460146002020220124D6
:1001300009E021FA02F59D4205D303FA02F5491BB5
:1001400004FA02F52844151EA2F10102F1DC30BDCB
:10015000064C074D06E0E06840F0010394E8070014
:1001600098471034AC42F6D3FFF7C4FFBC0A00082E
:10017000DC0A00080348008840F0010001490880BB
:1001800070470000346C004010B501214FF0C050A2
:1001900000F004F9012000F0FBF8FFF7EBFF04206A
:1001A00000F008F84AF25A51884201D1002010BDEF
:1001B0000120FCE708B501460020009003480090AC
:1001C0000098084400900098008808BD006C00402A
:1001D00008B500220092044A0092009A024400925C
:1001E000009A116008BD0000006C00402DE9F0414C
:1001F000024600250026002000230024002791F855
:1002000003C00CF00F0591F803C00CF0100CBCF10A
:10021000000F03D091F802C04CEA050591F800C028
:10022000BCF1000F31D0146800202BE04FF0010C1E
:100230000CFA00F3B1F800C00CEA03069E4220D18C
:1002400083004FF00F0C0CFA03F7BC4305FA03FCD4
:100250004CEA040491F803C0BCF1280F06D14FF01A
:10026000010C0CFA00FCC2F814C00AE091F803C0BB
:10027000BCF1480F05D14FF0010C0CFA00FCC2F89C
:1002800010C0401C0828D1D31460B1F800C0BCF1E4
:10029000FF0F34DD546800202EE000F1080C4FF011
:1002A000010808FA0CF3B1F800C00CEA03069E42FC
:1002B00021D183004FF00F0C0CFA03F7BC4305FA71
:1002C00003FC4CEA040491F803C0BCF1280F05D1EB
:1002D00000F1080C08FA0CF8C2F8148091F803C079
:1002E000BCF1480F07D100F1080C4FF0010808FAE3
:1002F0000CF8C2F81080401C0828CED35460BDE82A
:10030000F08108B501208DF803008DF801008DF80B
:10031000020025208DF80000684600F001F808BDB5
:1003200070B5002100230F22C47804B3154C246853
:1003300004F4E064C4F5E064210AC1F10403CA4096
:10034000447804FA03F184781440214309010E4CE7
:100350000678A155047804F01F050124AC40057807
:100360006D11AD0005F1E025C5F8004109E0047804
:1003700004F01F050124AC40044D0678761145F8C1
:10038000264070BD0CED00E000E400E080E100E0FC
:10039000014908627047000000000E4229B1064A78
:1003A000D2690243044BDA6104E0034AD269824312
:1003B000014BDA61704700000010024029B1064A83
:1003C00092690243044B9A6104E0034A92698243B2
:1003D000014B9A61704700000010024030B50021C7
:1003E0000022002400232D4D6D6805F00C0121B181
:1003F000042905D0082923D105E0294D056022E014
:10040000274D05601FE0254D6D6805F47012234DE2
:100410006D6805F48034022505EB92421CB9214D2C
:10042000554305600BE01D4D6D6805F400351DB1A9
:100430001C4D5543056002E0194D5543056002E02F
:10044000174D056000BF00BF144D6D6805F0F00149
:100450000909154D6B5C0568DD4045600F4D6D6801
:1004600005F4E061090A104D6B5C4568DD4085606C
:100470000A4D6D6805F46051C90A0B4D6B5C456807
:10048000DD40C560054D6D6805F44041890B074DA1
:100490006B5CC568B5FBF3F5056130BD001002402B
:1004A00000127A0000093D00010000201100002028
:1004B00010B500F001F810BD0CB5002001900090BF
:1004C0003348006840F480303149086000BF30484C
:1004D000006800F4003000900198401C01900098E2
:1004E00018B90198B0F5A06FF1D12948006800F45F
:1004F000003010B10120009001E000200090009831
:10050000012843D12348006840F0100021490860C9
:100510000846006820F0030008600846006840F0C4
:10052000020008601A484068194948600846406857
:1005300048600846406840F480604860084640686B
:1005400020F47C1048600846406840F4E810486099
:100550000846006840F08070086000BF0C480068E2
:1005600000F000700028F9D00948406820F003002E
:10057000074948600846406840F00200486000BFF4
:100580000348406800F00C000828F9D10CBD0000B9
:10059000001002400020024010B51348006840F0EF
:1005A00001001149086008464068104908400E499A
:1005B0004860084600680E4908400B490860084634
:1005C000006820F4802008600846406820F4FE009F
:1005D00048604FF41F008860FFF76AFF4FF000602B
:1005E0000449086010BD0000001002400000FFF840
:1005F000FFFFF6FE08ED00E010B540F225510D4872
:1006000000F037F858B10B4800F0EEF8C1B20A48D4
:1006100002780078401C084B18700848815440F25A
:100620002441044800F025F810B1024800F0DCF83D
:1006300010BD000000380140000000201C00002018
:1006400021B1828942F40052828104E082894DF610
:10065000FF731A408281704702460020B1F5007F87
:1006600000D100BF13880B400BB1012000E0002037
:10067000704770B50246002400230025002040F694
:100680006A16B14200D100BFC1F3421501F01F0349
:10069000012606FA03F3012D02D19689334006E0C4
:1006A000022D02D1168A334001E0968A33400C12A3
:1006B000012606FA04F41688344013B10CB1012067
:1006C00000E0002070BDF0B50346002400260025A0
:1006D000002040F66A17B94200D100BF1846C1F3A6
:1006E000421401F01F06012707FA06F5012C01D17B
:1006F0000C3004E0022C01D1103000E014301AB1AB
:1007000007682F43076002E00768AF430760F0BD4A
:100710002DE9F04786B005460E460024A24600BFEC
:10072000A1460027B08900B100BF2F462C8A4CF6A5
:10073000FF700440F08804432C82AC894EF6F3101D
:100740000440B08831890843718908430443AC816F
:10075000AC8A4FF6FF400440B0890443AC8201A844
:10076000FFF73CFE1F48874202D1DDF810A001E0F0
:10077000DDF80CA0A88900F4004040B10AEBCA00E3
:1007800000EB0A1031684900B0FBF1F807E00AEB12
:10079000CA0000EB0A1031688900B0FBF1F8642050
:1007A000B8FBF0F004012009642101FB1089A8893D
:1007B00000F4004040B1322000EBC900B0FBF1F082
:1007C00000F00700044308E0322000EB0910642128
:1007D000B0FBF1F000F00F0004432C8106B0BDE83F
:1007E000F08700000038014001468888C0F3080007
:1007F0007047C1F3080282807047000000B585B0E1
:1008000001210420FFF7DAFD01218803FFF7D6FD5F
:100810004FF48060ADF8100004208DF8130004A997
:100820001C48FFF7E3FC4FF40070ADF810001820EF
:100830008DF8130003208DF8120004A91548FFF766
:10084000D5FC0020ADF80400ADF806004FF4E1300F
:1008500000900020ADF80800ADF80C000C20ADF8B9
:100860000A0069460C48FFF753FF01210A48FFF7C9
:10087000E7FEFFF746FD012240F225510648FFF74B
:1008800022FF012240F224410348FFF71CFF05B07C
:1008900000BD000000080140003801400FB4054BC6
:1008A00010B503A9044A029800F018F810BC5DF8CE
:1008B00014FB0000310A00081800002002E008C8FC
:1008C000121F08C1002AFAD170477047002001E0CA
:1008D00001C1121F002AFBD1704700002DE9FF4F14
:1008E00089B09B460446002506E025280BD05A46D1
:1008F0000B999047641C6D1C20780028F5D10DB031
:100900002846BDE8F08F0027B8460122474900E09D
:10091000074314F8013F203B02FA03F00842F7D1E5
:1009200020782E2819D114F8010F47F004072A283F
:100930000ED06FF02F022078A0F1300109290CD8D9
:1009400008EB880102EB410100EB0108641CF2E7AF
:100950000A98641C50F8048B0A9020780028CED0A6
:10096000642808D0692806D075281ED05A460B99ED
:1009700090476D1C58E00A994FF00A0901C90A9185
:10098000002802DA40422D2102E0390504D52B214E
:100990008DF82010012103E0F90704D02021F7E7AA
:1009A0008A4608AE0DE00021FAE70A994FF00A09DD
:1009B00001C90A91F7E74946FFF7B4FB303106F861
:1009C000011D0028F7D1ADEB060000F120097807E2
:1009D00001D44FF00108C84502DDA8EB090000E092
:1009E00000208046002706E008A85A46C05D0B9903
:1009F00090476D1C7F1C5745F6DB04E030205A46BB
:100A00000B9990476D1CB8F10001A8F10108F5DCC5
:100A100005E016F8010B5A460B9990476D1CB9F189
:100A20000001A9F10109F4DC641C65E70928010053
:100A300070B504460D46E1B20548FFF7DAFE00BF87
:100A400080210348FFF708FE0028F9D0204670BD3A
:100A500000380140FFF7D2FE0FA0FFF71FFFFFF79E
:100A600093FB054675B10820FFF7A4FBC4B2601CD8
:100A7000C4B221460AA0FFF711FF21460820FFF764
:100A8000A7FB06E00AA0FFF709FF01210820FFF7F6
:100A90009FFB00BFFEE70000BFAACABC090A000016
:100AA000B5DA2564B4CEB8B4CEBB090A00000000A4
:100AB000B5DA31B4CEB8B4CEBB090A00DC0A0008FE
:100AC000000000201C000000BC080008F80A000814
:100AD0001C00002084040000CC0800080000000076
:100AE00000010203040102030406070809020406C8
:080AF0000800000000000000F6
:04000005080000ED02
:00000001FF
