:020000040800F2
:100000001804002001010008090100080B01000884
:100010000D0100080F010008110100080000000098
:1000200000000000000000000000000013010008B4
:100030001501000800000000170100081901000860
:100040001B0100081B0100081B0100081B01000820
:100050001B0100081B0100081B0100081B01000810
:100060001B0100081B0100081B0100081B01000800
:100070001B0100081B0100081B0100081B010008F0
:100080001B0100081B0100081B0100081B010008E0
:100090001B0100081B0100081B0100081B010008D0
:1000A0001B0100081B0100081B0100081B010008C0
:1000B0001B0100081B0100081B0100081B010008B0
:1000C0001B0100081B0100081B0100081B010008A0
:1000D0001B0100081B0100081B0100081B01000890
:1000E0001B0100081B0100081B010008DFF80CD0F1
:1000F00000F09AFA00480047F115000818040020A3
:100100000648804706480047FEE7FEE7FEE7FEE7B1
:10011000FEE7FEE7FEE7FEE7FEE7FEE7810F0008E9
:10012000ED0000082DE9FE4F804681EA0300C00F74
:100130000C46009021F0004123F00045B8EB02008E
:10014000A94105D24046214690461C460B46024630
:1001500023F00040104347D0270DC7F30A00C3F334
:100160000A510290401A019040286BDAC3F3130041
:1001700040F4801B0098924620B10023D2EB030A82
:1001800063EB0B0B01985946C0F14002504600F05A
:100190008EF906460D4650465946019A00F0A6F9DA
:1001A00010EB08006141002487EA115284EAE773EA
:1001B0001A4340D0009A62B3019A012A4FEA0752CB
:1001C00015DC001B61EB02014FF0004202EA07520E
:1001D000CDE90042001C41F5801132462B4600F06B
:1001E000A6F903B0BDE8F08F40462146F9E7001BB1
:1001F00061EB0201001C41F5801300185B412018DF
:10020000A2F5001747EB030140EAD570B6196D411E
:1002100011E06D084FEA360645EAC0754FEA07520D
:10022000001B61EB0201001C41F5801149084FEAF7
:1002300030000019514132462B4603B0BDE8F04F63
:1002400000F066B90098012240000023D0EB0202C2
:1002500063EBE073009821464FEAE074B8EB0000CE
:1002600061EB0401E9E783F000435BE781F00041C3
:1002700058E72DE9FE4F81EA030404F0004421F021
:10028000004100944FF0000B23F0004350EA0104BA
:100290005ED052EA03045BD0C3F30A54C1F30A559B
:1002A0002C44A4F2F3340194A0FB0254C1F31301D3
:1002B00041F48011C3F3130343F4801301FB0244A0
:1002C00000FB034E840A970A44EA815447EA8357A5
:1002D000A4FB076802958D0A05FB07854FEA932C5E
:1002E00004FB0C542705029D4FEA065847EA1637CF
:1002F000B5EB08056EEB070C870E920E47EA8117E7
:1003000042EA8312A7FB0201B6EB0B0164EB000487
:100310002B0D43EA0C335E1844EB1C50DA46514671
:10032000E7FB0201C5F313044FEA0B3343EA14530E
:100330004FEA0432019C43EA0603A4F10C04029440
:10034000009CCDE900B400F0F2F803B0BDE8F08FF6
:1003500000200146F9E72DE9F04D81EA030404F09D
:10036000004B21F0004514464FF0000A23F00041F5
:1003700050EA050220D054EA01021DD0C5F30A5705
:100380000246C5F31303C1F31300C1F30A5640F448
:10039000801543F48013A7EB0608101BD64608F21D
:1003A000FD3873EB050002D308F1010801E0921853
:1003B0005B41B8F1000F03DA00200146BDE8F08D83
:1003C00000204FF48011064684460EE0171B73EBA5
:1003D000050705D3121B63EB050306434CEA010C2A
:1003E00049084FEA300092185B4150EA0107EDD10D
:1003F00052EA030012D082EA040083EA05010843AE
:1004000005D0101BAB4106D20122002306E00022DA
:100410004FF0004302E06FF0010253101AEB0600A8
:100420004CEB085110EB0A0041EB0B01BDE8F04D1D
:1004300000F06EB80EB5C10F80EAE0700844CA073C
:10044000002140F233438DE80E000A460B4600F0CF
:100450006EF803B000BD0EB540F2334102910021A9
:10046000CDE900110A460B4600F061F803B000BD6B
:1004700070B5C1F30A5201F000450024C1F3130125
:1004800040F2FF3341F480119A4201DA002070BD3E
:1004900040F233439A42A2F2334203DC524200F06C
:1004A00015F800E090402C43F1D0404270BD202A66
:1004B00004DB203A00FA02F1002070479140C2F1BB
:1004C000200320FA03F3194390407047202A04DBED
:1004D000203A21FA02F00021704721FA02F3D040BD
:1004E000C2F120029140084319467047202A06DBDA
:1004F000CB17203A41FA02F043EAE07306E041FAF2
:1005000002F3D040C2F120029140084319467047DF
:1005100010B5141E73F1000408DA401C41F100010B
:1005200092185B411A4301D120F0010010BD2DE962
:10053000F04D92469B4611B1B1FA81F202E0B0FA59
:1005400080F220329046FFF7B2FF04460F4640EAA1
:100550000A0041EA0B0153465A46084313D011469C
:1005600053EA010019D0C8F140025046FFF7AEFF30
:1005700005460E46504659464246FFF798FF084347
:1005800005D0012004E020463946BDE8F08D00206A
:10059000054346EAE0762C4337430A986305E40AAC
:1005A000A0EB08000022FD0A44EA47540A3002D5B5
:1005B00000200146E9E7010510196941DDE9084518
:1005C00000196941BDE8F04DA2E770B521F0004384
:1005D00003430CD0C1F30A550024D5EB040564EBAA
:1005E0000403D617AD1AB34102DB0020014670BDEB
:1005F000201841EB025170BD30B5041E71F10004AA
:1006000004DB4FF00044404264EB0101141E73F11F
:10061000000405DB1C464FF00043524263EB040329
:10062000994208BF904230BD064C074D06E0E06895
:1006300040F0010394E8070098471034AC42F6D329
:10064000FFF758FD88210008A82100082DE9F04D8A
:1006500000231A461B1A8A4103DB00200146BDE82D
:10066000F08DC1F30A52C1F3130141F480154FF02C
:10067000000BD10702D100186D41521E002704461D
:1006800040F2FF11384601EB620A3E4680460246C0
:1006900000204FF48011FFF719FFC2197141BB18F8
:1006A00046EB0100B4EB030C75EB000C04D3E41A29
:1006B00065EB000517460E46241908F101006D414F
:1006C00080463428E3DDF91946EB0600091BA841F2
:1006D00003D24FF0FF32134601E0002213461BEB1A
:1006E000070046EB0A51BDE8F04DFFF711BF10B50A
:1006F0000121082000F09CFA10BD000070B5002414
:1007000000F03EFB00F044FB082000F0ABFB0025AE
:1007100013E000F02DFB00F0FDF8002602210B484D
:1007200000F0A0F900B1012646EA4400C4B200F08E
:1007300027FB00F0EFF8681CC5B2082DE9DB00F0DC
:1007400027FB082000F08EFB204670BD000C014006
:1007500070B586B005460020059004900390029085
:10076000019000900024002600F06CF8502000F06A
:10077000B7F800BF09E040F2E45000F073FB3046E8
:10078000711C8EB2642800DB05E000F04AF800F02E
:1007900080008028EFD000BF00F071F9712000F0D8
:1007A00076F800F0BFFAFFF7A9FF059000F02EFBE6
:1007B000FFF7A4FF049000F029FBFFF79FFF0390D1
:1007C00000F024FBFFF79AFF029000F01FFBFFF7F9
:1007D00095FF019000F01AFBFFF790FF009000F0EA
:1007E0002CFB00F0BFFB9DF81000204304029DF895
:1007F0000C00204304029DF80800044324092C60E7
:1008000000249DF80800204304029DF804002043C2
:1008100004029DF800000443C4F313046C6006B0A6
:1008200070BD10B500F02BF9712000F030F800F029
:1008300079FAFFF763FF044600F0FFFA00F092FB3D
:10084000204610BD10B500F01AF9702000F01FF816
:1008500000F068FAAC2000F01AF800F063FA3320D8
:1008600000F015F800F05EFA002000F010F800F03B
:1008700059FA00F077FB10BD10B51B2000F03AF9D3
:100880001C2000F037F91E2000F034F910BD2DE9CE
:10089000F041044625468027002613E000F070FA58
:1008A00007EA050010B100F085FA01E000F098FABF
:1008B00000F022F800F05CFA00F01EF86806050E61
:1008C000701CC6B2082EE9DB00F05AFA082000F0CE
:1008D000C9FA00F05DFA082000F0C4FABDE8F08122
:1008E00010B5044603E04FF47A7000F0BBFA201E06
:1008F000A4F10104F7D110BD00B5012000F01BF8F0
:10090000012000F018F8012000F015F8012000F097
:1009100012F800BD00B5012000F00DF8012000F034
:100920000AF8012000F007F8012000F004F8012087
:1009300000F001F800BD014604E0002000E0401C8A
:100940000228FCD30A1EA1F10101F6D170472DE95E
:10095000F041024600250026002000230024002745
:1009600091F803C00CF00F0591F803C00CF0100CC7
:10097000BCF1000F03D091F802C04CEA050591F8D4
:1009800000C0BCF1000F31D0146800202BE04FF004
:10099000010C0CFA00F3B1F800C00CEA03069E4209
:1009A00020D183004FF00F0C0CFA03F7BC4305FA7B
:1009B00003FC4CEA040491F803C0BCF1280F06D1F3
:1009C0004FF0010C0CFA00FCC2F814C00AE091F8D8
:1009D00003C0BCF1480F05D14FF0010C0CFA00FC2C
:1009E000C2F810C0401C0828D1D31460B1F800C070
:1009F000BCF1FF0F34DD546800202EE000F1080C3C
:100A00004FF0010808FA0CF3B1F800C00CEA030635
:100A10009E4221D183004FF00F0C0CFA03F7BC4328
:100A200005FA03FC4CEA040491F803C0BCF1280F5A
:100A300005D100F1080C08FA0CF8C2F8148091F8FE
:100A400003C0BCF1480F07D100F1080C4FF00108BA
:100A500008FA0CF8C2F81080401C0828CED3546065
:100A6000BDE8F0810246002093680B400BB10120E5
:100A700000E000207047416170470161704710B588
:100A800000F098F900F074F9082000F0EBF900F09C
:100A9000A7F9082000F0E6F900F072F9082000F04C
:100AA000E1F910BD08B5FFF722FE14208DF8030010
:100AB0000220ADF8000003208DF8020069460C48C2
:100AC000FFF745FF02210A48FFF7D7FF14208DF8F2
:100AD00003000120ADF8000003208DF802006946F4
:100AE0000348FFF734FF01210148FFF7C6FF08BDA7
:100AF000000C01402DE9F0410446FFF7C0FF7020D3
:100B0000FFF7C5FE00F00EF92046FFF7C0FE00F02B
:100B100009F90020FFF7BBFE00F004F90020FFF701
:100B2000B6FE00F0FFF800F01DFA0520FFF7D8FE32
:100B3000FFF7A5FF7120FFF7AAFE00F0F3F8FFF71B
:100B4000DDFD074600F062F9FFF7D8FD054600F02D
:100B50005DF9FFF7D3FD064600F06FF900F002FAE9
:100B60000A20FFF7BDFEFFF78AFF7020FFF78FFE18
:100B700000F0D8F844F0B000FFF789FE00F0D2F89A
:100B80002846FFF784FE00F0CDF83046FFF77FFEE1
:100B900000F0C8F800F0E6F900250026BDE8F08175
:100BA00008B501208DF803008DF801008DF80200D2
:100BB00025208DF80000684600F002F808BD00000E
:100BC00070B5002100230F22C47804B3154C2468AB
:100BD00004F4E064C4F5E064210AC1F10403CA40EE
:100BE000447804FA03F184781440214309010E4C3F
:100BF0000678A155047804F01F050124AC4005785F
:100C00006D11AD0005F1E025C5F8004109E004785B
:100C100004F01F050124AC40044D0678761145F818
:100C2000264070BD0CED00E000E400E080E100E053
:100C300029B1064A92690243044B9A6104E0034ACF
:100C400092698243014B9A61704700000010024094
:100C500030B500210022002400232D4D6D6805F0E1
:100C60000C0121B1042905D0082923D105E0294D23
:100C7000056022E0274D05601FE0254D6D6805F4F5
:100C80007012234D6D6805F48034022505EB924205
:100C90001CB9214D554305600BE01D4D6D6805F4F1
:100CA00000351DB11C4D5543056002E0194D5543FB
:100CB000056002E0174D056000BF00BF144D6D6870
:100CC00005F0F0010909154D6B5C0568DD404560D4
:100CD0000F4D6D6805F4E061090A104D6B5C4568C5
:100CE000DD4085600A4D6D6805F46051C90A0B4D01
:100CF0006B5C4568DD40C560054D6D6805F440419D
:100D0000890B074D6B5CC568B5FBF3F5056130BD1C
:100D10000010024000127A0000093D00000000208F
:100D20001000002010B5002400F02AF800F030F880
:100D3000082000F097F800F01BF8082000F092F867
:100D400001E0601C84B202210848FFF78BFE08B165
:100D5000642CF6DB642C01D1002010BD00F010F8EB
:100D6000082000F07FF80120F7E70000000C0140A8
:100D700010B501210148FFF780FE10BD000C0140B5
:100D800010B501210148FFF776FE10BD000C0140AF
:100D900008B504208DF803000220ADF80000032000
:100DA0008DF8020069460248FFF7D1FD08BD00003A
:100DB000000C014008B514208DF803000220ADF8A6
:100DC000000003208DF8020069460448FFF7BFFDCC
:100DD00002210248FFF751FE08BD0000000C01404F
:100DE00008B514208DF803000220ADF800000320A0
:100DF0008DF8020069460448FFF7A9FD0221024868
:100E0000FFF739FE08BD0000000C014010B5FFF7E8
:100E1000B7FFFFF7E5FF082000F024F8FFF7A8FF71
:100E2000082000F01FF8FFF7ABFFFFF7C3FFFFF745
:100E3000AFFF082000F016F810BD10B5FFF7A0FFB7
:100E4000FFF7B8FF082000F00DF8FFF791FF08202A
:100E500000F008F8FFF794FFFFF7ACFF082000F060
:100E600001F810BD10B50446A41E03E00120FFF7F1
:100E700062FD641E002CF9D110BD10B500F002F81F
:100E800010BD00000CB500200190009033480068B0
:100E900040F480303149086000BF3048006800F4F9
:100EA000003000900198401C0190009818B90198FA
:100EB000B0F5A06FF1D12948006800F4003010B1FE
:100EC0000120009001E0002000900098012843D10B
:100ED0002348006840F01000214908600846006877
:100EE00020F0030008600846006840F00200086037
:100EF0001A484068194948600846406848600846F2
:100F0000406840F4806048600846406820F47C10E7
:100F100048600846406840F4E810486008460068A9
:100F200040F08070086000BF0C48006800F000705E
:100F30000028F9D00948406820F0030007494860BC
:100F40000846406840F00200486000BF034840681F
:100F500000F00C000828F9D10CBD00000010024080
:100F60000020024010B5FFF73BFFFFF701FF08200C
:100F7000FFF778FFFFF71EFF0820FFF773FF10BD94
:100F800010B51348006840F0010011490860084698
:100F90004068104908400E494860084600680E49FC
:100FA00008400B4908600846006820F4802008606B
:100FB0000846406820F4FE0048604FF41F00886037
:100FC000FFF75BFF4FF000600449086010BD0000B0
:100FD000001002400000FFF8FFFFF6FE08ED00E001
:100FE00021B1828942F40052828104E082894DF667
:100FF000FF731A408281704702460020B1F5007FDE
:1010000000D100BF13880B400BB1012000E000208D
:101010007047F0B50346002400260025002040F666
:101020006A17B94200D100BF1846C1F3421401F05B
:101030001F06012707FA06F5012C01D10C3004E048
:10104000022C01D1103000E014301AB107682F4390
:10105000076002E00768AF430760F0BD2DE9F04785
:1010600086B005460E460024A24600BFA1460027D2
:10107000B08900B100BF2F462C8A4CF6FF700440A7
:10108000F08804432C82AC894EF6F3100440B088FB
:1010900031890843718908430443AC81AC8A4FF617
:1010A000FF400440B0890443AC8201A8FFF7D0FDA3
:1010B0001F48874202D1DDF810A001E0DDF80CA046
:1010C000A88900F4004040B10AEBCA0000EB0A1006
:1010D00031684900B0FBF1F807E00AEBCA0000EB09
:1010E0000A1031688900B0FBF1F86420B8FBF0F019
:1010F00004012009642101FB1089A88900F4004043
:1011000040B1322000EBC900B0FBF1F000F0070065
:10111000044308E0322000EB09106421B0FBF1F039
:1011200000F00F0004432C8106B0BDE8F0870000FA
:1011300000380140C1F308028280704700B585B0D5
:1011400001210420FFF774FD01218803FFF770FDE2
:101150004FF48060ADF8100004208DF8130004A94E
:101160001948FFF7F4FB4FF40070ADF81000182099
:101170008DF8130003208DF8120004A91248FFF720
:10118000E6FB0020ADF80400ADF806004FF4E130B6
:1011900000900020ADF80800ADF80C000C20ADF870
:1011A0000A0069460948FFF759FF01210748FFF780
:1011B00017FFFFF7F5FC012240F225510348FFF726
:1011C00028FF05B000BD00000008014000380140C4
:1011D00070B504460D4629462046FFF7ABFF00BF19
:1011E00080212046FFF708FF0028F9D070BD0000DD
:1011F0002DE9F04F87B0834614461D462046294608
:1012000000F088F90746FFF733F906461098FFF714
:1012100022F907463A460B460020154900F05AFAD3
:10122000CDE902013046FFF705F9074622462B4675
:10123000FFF71CF8CDE90001DDE90223FFF719F8FB
:10124000CDE9040100F066F98146FFF711F9069037
:101250003146584600F00EF82E215846FFF7B8FFE9
:101260005846069900F006F807B0BDE8F08F000078
:101270000000244070B505460C46002C04DB2146D6
:10128000284600F01FF815E0E0174FF0004284EA0E
:10129000020171EA000104D107A1284600F085F897
:1012A00008E064422D212846FFF792FF2146284698
:1012B00000F008F870BD00002D3231343734383377
:1012C00036343800FEB507460D4625B9302138467C
:1012D000FFF77EFFFEBD00208DF80A00002458E0D5
:1012E0000A21B5FBF1F201FB125028B93021C4F1FB
:1012F00009020DF8021046E0012805D13121C4F1A0
:1013000009020DF802103EE0022805D13221C4F195
:1013100009020DF8021036E0032805D13321C4F18B
:1013200009020DF802102EE0042805D13421C4F181
:1013300009020DF8021026E0052805D13521C4F177
:1013400009020DF802101EE0062805D13621C4F16D
:1013500009020DF8021016E0072805D13721C4F163
:1013600009020DF802100EE0082805D13821C4F159
:1013700009020DF8021006E0092804D13921C4F150
:1013800009020DF80210611CCCB20A21B5FBF1F57F
:1013900000BF002DA4D1C4F10A00C6B20DEB0601B6
:1013A000384600F002F800BF94E770B506460C46D8
:1013B000002500BF615D3046FFF70AFF6D1C605DD0
:1013C0000028F7D100BF80213046FFF715FE002826
:1013D000F9D070BD490050EAC12018BF04204A0D61
:1013E00018BF40F0010040F2FF72B2EB515F08BF3E
:1013F00040F00200012808BF052070472DE9F041A8
:101400004F1E00EBC7010446D1E9000115461E46F8
:1014100037F006020DD02A463346FEF72AFF7F1E1C
:1014200004EBC703D3E90023FEF77CFE37F0060286
:10143000F1D1022F25D0042F13D0062F18BFBDE8FD
:10144000F0812A463346FEF714FFD4E90A23FEF75B
:1014500069FE2A463346FEF70CFFD4E90823FEF75F
:1014600061FE2A463346FEF704FFD4E90623FEF761
:1014700059FE2A463346FEF7FCFED4E90423FEF764
:1014800051FE2A463346FEF7F4FED4E90223FEF766
:1014900049FE2A463346FEF7ECFED4E90023BDE8B8
:1014A000F041FEF73FBE00000022134610460149FE
:1014B000FEF751BF0000F03FFEF734BE0022134696
:1014C00010461146FEF747BF40F2013200204FF0B0
:1014D000E041FFF77AB80000024A00201107FFF749
:1014E00074B8000001FDFFFF02E008C8121F08C128
:1014F000002AFAD170477047002001E001C1121F95
:10150000002AFBD1704700000149086070470000C5
:10151000140000202DE9F041C1F30A52A2F2FF3677
:101520002F4A304B0D460446142E2FDA002E12DAC5
:10153000FEF7F8FD00221346FFF75EF84CD2002DAF
:10154000A4BF0024254647DA25F00040204318BFF9
:10155000254D41D018E0DFF894C02CFA06F705EAD3
:10156000070C5CEA040C08BFBDE8F081FEF7DAFD69
:1015700000221346FFF740F82ED2002D03DA4FF475
:101580008010F0400544BD43002425E0332EC8BF41
:10159000BDE8F081A6F1140C4FF0FF3727FA0CF7E5
:1015A0003C4208BFBDE8F081FEF760FE0022134612
:1015B000FFF722F810D2002D0DDA142E08BF6D1C93
:1015C00009D0C6F13400012101FA00F02044A04204
:1015D00038BF6D1C0446BC4329462046BDE8F08157
:1015E0009C7500883CE4377E0000F0BFFFFF0F00D1
:1015F00086B0FFF757FA4FF4FA70FFF771F9FFF76B
:101600009DFDFFF70EF900F01800182804D0FFF731
:1016100033F90A20FFF764F94CE004A8FFF798F8C3
:101620004FF47A7104984843000D0390C82105983F
:10163000484300EB8000C0F355204FF4FA71C1EB32
:10164000902002901CA11E48FFF7AFFE0298FEF703
:10165000F1FE064600221B4BFEF77DFE04460120EC
:1016600022460B4600901648FFF7C2FD16A114480B
:10167000FFF79BFE15A11248FFF797FE0398FEF7B0
:10168000D9FE064600220F4BFEF765FE04460120F8
:1016900022460B4600900A48FFF7AAFD0AA1084817
:1016A000FFF783FE08A10648FFF77FFE40F2DC50FB
:1016B000FFF716F9B1E70000CEC2B6C8A3BA000022
:1016C0000038014000002440090A0000CAAAB6C838
:1016D000A3BA00002DE9F04D1D460C4698B0174600
:1016E00021F0004123F00043002814BF4FF0010C0B
:1016F0004FF0000C0CEB440CFE4A0CEB02064FEAD8
:10170000620C66452BD33E0018BF012606EB45064A
:101710001644F94A964222D3F84A53EA070C02D0FB
:10172000944205D148B918B000201146BDE8F08DAB
:10173000002808BF4FF0000C01D04FF0010C0CEB5B
:10174000440212F5001F0AD8002F14BF4FF0010CFD
:101750004FF0000C0CEB450212F5001F07D918B032
:101760003A462B462146BDE8F04DFFF7A5BE0022C4
:10177000DFF88CA3002CB8BF534526DADFF884C30A
:101780006345A8BF022220DADFF870C39C451CDC49
:10179000DFF874C30CEB235CBCF1140F08DDCCF153
:1017A000340627FA06FC0CFA06F6BE420DD108E014
:1017B0005FB9CCF1140623FA06FC0CFA06F69E4239
:1017C00003D10CF00102C2F1020251EA000C19D15E
:1017D000002D17DA002C18BF022A01D0012A07D0E9
:1017E0000220FFF791FE18B0BDE8F04DFFF75CBE98
:1017F0000220FFF789FEFFF757FE18B081F0004185
:10180000BDE8F08DB7F1000C6CD1534525D104F142
:10181000804212F5801201BF00280020B74918B09D
:1018200008BFBDE8F08DB548884207DC002DA1BF98
:101830006046294618B0BDE8F08D07E0281E05DA9D
:1018400080F0004118B06046BDE8F08DAF497944A2
:10185000D1E9000118B0BDE8F08DDFF8A0C2634502
:1018600025D1002D1FDA19B1514512D1D8B909E09F
:10187000002840F0EC82A24A214618B062F31E0113
:10188000BDE8F08D0020214618B060F31E01BDE8D0
:10189000F08D08DA18B02346BDE8F04D024600206E
:1018A0006146FEF758BD18B02146BDE8F08D5145A0
:1018B00018DAB5F1804F0DD0A5F1005CBCF1FF5CEA
:1018C00010D1B4F1000C0DDB18B06146BDE8F04D4D
:1018D00000F0ECBB234618B00246BDE8F04D1946B7
:1018E000FEF7C7BC060024F0004C3BD1D9B15145EE
:1018F00033D1002C06DD002DA1BF0020514618B0C9
:10190000BDE8F08D002C01DD002D1BDB002C13DA6F
:10191000002D11DB012A4FF0000014BF78497C49EB
:1019200018B0BDE8F08D022A18BF002C0AD0012A99
:1019300008D1002C06DA0AE0002CB8BF002D11DA1D
:10194000012A04D0002018B00146BDE8F08D18B07F
:1019500000204FF00041BDE8F08DA1F14050B0F102
:101960007F601AD0012000EBE47050EA020421D01D
:10197000624C521E4FF0000B104304BF4FF0000B9F
:10198000644C654883427CDD644A654893421FDDB0
:10199000884217DB002D25DB37E0002C00DA4AB146
:1019A000022A0CBF01204FF0FF3018B0BDE8F04D07
:1019B000FEF740BD0120FFF7A7FD18B0BDE8F04DD0
:1019C000FFF77CBD4D4A8A4202DC002D0ADC1CE098
:1019D000814202DA002D18DA04E0484B994220DDFA
:1019E000002D12DD0220FFF78FFDFFF76DFD05468C
:1019F0000E460022534658462146FEF73AFC18B0E0
:101A000066F31E012846BDE8F08D0220FFF77CFD3D
:101A1000FFF762FD0A46214618B062F31E01BDE8D9
:101A2000F08D002230466146FEF71DFC80460E46D2
:101A30006FF00102FEF7C9FD4FF05532394BFEF74A
:101A400015FC42463346FEF714FC0022364BFEF7E7
:101A50000DFC824642463346049110461946FEF775
:101A600008FC5246049BFEF704FC8A4600904FF0A7
:101A7000C0422E4B40463146FEF7FBFB2C4A2B4B17
:101A800000E027E0CDE9060151460098FEF7F1FBA2
:101A900082460191274A284B40463146FEF7E9FB32
:101AA0005246019BFEF7DFFB82460B46024605913C
:101AB000DDE90601FEF736FBDDE906230026884650
:101AC0003046FEF7D0FB5246059BFEF7CFFB0246A1
:101AD00000F07EB90020B1F5801F07DA35223046CC
:101AE0006146FEF772FD06466FF0340000EB2150B0
:101AF00024E00000FFFF1F00FFFF0F000000F03F89
:101B00000000F07F0000404301FCFFFF2E090000B1
:101B10000000F0FF0000F0BF0000E0410000F043D3
:101B2000FFFFEF3F5555D53F0000E03F4715F73F1A
:101B3000FE822B6544DF5DF80BAE543EA0F2FF3011
:101B40000190C1F3130040F07F6141F040510291D8
:101B5000FE498842D8BF002004DDFD498142C8BF4C
:101B6000012001DD0D9008E000200D900198401C3F
:101B700001900298A0F5801002900299F5487844EF
:101B80000B910D9900EBC100D0E900230F93304673
:101B90000A920B99FEF767FBCDE90601DDE90A2100
:101BA00030460F9BFEF7BEFA02460B460020EA497C
:101BB000FEF7D1FB059102460B460090DDE90601D8
:101BC000FEF757FB1490E5488A464FF0000878442A
:101BD0000299006812904FF0005040EA61010D98A0
:101BE0000F9B01EB804000F5002109910A9A1298A1
:101BF000FEF739FB32460B9BFEF738FB4246534655
:101C0000FEF737FB0646029140465146099B129A61
:101C1000FEF72FFBDDE90623FEF728FB3246029B89
:101C2000FEF721FB059B009AFEF723FB0091149A17
:101C30000490534610461946FEF71BFB0646024623
:101C4000C7480B46029106217844FFF7D7FBCDE940
:101C50000510029B324610461946FEF70AFBDDE9E5
:101C60000532FEF706FB05910646534640461946E7
:101C7000149AFEF757FA009B049AFEF7FAFA3246D6
:101C8000059BFEF74FFACDE9051042465346104634
:101C90001946FEF7EEFA0022B24B02910A90FEF7C7
:101CA00041FADDE90532FEF73DFA0E464246AD4BFC
:101CB0004046FEF7D8FA029B0A9AFEF7D4FADDE90D
:101CC0000532FEF7D3FA424602910A903346104697
:101CD0005146FEF7CEFACDE906015346149A029911
:101CE0000A98FEF7C6FA8A460290334642460099A1
:101CF0000498FEF7BEFA5346029AFEF713FA82469C
:101D00000B4602460591DDE90601FEF70BFADDE917
:101D10000623002088460646FEF7A5FA5246059B94
:101D2000FEF7A4FA824609914FF060428E4B30468E
:101D30004146FEF79EFA049006918C4A8A4B504623
:101D40000999FEF796FA82460291894A894B3046F4
:101D50004146FEF78EFA5246029BFEF7E3F9864BA8
:101D60007B440D9A03EBC203D3E90023FEF7DAF9B3
:101D70000E9007910198FEF75DFB0591DDE90613D2
:101D800082460E9A0498FEF7CDF97C4A7A440D9B60
:101D900002EBC303D3E9002300930292FEF7C2F9DA
:101DA0005246059BFEF7BEF900268846524630464D
:101DB000059BFEF758FA009B029AFEF754FA069B21
:101DC000049AFEF750FA079B0E9AFEF74FFA024666
:101DD00000200B46029038462946FEF74AFA824612
:101DE00001912B4638461946029AFEF73CFA3246D4
:101DF0004346FEF73EFA5246019BFEF793F907462B
:101E00008A463246434629460298FEF732FA05468C
:101E10000E463A465346FEF785F9594A884691429E
:101E200021DBA8EB020353EA000210D12A46334615
:101E3000FEF719FACDE90401524A534B3846514690
:101E4000FEF770F9DDE90423FEF7D6FB21D202206C
:101E5000FFF75AFBFFF738FB0A46214618B062F33A
:101E60001E01BDE8F08D494B28F000429A4210D384
:101E7000474A08EB020353EA00027FF4C6AD2A4644
:101E80003346FEF7F0F93A465346FEF7B5FB7FF6C8
:101E9000BCAD0022019228F000403E493E4A01EBD1
:101EA0002051824223DA481C4FF4801121FA00F0BD
:101EB00040443A4AC0F30A517A44394BA1F2FF3107
:101EC000CB4020EA0303C0F3130040F48010C1F1BB
:101ED0001401C84012680190B8F1000FBCBF404225
:101EE000019028463146FEF7BEF905460E462A46C1
:101EF000334638465146FEF715F94FF00008424682
:101F0000284B40460591FEF7B4F9CDE90601264A73
:101F1000264B40460599FEF7ACF9009102902A46FF
:101F2000334640460599FEF79EF93A465346FEF77A
:101F30009DF91F4A1F4BFEF79CF9009B029AFEF782
:101F4000F1F80746884602460B4635E08E980300B6
:101F50007AB60B00760500000000F03FAE050000E9
:101F6000DC0400000000084009C7EE3FFD033ADC36
:101F7000F5015B14E02F3EBEB403000078030000BF
:101F800000009040FE822B654715973C00CC9040A6
:101F900000346F3F01FCFFFF0000E03FC40200007F
:101FA000FFFF0F00432EE63F396CA80C615C20BE9A
:101FB000EF39FAFE422EE63FDDE90601FEF7B2F800
:101FC000DDE9062305460E46FEF74DF93A4643463F
:101FD000FEF74CF90F462A46334600901046194644
:101FE000FEF747F9824602462E4888460B460521F1
:101FF0007844FFF703FA52464346FEF73AF92A4679
:102000003346FEF733F980468A463B46284631463A
:10201000009AFEF72EF93B46009AFEF783F80691E8
:10202000009000224FF0804340465146FEF71BF9D6
:102030000F460C904246534628463146FEF719F9A2
:102040003B460C9AFEF787F9069B009AFEF70BF9C0
:102050002A463346FEF707F90022134BFEF706F92E
:10206000054601980E4601EB00510815002810DCCA
:1020700028463146019AFEF7A8FAFFF7ABF9042883
:1020800008BFFFF729FA28463146019AFEF79DFA64
:1020900005460B4618B02A4658462146BDE8F04D85
:1020A000FEF7E7B8640100000000F03F2DE9F041C1
:1020B00006460F46FEF7CAFA041E0D4618BF012059
:1020C000284320F00040C0F17F6000F1E040C00FE5
:1020D0000ED0301C18BF0120384320F00040C0F162
:1020E0007F6000F1E040C00F04BF0120FFF70CFA51
:1020F00020462946BDE8F081000000000000F03FC6
:10210000000000000000F83F000000000000000098
:102110000000004003B8E23F0000000000000000A3
:1021200006D0CF43EBFD4C3E033333333333E33F31
:10213000FFAB6FDBB66DDB3F4D268F515555D53F5D
:1021400001411DA96074D13F65DBC9934A86CD3F2B
:10215000EF4E454A287ECA3F3E5555555555C53F19
:1021600093BDBE166CC166BF2CDE25AF6A56113F0B
:10217000F16BD2C541BDBBBED0A4BE726937663E0D
:102180000000000000000000A8210008000000205E
:1021900018000000E8140008C02100081800002002
:1021A00000040000F814000800000000010203040D
:1021B00001020304060708090204060800000000E3
:04000005080000ED02
:00000001FF
