:020000040800F2
:100000001808002001010008090100080B01000880
:100010000D0100080F010008110100080000000098
:1000200000000000000000000000000013010008B4
:100030001501000800000000170100081901000860
:100040001B0100081B0100081B0100081B01000820
:100050001B0100081B0100081B0100081B01000810
:100060001B0100081B0100081B0100081B01000800
:100070001B0100081B0100081B0100081B010008F0
:100080001B0100081B0100081B0100081B010008E0
:100090001B0100081B0100081B0100081B010008D0
:1000A0001B0100081B0100081B0100081B010008C0
:1000B0001B0100081B0100081B0100081B010008B0
:1000C0001B0100081B0100081B0100081B010008A0
:1000D0001B0100081B0100081B0100081B01000890
:1000E0001B0100081B0100081B010008DFF80CD0F1
:1000F00000F02AF800480047F90B00081808002013
:100100000648804706480047FEE7FEE7FEE7FEE7B1
:10011000FEE7FEE7FEE7FEE7FEE7FEE7E90A000886
:10012000ED000008D2B201E000F8012B491EFBD21D
:1001300070470022F6E710B513460A4604461946F2
:10014000FFF7F0FF204610BD064C074D06E0E068C3
:1001500040F0010394E8070098471034AC42F6D30E
:10016000FFF7C8FF341E0008541E00082DE9F041B7
:10017000024600250026002000230024002791F8D5
:1001800003C00CF00F0591F803C00CF0100CBCF18B
:10019000000F03D091F802C04CEA050591F800C0A9
:1001A000BCF1000F31D0146800202BE04FF0010C9F
:1001B0000CFA00F3B1F800C00CEA03069E4220D10D
:1001C00083004FF00F0C0CFA03F7BC4305FA03FC55
:1001D0004CEA040491F803C0BCF1280F06D14FF09B
:1001E000010C0CFA00FCC2F814C00AE091F803C03C
:1001F000BCF1480F05D14FF0010C0CFA00FCC2F81D
:1002000010C0401C0828D1D31460B1F800C0BCF164
:10021000FF0F34DD546800202EE000F1080C4FF091
:10022000010808FA0CF3B1F800C00CEA03069E427C
:1002300021D183004FF00F0C0CFA03F7BC4305FAF1
:1002400003FC4CEA040491F803C0BCF1280F05D16B
:1002500000F1080C08FA0CF8C2F8148091F803C0F9
:10026000BCF1480F07D100F1080C4FF0010808FA63
:100270000CF8C2F81080401C0828CED35460BDE8AA
:10028000F08141617047016170472DE9F0410646F8
:100290000F4614461D46DDF8188026E0102C06D1C6
:1002A00043462A463946304600F024F813E0182C1D
:1002B00006D143462A463946304600F093F80AE014
:1002C000202C06D143462A463946304600F00CF928
:1002D00001E0BDE8F0813019C6B2C4F18000B0423F
:1002E00002DA00263819C7B2AD1C28780028D5D10B
:1002F00000BFEEE72DE9FF4F83B080468946924666
:100300001E200190002562E005EB0510344911F82C
:1003100010009AF80010884257D105EB05103049BB
:1003200001EB400040789AF8011088424DD100243A
:1003300048E0069840B105EB0510294901EB400063
:10034000801C005D029009E005EB0510244901EBDB
:100350004000801C005DC043C0B2029000262DE02A
:10036000802030410299084098B1274604EBD772AB
:1003700009EB6202D1B2A34604EBDB725210A4EB8C
:10038000420208EBC2023244D0B2012200F016FA57
:1003900012E0274604EBD77209EB6202D1B2A34602
:1003A00004EBDB725210A4EB420208EBC2023244AF
:1003B000D0B2002200F002FA701CC6B2082ECFDBC9
:1003C000601CC4B2202CB4DB04E0681CC5B20198E8
:1003D000854299DB00BF00F027F907B0BDE8F08F38
:1003E000701500082DE9FE4F0746884691469B464A
:1003F0000620029000256DE005EB850000EB45101E
:10040000384911F8100099F80010884260D105EBC6
:10041000850000EB4510334901EB4000407899F826
:100420000110884254D100244FE0BBF1000F0AD0E4
:1004300005EB850000EB45102A4901EB4000801CCC
:1004400010F804A00BE005EB850000EB45102549F2
:1004500001EB4000801C005DC04300F0FF0A002655
:100460002FE08020304100EA0A00A0B1032094FB75
:10047000F0F04044C0B20190032094FBF0F100FB87
:10048000114007EBC0003044C0B201220090019936
:1004900000F094F913E0032094FBF0F04044C0B264
:1004A0000190032094FBF0F100FB114007EBC0002A
:1004B0003044C0B200220090019900F07FF9701C16
:1004C000C6B2082ECDDB601CC4B2482CADDB04E004
:1004D000681CC5B2029885428EDB00BF00F0A4F80C
:1004E000BDE8FE8F6C1900082DE9FF4F83B08046F0
:1004F0008946924606200190002566E005EB8510AE
:10050000364911F810009AF8001088425BD105EBCB
:100510008510324901EB400040789AF8011088427A
:1005200051D100244CE0069840B105EB85102B49D1
:1005300001EB4000801C005D029009E005EB851096
:10054000264901EB4000801C005DC043C0B2029010
:10055000002731E08020384102990840A8B12646A2
:10056000E21704EB927209EBA202D1B2A346E217A2
:1005700004EB92729210A4EB820208EBC2023A449E
:10058000D0B2012200F01AF914E02646E21704EB7B
:10059000927209EBA202D1B2A346E21704EB927267
:1005A0009210A4EB820208EBC2023A44D0B20022BD
:1005B00000F004F9781CC7B2082FCBDB601CC4B272
:1005C000802CB0DB04E0681CC5B20198854295DB45
:1005D00000BF00F029F807B0BDE8F08F281B000825
:1005E00010B54FF4A06000F001F810BD02490143BE
:1005F000024A1160704700000000FA050CED00E0AF
:1006000010B5044634B1FF224FF480610548FFF76E
:1006100089FD04E04FF480610248FFF78AFD00F095
:1006200003F810BD1800002070B500241BE004F191
:10063000B000002100F002F90021084600F0FEF8A9
:100640000021102000F0FAF8002508E005EBC411A5
:10065000064A505C012100F0F1F8681CC5B2802DFB
:10066000F4DB601CC4B2082CE1DB70BD1800002074
:1006700010B500F025F900F06BF8C82000F096FAEC
:1006800000F082F80021AE2000F0D8F800210846E2
:1006900000F0D4F80021102000F0D0F80021402014
:1006A00000F0CCF80021B02000F0C8F80021812033
:1006B00000F0C4F80021FF2000F0C0F80021A120C4
:1006C00000F0BCF80021A62000F0B8F80021A82016
:1006D00000F0B4F800213F2000F0B0F80021C8205D
:1006E00000F0ACF80021D32000F0A8F80021084663
:1006F00000F0A4F80021D52000F0A0F8002180200F
:1007000000F09CF80021D92000F098F80021F12099
:1007100000F094F80021DA2000F090F80021122077
:1007200000F08CF80021DB2000F088F80021302058
:1007300000F084F800218D2000F080F800211420C2
:1007400000F07CF80021AF2000F078F810BD000028
:1007500008B50121082000F0A3F84FF4E050ADF8EF
:10076000000010208DF8030003208DF80200694678
:100770000448FFF7FBFC4FF4E0510248FFF783FD0C
:1007800008BD0000000C014010B54FF480510A482C
:10079000FFF779FD642000F009FA4FF48051064814
:1007A000FFF76FFD642000F001FA4FF4805102481A
:1007B000FFF769FD10BD0000000C0140F0B50346D5
:1007C0001446E4B1CD1701EB5575ED1003EBC515DB
:1007D000194E755D0A46CE1701EB5676F610A1EB61
:1007E000C6070126BE40F6B235430846CE1701EBD8
:1007F0005676F61003EBC6160F4FBD551AE0CD170F
:1008000001EB5575ED1003EBC5150B4E755D0A46F2
:10081000CE1701EB5676F610A1EBC6070126BE40B7
:10082000B5430846CE1701EB5676F61003EBC61615
:10083000014FBD55F0BD00001800002070B5044602
:100840000D462DB14FF480610B48FFF71CFD04E00D
:100850004FF480610848FFF714FD4FF4006106482B
:10086000FFF70FFDE1B2054800F0A4F84FF4006176
:100870000148FFF708FD70BD000C01400038004042
:1008800029B1064AD2690243044BDA6104E0034A03
:10089000D2698243014BDA617047000000100240C8
:1008A00029B1064A92690243044B9A6104E0034A63
:1008B00092698243014B9A61704700000010024028
:1008C00000B587B001210920FFF7EAFF4FF420406F
:1008D000ADF8040003208DF8060018208DF80700FD
:1008E00001A91D48FFF742FC4FF48040ADF8040019
:1008F00048208DF8070003208DF8060001A916484E
:10090000FFF734FC01218803FFF7BAFF0020ADF8A0
:1009100008004FF48270ADF80A000020ADF80C001A
:100920000220ADF80E000120ADF810004002ADF835
:1009300012000020ADF81400ADF816000720ADF845
:10094000180002A9054800F017F80121034800F03B
:1009500007F807B000BD0000000C0140003800405F
:1009600021B1028842F04002028004E002884FF682
:10097000BF731A400280704710B50022028802F44B
:1009800041520B884C8823438C882343CC882343D3
:100990000C8923434C8923438C892343CC892343EB
:1009A0001A430280838B4FF2FF74234083830B8AA8
:1009B000038210BD024600BF108900F0020000282B
:1009C000FAD0918100BF108900F001000028FAD010
:1009D0009089C0B2704710B500F002F810BD000059
:1009E0000CB50020019000903348006840F480303E
:1009F0003149086000BF3048006800F400300090C2
:100A00000198401C0190009818B90198B0F5A06FAA
:100A1000F1D12948006800F4003010B101200090A5
:100A200001E0002000900098012843D1234800688D
:100A300040F01000214908600846006820F00300DB
:100A400008600846006840F0020008601A484068E4
:100A5000194948600846406848600846406840F4C4
:100A6000806048600846406820F47C104860084672
:100A7000406840F4E81048600846006840F0807024
:100A8000086000BF0C48006800F000700028F9D032
:100A90000948406820F0030007494860084640685C
:100AA00040F00200486000BF0348406800F00C00BE
:100AB0000828F9D10CBD00000010024000200240BF
:100AC000042808D14FF0E021096941F004014FF0FA
:100AD000E022116107E04FF0E021096921F00401F3
:100AE0004FF0E0221161704710B51348006840F0E4
:100AF00001001149086008464068104908400E4945
:100B00004860084600680E4908400B4908600846DE
:100B1000006820F4802008600846406820F4FE0049
:100B200048604FF41F008860FFF755FF4FF00060EA
:100B30000449086010BD0000001002400000FFF8EA
:100B4000FFFFF6FE08ED00E002E008C8121F08C132
:100B5000002AFAD170477047002001E001C1121F3E
:100B6000002AFBD17047000010B56FF00400FFF7BA
:100B7000A7FF0A4800680A49B0FBF1F0094908706C
:100B80000846007800EB4001C1EBC0104FF6FF7142
:100B900001EAC0000449088010BD000004000020E4
:100BA00000127A0000000020020000200146114AD5
:100BB00012884A434FF0E0235A6100229A611A4694
:100BC000126942F001021A6100BF4FF0E022106981
:100BD00000F001021AB100F48032002AF5D04FF083
:100BE000E022126922F001024FF0E0231A61002294
:100BF0009A6170470200002008B5FFF7B5FFFFF7C4
:100C0000EFFCFFF735FD0020FFF7FAFC00212E2056
:100C1000FFF714FE00212620FFF710FE00210846F2
:100C2000FFF70CFE00210846FFF708FE0021072011
:100C3000FFF704FE00210720FFF700FE0021084611
:100C4000FFF7FCFD0021FF20FFF7F8FD012008A3BE
:100C50001022142100900020FFF717FB00212F2005
:100C6000FFF7ECFD03E040F2DC50FFF79FFFFAE7EF
:100C7000B9C5BDF1B6E0C9D9CAC2A3ACB6BCB8B655
:100C8000D0A6CCB8D6D000000000000000000000C4
:100C9000101010100010000028282800000000008C
:100CA00028287C287C282800103C50381478100014
:100CB000004C2C100860600030485020544834002C
:100CC0003010200000000000081020202010080034
:100CD000201008080810200000105438541000009C
:100CE0000010107C10100000000000000018081018
:100CF000000000007C000000000000000030300018
:100D0000000408102040000038444C54644438006B
:100D100010301010101038003844040810207C00E7
:100D20007C08100804443800081828487C0808008B
:100D30007C4078040444380018204078444438004B
:100D40007C040810202020003844443844443800F3
:100D50003844443C0408300000303000303000009B
:100D60000030300030102000081020402010080013
:100D700000007C007C000000201008040810200007
:100D80003844040810001000384404345C4438002F
:100D9000102844447C444400784444784444780017
:100DA000384440404044380070484444444870004F
:100DB0007C40407840407C007C404078404040008F
:100DC0003844405C44443C004444447C4444440033
:100DD00038101010101038001C080808084830009F
:100DE00044485060504844004040404040407C00EF
:100DF000446C545444444400444464544C444400BB
:100E000038444444444438007844447840404000E6
:100E100038444444544834007844447850484400AA
:100E20003C404038040478007C1010101010100072
:100E30004444444444443800444444444428100056
:100E40004444445454542800444428102844440042
:100E500044444428101010007C04081020407C00FA
:100E600038202020202038000040201008040000F6
:100E7000380808080808380010284400000000005E
:100E80000000000000007C002010080000000000AE
:100E9000000038043C443C0040405864444478001E
:100EA00000003840404438000404344C44443C00C2
:100EB000000038447C403800382420702020200076
:100EC00000003C44443C04384040586444444400DE
:100ED00010003010101038000800180808084830BA
:100EE000404048506050480030101010101038003A
:100EF00000006854544444000000586444444400D2
:100F000000003844444438000000586464584040AD
:100F10000000344C4C34040400005864404040004D
:100F200000003C4038047800202070202024180065
:100F300000004444444C3400000044444428100061
:100F40000000444454542800000044281028440061
:100F500000004444443C043800007C0810207C001D
:100F60001020204020201000001010101010100041
:100F7000201010081010200000000020540800006D
:100F80000000000000000000000000000000000061
:100F90000000001818181818181800001818000079
:100FA000001236244800000000000000000000008D
:100FB000000000242424FE484848FE484848000019
:100FC00000001038545450301C141454543810106D
:100FD00000000044A4A8A8A8541A2A2A2A44000001
:100FE00000000030484848506EA49488897600007C
:100FF00000606020C0000000000000000000000051
:101000000002040808101010101010080804020054
:1010100000402010100808080808081010204000A0
:10102000000000001010D63838D610100000000064
:101030000000000010101010FE1010101000000032
:10104000000000000000000000000000606020C000
:1010500000000000000000007F0000000000000011
:1010600000000000000000000000000060600000C0
:101070000000010202040408081010202040400073
:10108000000000182442424242424242241800001A
:10109000000000107010101010101010107C0000D4
:1010A0000000003C4242420404081020427E00003E
:1010B0000000003C4242041804020242443800008E
:1010C000000000040C14242444447E04041E000088
:1010D0000000007E40404058640202424438000054
:1010E0000000001C24404058644242422418000082
:1010F0000000007E4244080810101010101000007C
:101100000000003C4242422418244242423C00007B
:101110000000001824424242261A0202243800002D
:10112000000000000000181800000000181800005F
:101130000000000000001818000000181808300017
:1011400000000002040810204020100804020000E3
:10115000000000000000FE000000FE000000000093
:101160000000004020100804020408102040000085
:101170000000003C42426202040808001818000007
:1011800000000038445AAAAAAAAAB442443800006F
:101190000000001010182828243C444242E70000B8
:1011A000000000F8444444784442424244F80000BD
:1011B0000000003E4242808080808042443800002F
:1011C000000000F8444242424242424244F80000D9
:1011D000000000FE424848784848404242FE000075
:1011E000000000FE424848784848404040E0000087
:1011F0000000003C44448080808E844444380000D9
:10120000000000E7424242427E42424242E7000082
:101210000000007C1010101010101010107C000046
:101220000000003E0808080808080808080888F0B8
:10123000000000EE444850705048484444EE00001E
:10124000000000E0404040404040404042FE00007E
:10125000000000EE6C6C6C6C5454545454D6000076
:10126000000000C7626252524A4A4A4646E2000003
:1012700000000038448282828282828244380000E8
:10128000000000FC424242427C40404040E00000FE
:1012900000000038448282828282B2CA4C38060042
:1012A000000000F8444444784848444442E30000C5
:1012B0000000003E4242402018040242427C0000EE
:1012C000000000FE921010101010101010380000D6
:1012D000000000E74242424242424242423C000099
:1012E000000000E74242442424282818101000007F
:1012F000000000D692929292AAAA6C444444000044
:10130000000000E7422424181818242442E70000B3
:10131000000000EE4444282810101010103800007F
:101320000000007E840408081020204242FC0000D7
:10133000001E1010101010101010101010101E00B1
:1013400000004040202010100804040202020101A5
:10135000007808080808080808080808080878003D
:10136000000814220000000000000000000000003F
:10137000000000000000000000000000000000FF6E
:1013800000601000000000000000000000000000ED
:10139000000000000000003C421E2242423F0000CC
:1013A000000000C04040405864424242645800007F
:1013B000000000000000001C22404040221C0000F1
:1013C000000000060202021E22424242261B0000CA
:1013D000000000000000003C427E4040423C000013
:1013E0000000000F1110107E10101010107C000073
:1013F000000000000000003E444438403C42423CB3
:10140000000000C04040405C6242424242E70000AF
:10141000000000303000007010101010107C000030
:101420000000000C0C00001C0404040404044478B4
:10143000000000C04040404E4850684844EE000064
:10144000000000701010101010101010107C000020
:1014500000000000000000F64949494949ED00003C
:1014600000000000000000DC6242424242E700004F
:10147000000000000000003C42424242423C0000AA
:1014800000000000000000D864424242645840E07E
:10149000000000000000001E22424242261A0207FD
:1014A00000000000000000EE3220202020F80000A4
:1014B000000000000000003E42403C02427C000070
:1014C000000000000010107C10101010100C000024
:1014D00000000000000000C642424242463B0000BD
:1014E00000000000000000E7422424281010000043
:1014F00000000000000000D79292AAAA4444000015
:10150000000000000000006E241818182476000067
:1015100000000000000000E742242428181010E01A
:10152000000000000000007E44081010227E000031
:101530000003040404040408040404040404030071
:10154000080808080808080808080808080808081B
:101550000060101010101008101010101010600013
:1015600000000000000020520C00000000000000FD
:10157000C8AB0100010002800440082010102FE8D1
:10158000C106010001001FF00100010001007FFC05
:101590000000B6AF004000407C40004001FC004429
:1015A000FE4420442044208448844484FD044504AF
:1015B00002280410B5E70100010001003FF82108EE
:1015C000210821083FF82108210821083FF8210AB5
:1015D0000102010200FED7D300007FF800100020B6
:1015E000004001800100FFFE010001000100010038
:1015F0000100010005000200BCBC102010201020DA
:1016000013FEFC201020102015FC18843088D048D0
:1016100010501020105051882606CAF501000120F4
:10162000011001107FFC03800540054009201110C6
:10163000210841048102010001000100CFB500F83A
:101640003F000400082010403F80010006101808E9
:101650007FFC010409201110210845040200CDB3CC
:1016600010401020202023FE4840F888110423FE5B
:101670004092F890409000901912E112420E04003E
:10168000C9E8000021F0111011100110020EF40041
:1016900013F811081110109014A0184010A003188E
:1016A0000C06D6C37FFC44447FFC01007FFC010094
:1016B0001FF010101FF010101FF010101FF010106E
:1016C000FFFE0000D2F4020001003FF800000820F5
:1016D0000440FFFE00001FF0101010101FF010104B
:1016E00010101FF01010C1BF00001FF010101FF0ED
:1016F0001010FFFE00001FF011101FF011101FF05E
:1017000001001FF001007FFCD1D5100008FE7F1002
:101710002220147C7F444454485452544454485426
:1017200051544228442488423082C9AB0800080042
:101730001FE020204040BFF82108210821083FF881
:1017400020002002200220021FFE0000CDF8000031
:101750007FFC40044004421452944A5444244424DC
:101760004A544A5452946104400440144008C2E769
:101770001080108020F821084B10FCA0104020A001
:101780004118FA0645F801081908E10841F801086E
:10179000CEC2000023F81208120883F8420842085B
:1017A00013F8100027FCE4A424A424A424A42FFEEE
:1017B0000000CAAA000027F81408140887F8440893
:1017C000440817F811202120E9242528233021205E
:1017D0002FFE0000B6C8010000803FFE222022201C
:1017E0003FFC2220222023E020002FF02410422062
:1017F00041C08630380EB9C501000100010001006A
:10180000FFFE0100010001001FF010101010101069
:10181000101010101FF01010BDF101000100028027
:101820000440082012102108C10600001FF000101B
:1018300000200020004000800100B6E0020002000D
:1018400007F008203840048003400C8071F802083B
:101850000C103220014001800E007000C9D9010037
:101860000100010009200910110811042114411080
:10187000012000400080010002000C007000CAC27C
:1018800001000100FFFE01003FF821083FF80100C0
:101890003FF80108FFFE01083FF8010005000200C3
:1018A000B6BC080008BE7EA209240A24FFE808246A
:1018B00010243F226122A1223F34212821203F20F1
:1018C0002120B8B6081008100810101017FE3010AC
:1018D0003010501091101090109010101010101027
:1018E00010501020D0A6104010403F7E2890450890
:1018F00080F03F0001000100FFFE01000280044073
:1019000008203018C006CCB80040224412441448C5
:1019100000A00110F608104410401248124814505C
:1019200018A0111002080C06D6D001000100010019
:1019300001003FF8210821082108210821083FF86B
:1019400021080100010001000100A3AC000000001B
:101950000000000000000000000000000000000087
:10196000000030003000100020000000C8AB000074
:101970000000000000380000300000680000440053
:1019800000C2000181000300C00600700FFFFE10BE
:10199000180860180000180000180000186003FF05
:1019A000800018000018000018000018081FFFFC35
:1019B000000000000000B6AF0000000000000001C1
:1019C000800001000061003F810000010000010C67
:1019D0000007FC00310C3FC10C06010C04010C0C8B
:1019E00081080843081062081022082FF4083814F0
:1019F000080008080011180020F80040300000001E
:101A0000B5E7000000000000001800001000001002
:101A1000000010000FFFF008102008102008102010
:101A20000810200FFFE008102008102008102008E0
:101A300010200FFFE0081000001008001008001030
:101A40000400180C000FF8000000D7D300000000BD
:101A500000000000200FFFF0000060000080000385
:101A60000000140000180000180000180C7FFFFE92
:101A700000180000180000180000180000180000EE
:101A8000180000180000180000180000F8000030CE
:101A900000000000BCBC000000040000070180063C
:101AA000010006010006010006C10C3F3FF00601DF
:101AB0000006010006010006FFF80708103E083086
:101AC0002604200604600602400602C006018006C5
:101AD0000380060C601E103E0CE00C000000CAF5EE
:101AE000000000000000001C000019800018E00049
:101AF000186000182800181C3FFFE0003C00007C24
:101B000000005A0000DA000099000119800318C093
:101B100006186004183808181E301808401800000D
:101B20001800001800000000C8AB00000000000012
:101B30000000000300000003800000078000000692
:101B40008000000C4000001C200000183000003015
:101B5000180000600C0000C00700018003C00300F3
:101B600002F807FFFF7C08018090300180004001EF
:101B7000800000018000000181000001838001FFDE
:101B8000FFC0000180000001800000018000000112
:101B900080000001800000018010000180381FFFDC
:101BA000FFFC0000000000000000B6AF00000000D5
:101BB000000000000000080000000E0000000C0003
:101BC000000C0C003FFE0C0010000C0000000C008C
:101BD00000000C180000FFFC00020C1800070C1895
:101BE0003FFF8C1801C00C1801C00C1801800818A8
:101BF000030008180210181806081818040C10180A
:101C000008061018100630102FFB20103E0360103D
:101C10001002C0300000803000010C30000203E0F0
:101C2000000C01E00010008000000000B5E700009B
:101C3000000000000000000300000003800000031B
:101C4000000000030000000300000003000007FF85
:101C5000FFC0060300C0060300C0060300C0060361
:101C600000C0060300C0060300C007FFFFC0060354
:101C700000C0060300C0060300C0060300C0060340
:101C800000C007FFFFC0060300800603000000033A
:101C90000010000300080003000800030018000300
:101CA000801C0001FFF80000000000000000D7D3F6
:101CB000000000000000000000000000000000C064
:101CC00003FFFFE0000001E0000003000000060049
:101CD00000001800000030000001C0000001C0003A
:101CE0000001800000018010000180383FFFFFFCF0
:101CF00000018000000180000001800000018000E0
:101D000000018000000180000001800000018000CF
:101D100000018000000180000001800000018000BF
:101D2000003F8000000700000002000000000000EB
:101D3000BCBC00000000000000000180080001C0E1
:101D40000E0001800C0001800C0001800C0001805D
:101D50000C0001980C183FFFFFFC01800C00018073
:101D60000C0001800C0001800C00018C0C2001B3E0
:101D7000FFF001C080600F8080603D8040C03180F6
:101D800040C00180218001802180018033000180DA
:101D90001E0001800C0001801E00018037000180C0
:101DA000E3C01F8380F8078E007C02300000000033
:101DB0000000CAF500000000000000000001000063
:101DC0000001C00000018C00000187000001838039
:101DD0000001818000018080000180303FFFFFF81A
:101DE0001003C0000007C0000007A000000DA00005
:101DF000000D9000001990000019980000318C002F
:101E00000061860000C1870000818380018181C05C
:101E1000030180F00401807C0801803810018010EB
:101E200060018000000180000001800000010000CE
:101E300000000000541E00080000002018000000F0
:101E4000480B00086C1E0008180000200008000065
:101E5000580B00080000000000A24A040000000027
:0C1E60000000000001020304060708094E
:04000005080000ED02
:00000001FF
