:020000040800F2
:10000000A004002001010008090100080B010008FC
:100010000D0100080F010008110100080000000098
:1000200000000000000000000000000013010008B4
:100030001501000800000000170100081901000860
:100040001B0100081B0100081B0100081B01000820
:100050001B0100081B0100081B0100081B01000810
:100060001B0100081B0100081B0100081B01000800
:100070001B0100081B0100081B0100081B010008F0
:100080001B0100081B0100081B0100081B010008E0
:100090001B0100081B0100081B0100081B010008D0
:1000A0001B0100081B0100081B0100081B010008C0
:1000B0001B0100081B0100081B0100081B010008B0
:1000C0001B0100081B0100081B0100081B010008A0
:1000D0001B010008D50800081B0100081B010008CF
:1000E0001B0100081B0100081B010008DFF80CD0F1
:1000F00000F068F800480047910E0008A0040020B6
:100100000648804706480047FEE7FEE7FEE7FEE7B1
:10011000FEE7FEE7FEE7FEE7FEE7FEE775080008FC
:10012000ED0000082DE9F05F0546002092469B4651
:1001300088460646814640241BE0284641464746FD
:10014000224600F02FF853465A46C01A914110D368
:1001500011461846224600F016F82D1A67EB0108E2
:100160004F4622460120002100F00DF817EB000950
:100170004E41201EA4F10104DFDC484631462A46E8
:100180004346BDE8F09F202A04DB203A00FA02F142
:10019000002070479140C2F1200320FA03F3194375
:1001A00090407047202A04DB203A21FA02F0002117
:1001B000704721FA02F3D040C2F120029140084377
:1001C00019467047064C074D06E0E06840F0010311
:1001D00094E8070098471034AC42F6D3FFF78AFF43
:1001E0003C0F00085C0F00082DE9F0410246002595
:1001F0000026002000230024002791F803C00CF003
:100200000F0591F803C00CF0100CBCF1000F03D0E7
:1002100091F802C04CEA050591F800C0BCF1000F4E
:1002200031D0146800202BE04FF0010C0CFA00F3E1
:10023000B1F800C00CEA03069E4220D183004FF0C3
:100240000F0C0CFA03F7BC4305FA03FC4CEA040458
:1002500091F803C0BCF1280F06D14FF0010C0CFA45
:1002600000FCC2F814C00AE091F803C0BCF1480FCA
:1002700005D14FF0010C0CFA00FCC2F810C0401C74
:100280000828D1D31460B1F800C0BCF1FF0F34DDF1
:10029000546800202EE000F1080C4FF0010808FA25
:1002A0000CF3B1F800C00CEA03069E4221D1830092
:1002B0004FF00F0C0CFA03F7BC4305FA03FC4CEAB1
:1002C000040491F803C0BCF1280F05D100F1080C1B
:1002D00008FA0CF8C2F8148091F803C0BCF1480F7A
:1002E00007D100F1080C4FF0010808FA0CF8C2F829
:1002F0001080401C0828CED35460BDE8F08102462F
:10030000002093680B400BB1012000E000207047F3
:10031000416170470161704710B501216B2000F009
:10032000A2F800216C2000F09EF80921192000F0AD
:100330009AF806211A2000F096F818211B2000F0E8
:1003400092F818211C2000F08EF810BD2DE9FC4712
:1003500004460D4616461F46DDE90A890020019035
:10036000009001A93B2000F060F869463C2000F0B5
:100370005CF89DF800009DF8041040EA012000B2EE
:10038000208001A93D2000F050F869463E2000F091
:100390004CF89DF800009DF8041040EA012000B2DE
:1003A000288001A93F2000F040F86946402000F075
:1003B0003CF89DF800009DF8041040EA012000B2CE
:1003C000308001A9432000F030F86946442000F055
:1003D0002CF89DF800009DF8041040EA012000B2BE
:1003E000388001A9452000F020F86946462000F039
:1003F0001CF89DF800009DF8041040EA012000B2AE
:10040000A8F8000001A9472000F00FF8694648202D
:1004100000F00BF89DF800009DF8041040EA012060
:1004200000B2A9F80000BDE8FC8770B505460C468F
:1004300000F007FAD02000F0E1F900F08DF928462D
:1004400000F0DCF900F088F900F0FBF9D12000F0B1
:10045000D5F900F081F900F091F9207000F0E6F98B
:1004600000F0FDF970BD70B505460C4600F0E9F9E5
:10047000D02000F0C3F900F06FF9284600F0BEF973
:1004800000F06AF9204600F0B9F900F065F900F0D3
:10049000E6F970BD08B501208DF803008DF8010064
:1004A0008DF8020025208DF80000684600F002F863
:1004B00008BD000070B5002100230F22C47804B3EA
:1004C000154C246804F4E064C4F5E064210AC1F129
:1004D0000403CA40447804FA03F1847814402143A9
:1004E00009010E4C0678A155047804F01F0501247B
:1004F000AC4005786D11AD0005F1E025C5F800416F
:1005000009E0047804F01F050124AC40044D06788E
:10051000761145F8264070BD0CED00E000E400E0E7
:1005200080E100E029B1064A92690243044B9A61D6
:1005300004E0034A92698243014B9A6170470000CC
:100540000010024030B500210022002400232D4D70
:100550006D6805F00C0121B1042905D0082923D1CB
:1005600005E0294D056022E0274D05601FE0254D7F
:100570006D6805F47012234D6D6805F48034022512
:1005800005EB92421CB9214D554305600BE01D4D12
:100590006D6805F400351DB11C4D5543056002E042
:1005A000194D5543056002E0174D056000BF00BFBF
:1005B000144D6D6805F0F0010909154D6B5C056877
:1005C000DD4045600F4D6D6805F4E061090A104D8E
:1005D0006B5C4568DD4085600A4D6D6805F46051CF
:1005E000C90A0B4D6B5C4568DD40C560054D6D6803
:1005F00005F44041890B074D6B5CC568B5FBF3F50D
:10060000056130BD0010024000127A0000093D0073
:10061000010000201100002010B500F001F810BD0D
:100620000CB50020019000903348006840F4803001
:100630003149086000BF3048006800F40030009085
:100640000198401C0190009818B90198B0F5A06F6E
:10065000F1D12948006800F4003010B10120009069
:1006600001E0002000900098012843D12348006851
:1006700040F01000214908600846006820F003009F
:1006800008600846006840F0020008601A484068A8
:10069000194948600846406848600846406840F488
:1006A000806048600846406820F47C104860084636
:1006B000406840F4E81048600846006840F08070E8
:1006C000086000BF0C48006800F000700028F9D0F6
:1006D0000948406820F00300074948600846406820
:1006E00040F00200486000BF0348406800F00C0082
:1006F0000828F9D10CBD0000001002400020024083
:10070000002001E0411CC8B22828FBDB7047000034
:1007100008B501210820FFF705FF14208DF803001C
:1007200003208DF802004020ADF80000694609481A
:10073000FFF75AFD8020ADF8000069460548FFF735
:1007400053FD40210348FFF7E5FD80210148FFF7F5
:10075000E1FD08BD000C014010B50024012000F0AF
:1007600029F880210448FFF7CAFD00B101240020C8
:1007700000F020F8204610BD000C014070B50024A8
:10078000002510E06006040E012000F013F880211F
:100790000748FFF7B4FD08B1601CC4B2002000F0A8
:1007A00009F8681CC5B2082DECDB204670BD0000BE
:1007B000000C014010B5044624B140210548FFF764
:1007C000A9FD03E040210348FFF7A2FDFFF798FFD2
:1007D00010BD0000000C014010B5044624B180217A
:1007E0000548FFF797FD03E080210348FFF790FDE0
:1007F000FFF786FF10BD0000000C014070B50446F5
:1008000000250DE004F08000FFF7E6FF0120FFF770
:10081000D1FF0020FFF7CEFF6006040E681CC5B2B2
:10082000082DEFDB0120FFF7D7FF70BD10B50120C9
:10083000FFF7D2FF0120FFF7BDFF0020FFF7BAFF4F
:1008400010BD10B50120FFF7C7FF0120FFF7B2FF71
:100850000020FFF7C1FF0020FFF7ACFF10BD10B56F
:100860000020FFF7B9FF0120FFF7A4FF0120FFF7E9
:10087000B3FF10BD10B51348006840F001001149E6
:10088000086008464068104908400E49486008461C
:1008900000680E4908400B4908600846006820F4CB
:1008A000802008600846406820F4FE0048604FF44D
:1008B0001F008860FFF7B0FE4FF000600449086039
:1008C00010BD0000001002400000FFF8FFFFF6FE20
:1008D00008ED00E010B540F225510D4800F037F862
:1008E00058B10B4800F0EEF8C1B20A48027800781F
:1008F000401C084B18700848815440F224410448B9
:1009000000F025F810B1024800F0DCF810BD00003E
:1009100000380140000000201C00002021B1828925
:1009200042F40052828104E082894DF6FF731A403E
:100930008281704702460020B1F5007F00D100BFE0
:1009400013880B400BB1012000E00020704770B508
:100950000246002400230025002040F66A16B1421A
:1009600000D100BFC1F3421501F01F03012606FAB2
:1009700003F3012D02D19689334006E0022D02D106
:10098000168A334001E0968A33400C12012606FA9B
:1009900004F41688344013B10CB1012000E00020AB
:1009A00070BDF0B50346002400260025002040F667
:1009B0006A17B94200D100BF1846C1F3421401F0D2
:1009C0001F06012707FA06F5012C01D10C3004E0BF
:1009D000022C01D1103000E014301AB107682F4307
:1009E000076002E00768AF430760F0BD2DE9F047FC
:1009F00086B005460E460024A24600BFA146002749
:100A0000B08900B100BF2F462C8A4CF6FF7004401D
:100A1000F08804432C82AC894EF6F3100440B08871
:100A200031890843718908430443AC81AC8A4FF68D
:100A3000FF400440B0890443AC8201A8FFF782FD67
:100A40001F48874202D1DDF810A001E0DDF80CA0BC
:100A5000A88900F4004040B10AEBCA0000EB0A107C
:100A600031684900B0FBF1F807E00AEBCA0000EB7F
:100A70000A1031688900B0FBF1F86420B8FBF0F08F
:100A800004012009642101FB1089A88900F40040B9
:100A900040B1322000EBC900B0FBF1F000F00700DC
:100AA000044308E0322000EB09106421B0FBF1F0B0
:100AB00000F00F0004432C8106B0BDE8F087000071
:100AC0000038014001468888C0F308007047C1F330
:100AD000080282807047000000B585B00121042023
:100AE000FFF720FD01218803FFF71CFD4FF4806014
:100AF000ADF8100004208DF8130004A91948FFF781
:100B000073FB4FF40070ADF8100018208DF813003F
:100B100003208DF8120004A91248FFF765FB00209E
:100B2000ADF80400ADF806004FF4E130009000206D
:100B3000ADF80800ADF80C000C20ADF80A006946CD
:100B40000948FFF753FF01210748FFF7E7FEFFF7CA
:100B5000A1FC012240F225510348FFF722FF05B016
:100B600000BD000000080140003801400FB4054BF3
:100B700010B503A9044A029800F018F810BC5DF8FB
:100B800014FB00006D0E00081800002002E008C8E9
:100B9000121F08C1002AFAD170477047002001E0F7
:100BA00001C1121F002AFBD1704700002DE9FF4F41
:100BB0008DB09B460F460446002606E025280BD044
:100BC0005A460F999047641C761C20780028F5D16E
:100BD00011B03046BDE8F08F0025A84601229849A3
:100BE00000E0054314F8013F203B02FA03F00842FD
:100BF000F7D120782E2817D114F8010F45F00405FD
:100C00002A280ED06FF02F022078A0F13001092998
:100C10000AD808EB880102EB410100EB0108641CD3
:100C2000F2E757F8048B641C20786C280DD004DCA4
:100C30004C2812D06A2811D104E074280DD07A28EB
:100C40000CD10AE045F4001507E0617845F4801501
:100C5000814202D1641C05F58015641C2278692A42
:100C600045D008DC002AB3D0582A69D0632A10D0B6
:100C7000642A08D13BE0702A67D0732A13D0752A02
:100C80005CD0782A5CD010465A460F999047761C63
:100C9000D3E017F8040B8DF8000000208DF8010058
:100CA000E946012003E057F8049B4FF0FF30690745
:100CB0004FF0000501D40AE06D1C45450DDA854270
:100CC000FADB19F805100029F6D106E06D1C854203
:100CD000FCDB19F805100029F8D12E4404E019F8BE
:100CE000010B5A460F9990476D1EF8D2A5E00A20D5
:100CF0000021CDE90801C5F3025002280DD001CF33
:100D0000C117031E71F100030DDA4FF0000CD0EB98
:100D10000C006CEB01012D2308E0FF1D27F00707F5
:100D2000F7E80201EDE72B0504D52B238DF82830D9
:100D300001233BE0EB0739D02023F7E70A2000E04E
:100D400010200021CDE9080107E01020002145F026
:100D50000405CDE908014FF00808C5F30250022848
:100D60000FD001CF00214FF0000A2B071FD5702AAA
:100D70000DD0DDE908C38CF0100C5CEA030C0CD03C
:100D800015E0FF1D27F00707F7E80201EBE7402217
:100D90008DF828204FF0010A0BE050EA010306D03D
:100DA00030238DF828308DF8292002239A46582ABE
:100DB00004D024A20DF120090B9209E026A2F9E744
:100DC000DDE90823FFF7AEF90B9B9B5C09F8013DB9
:100DD00050EA0102F4D1ADEB090020300890680719
:100DE00001D44FF001080899884502DDA8EB010005
:100DF00000E000208046002506E00AA85A46405D33
:100E00000F9990476D1C761C5545F6DB04E03020A9
:100E10005A460F999047761CB8F10001A8F10108D5
:100E2000F5DC05E019F8010B5A460F999047761C3E
:100E30000899481E08900029F4DC641CC5E60000EF
:100E400009280100303132333435363738396162A0
:100E50006364656600000000303132333435363764
:100E600038394142434445460000000070B504460D
:100E70000D46E1B20548FFF72AFE00BF8021034876
:100E8000FFF758FD0028F9D0204670BD003801401A
:100E900088B0FFF721FE1BA0FFF768FEFFF738FCC4
:100EA000FFF73AFA2DE00DF11E0007A9031F06AA6D
:100EB000CDE90010891F05A8FFF748FABDF91E000B
:100EC000BDF91C10BDF91A20CDE900210290BDF931
:100ED0001830BDF91620BDF914100CA0FFF746FE1E
:100EE00004A97520FFF7A1FA9DF8101011A0FFF7D3
:100EF0003DFE6FF07F4400BF201EA4F10104FBD132
:100F000000BFD0E7BFAACABC0A00000061783A253A
:100F1000642C61793A25642C617A3A25642C7678C0
:100F20003A25642C76793A25642C767A3A25640D34
:100F30000A00000069643A25780D0A005C0F000879
:100F4000000000201C0000008C0B0008780F000837
:100F50001C000020840400009C0B0008000000001E
:100F60000001020304010203040607080902040643
:080F7000080000000000000071
:04000005080000ED02
:00000001FF
