:020000040800F2
:100000001804002001010008090100080B01000884
:100010000D0100080F010008110100080000000098
:1000200000000000000000000000000013010008B4
:100030001501000800000000170100081901000860
:100040001B0100081B0100081B0100081B01000820
:100050001B0100081B0100081B0100081B01000810
:100060001B0100081B0100081B0100081B01000800
:100070001B0100081B0100081B0100081B010008F0
:100080001B0100081B0100081B0100081B010008E0
:100090001B0100081B0100081B0100081B010008D0
:1000A0001B0100081B0100081B0100081B010008C0
:1000B0001B0100081B010008000000001B010008D4
:1000C0001B01000800000000000000001B010008E8
:1000D000000000001B0100081B01000800000000D8
:1000E0001B0100081B0100081B010008DFF80CD0F1
:1000F00000F09AFA004800478D1600081804002006
:100100000648804706480047FEE7FEE7FEE7FEE7B1
:10011000FEE7FEE7FEE7FEE7FEE7FEE71D1000084C
:10012000ED0000082DE9FE4F804681EA0300C00F74
:100130000C46009021F0004123F00045B8EB02008E
:10014000A94105D24046214690461C460B46024630
:1001500023F00040104347D0270DC7F30A00C3F334
:100160000A510290401A019040286BDAC3F3130041
:1001700040F4801B0098924620B10023D2EB030A82
:1001800063EB0B0B01985946C0F14002504600F05A
:100190008EF906460D4650465946019A00F0A6F9DA
:1001A00010EB08006141002487EA115284EAE773EA
:1001B0001A4340D0009A62B3019A012A4FEA0752CB
:1001C00015DC001B61EB02014FF0004202EA07520E
:1001D000CDE90042001C41F5801132462B4600F06B
:1001E000A6F903B0BDE8F08F40462146F9E7001BB1
:1001F00061EB0201001C41F5801300185B412018DF
:10020000A2F5001747EB030140EAD570B6196D411E
:1002100011E06D084FEA360645EAC0754FEA07520D
:10022000001B61EB0201001C41F5801149084FEAF7
:1002300030000019514132462B4603B0BDE8F04F63
:1002400000F066B90098012240000023D0EB0202C2
:1002500063EBE073009821464FEAE074B8EB0000CE
:1002600061EB0401E9E783F000435BE781F00041C3
:1002700058E72DE9FE4F81EA030404F0004421F021
:10028000004100944FF0000B23F0004350EA0104BA
:100290005ED052EA03045BD0C3F30A54C1F30A559B
:1002A0002C44A4F2F3340194A0FB0254C1F31301D3
:1002B00041F48011C3F3130343F4801301FB0244A0
:1002C00000FB034E840A970A44EA815447EA8357A5
:1002D000A4FB076802958D0A05FB07854FEA932C5E
:1002E00004FB0C542705029D4FEA065847EA1637CF
:1002F000B5EB08056EEB070C870E920E47EA8117E7
:1003000042EA8312A7FB0201B6EB0B0164EB000487
:100310002B0D43EA0C335E1844EB1C50DA46514671
:10032000E7FB0201C5F313044FEA0B3343EA14530E
:100330004FEA0432019C43EA0603A4F10C04029440
:10034000009CCDE900B400F0F2F803B0BDE8F08FF6
:1003500000200146F9E72DE9F04D81EA030404F09D
:10036000004B21F0004514464FF0000A23F00041F5
:1003700050EA050220D054EA01021DD0C5F30A5705
:100380000246C5F31303C1F31300C1F30A5640F448
:10039000801543F48013A7EB0608101BD64608F21D
:1003A000FD3873EB050002D308F1010801E0921853
:1003B0005B41B8F1000F03DA00200146BDE8F08D83
:1003C00000204FF48011064684460EE0171B73EBA5
:1003D000050705D3121B63EB050306434CEA010C2A
:1003E00049084FEA300092185B4150EA0107EDD10D
:1003F00052EA030012D082EA040083EA05010843AE
:1004000005D0101BAB4106D20122002306E00022DA
:100410004FF0004302E06FF0010253101AEB0600A8
:100420004CEB085110EB0A0041EB0B01BDE8F04D1D
:1004300000F06EB80EB5C10F80EAE0700844CA073C
:10044000002140F233438DE80E000A460B4600F0CF
:100450006EF803B000BD0EB540F2334102910021A9
:10046000CDE900110A460B4600F061F803B000BD6B
:1004700070B5C1F30A5201F000450024C1F3130125
:1004800040F2FF3341F480119A4201DA002070BD3E
:1004900040F233439A42A2F2334203DC524200F06C
:1004A00015F800E090402C43F1D0404270BD202A66
:1004B00004DB203A00FA02F1002070479140C2F1BB
:1004C000200320FA03F3194390407047202A04DBED
:1004D000203A21FA02F00021704721FA02F3D040BD
:1004E000C2F120029140084319467047202A06DBDA
:1004F000CB17203A41FA02F043EAE07306E041FAF2
:1005000002F3D040C2F120029140084319467047DF
:1005100010B5141E73F1000408DA401C41F100010B
:1005200092185B411A4301D120F0010010BD2DE962
:10053000F04D92469B4611B1B1FA81F202E0B0FA59
:1005400080F220329046FFF7B2FF04460F4640EAA1
:100550000A0041EA0B0153465A46084313D011469C
:1005600053EA010019D0C8F140025046FFF7AEFF30
:1005700005460E46504659464246FFF798FF084347
:1005800005D0012004E020463946BDE8F08D00206A
:10059000054346EAE0762C4337430A986305E40AAC
:1005A000A0EB08000022FD0A44EA47540A3002D5B5
:1005B00000200146E9E7010510196941DDE9084518
:1005C00000196941BDE8F04DA2E770B521F0004384
:1005D00003430CD0C1F30A550024D5EB040564EBAA
:1005E0000403D617AD1AB34102DB0020014670BDEB
:1005F000201841EB025170BD30B5041E71F10004AA
:1006000004DB4FF00044404264EB0101141E73F11F
:10061000000405DB1C464FF00043524263EB040329
:10062000994208BF904230BD064C074D06E0E06895
:1006300040F0010394E8070098471034AC42F6D329
:10064000FFF758FD68220008882200082DE9F04DC8
:1006500000231A461B1A8A4103DB00200146BDE82D
:10066000F08DC1F30A52C1F3130141F480154FF02C
:10067000000BD10702D100186D41521E002704461D
:1006800040F2FF11384601EB620A3E4680460246C0
:1006900000204FF48011FFF719FFC2197141BB18F8
:1006A00046EB0100B4EB030C75EB000C04D3E41A29
:1006B00065EB000517460E46241908F101006D414F
:1006C00080463428E3DDF91946EB0600091BA841F2
:1006D00003D24FF0FF32134601E0002213461BEB1A
:1006E000070046EB0A51BDE8F04DFFF711BF10B50A
:1006F0000121082000F0DCFA10BD000070B50024D4
:1007000000F07EFB00F084FB082000F0F5FB0025E4
:1007100013E000F06DFB00F03AF9002602210B48CF
:1007200000F0DDF900B1012646EA4400C4B200F051
:1007300067FB00F02CF9681CC5B2082DE9DB00F05E
:1007400067FB082000F0D8FB204670BD000C01407C
:1007500070B58AB005460020099008900790069071
:10076000059004900390002400260190029000F070
:1007700089F8502000F0F1F800BF09E040F2E450A1
:1007800000F0BAFB3046711C8EB2642800DB05E035
:1007900000F067F800F080008028EFD000BF00F084
:1007A000ABF9712000F093F800F0FCFAFFF7A6FF18
:1007B00009908DF8040000F069FBFFF79FFF089097
:1007C0008DF8050000F062FBFFF798FF07908DF8A9
:1007D000060000F05BFBFFF791FF06908DF8070025
:1007E00000F054FBFFF78AFF05908DF8080000F039
:1007F0004DFBFFF783FF04908DF8090000F046FBE6
:10080000FFF77CFF039000F05CFB00F0F5FB062196
:1008100001A800F085F89DF80C1088421CD19DF8C5
:100820002000204304029DF81C00204304029DF890
:100830001800044324092C6000249DF8180020436C
:1008400004029DF81400204304029DF810000443A4
:10085000C4F313046C6002E0FF20286068600AB0F3
:1008600070BD10B500F048F9712000F030F800F0CC
:1008700099FAFFF743FF044600F023FB00F0BCFBAE
:10088000204610BD10B500F037F9702000F01FF8B9
:1008900000F088FAAC2000F01AF800F083FA332058
:1008A00000F015F800F07EFA002000F010F800F0DB
:1008B00079FA00F0A1FB10BD10B51B2000F05AF929
:1008C0001C2000F057F91E2000F054F910BD2DE94E
:1008D000F041044625468027002613E000F090FAF8
:1008E00000F047F807EA050010B100F0A3FA01E0B4
:1008F00000F0B6FA00F07CFA00F03BF86806050E4E
:10090000701CC6B2082EE9DB00F07AFA082000F06D
:10091000F3FA00F07DFA082000F0EEFABDE8F0816D
:1009200030B502460B46FF20002113E0555C6840BD
:1009300008240BE000F0800525B1312585EA40054B
:10094000E8B201E04506280E651EECB2002CF1DC91
:100950004D1CE9B29942E9DB30BD10B5044603E015
:100960004FF47A7000F0C8FA201EA4F10104F7D108
:1009700010BD00B5012000F01BF8012000F018F8B0
:10098000012000F015F8012000F012F800BD00B5BC
:10099000012000F00DF8012000F00AF8012000F01D
:1009A00007F8012000F004F8012000F001F800BD74
:1009B000014604E0002000E0401C0228FCD30A1E8F
:1009C000A1F10101F6D170472DE9F0410246002561
:1009D0000026002000230024002791F803C00CF01B
:1009E0000F0591F803C00CF0100CBCF1000F03D000
:1009F00091F802C04CEA050591F800C0BCF1000F67
:100A000031D0146800202BE04FF0010C0CFA00F3F9
:100A1000B1F800C00CEA03069E4220D183004FF0DB
:100A20000F0C0CFA03F7BC4305FA03FC4CEA040470
:100A300091F803C0BCF1280F06D14FF0010C0CFA5D
:100A400000FCC2F814C00AE091F803C0BCF1480FE2
:100A500005D14FF0010C0CFA00FCC2F810C0401C8C
:100A60000828D1D31460B1F800C0BCF1FF0F34DD09
:100A7000546800202EE000F1080C4FF0010808FA3D
:100A80000CF3B1F800C00CEA03069E4221D18300AA
:100A90004FF00F0C0CFA03F7BC4305FA03FC4CEAC9
:100AA000040491F803C0BCF1280F05D100F1080C33
:100AB00008FA0CF8C2F8148091F803C0BCF1480F92
:100AC00007D100F1080C4FF0010808FA0CF8C2F841
:100AD0001080401C0828CED35460BDE8F081024647
:100AE000002093680B400BB1012000E0002070470C
:100AF000416170470161704710B500F09BF9082013
:100B000000F0FAF900F074F9082000F0F5F900F0AF
:100B1000A7F9082000F0F0F900F072F9082000F0C1
:100B2000EBF910BD08B5FFF7E2FD14208DF80300C6
:100B30000220ADF8000003208DF8020069460C4841
:100B4000FFF742FF02210A48FFF7D4FF14208DF877
:100B500003000120ADF8000003208DF80200694673
:100B60000348FFF731FF01210148FFF7C3FF08BD2C
:100B7000000C01402DE9F0410446FFF7BDFF702055
:100B8000FFF7A5FE00F00EF92046FFF7A0FE00F0EB
:100B900009F90020FFF79BFE00F004F90020FFF7A1
:100BA00096FE00F0FFF800F027FA0520FFF7D5FECB
:100BB000FFF7A2FF7120FFF78AFE00F0F3F8FFF7BE
:100BC0009DFD074600F062F9FFF798FD054600F02D
:100BD0005DF9FFF793FD064600F073F900F00CFA9B
:100BE0000A20FFF7BAFEFFF787FF7020FFF76FFEBE
:100BF00000F0D8F844F0B000FFF769FE00F0D2F83A
:100C00002846FFF764FE00F0CDF83046FFF75FFEA0
:100C100000F0C8F800F0F0F900250026BDE8F081EA
:100C200008B501208DF803008DF801008DF8020051
:100C300025208DF80000684600F002F808BD00008D
:100C400070B5002100230F22C47804B3154C24682A
:100C500004F4E064C4F5E064210AC1F10403CA406D
:100C6000447804FA03F184781440214309010E4CBE
:100C70000678A155047804F01F050124AC400578DE
:100C80006D11AD0005F1E025C5F8004109E00478DB
:100C900004F01F050124AC40044D0678761145F898
:100CA000264070BD0CED00E000E400E080E100E0D3
:100CB00029B1064A92690243044B9A6104E0034A4F
:100CC00092698243014B9A61704700000010024014
:100CD00030B500210022002400232D4D6D6805F061
:100CE0000C0121B1042905D0082923D105E0294DA3
:100CF000056022E0274D05601FE0254D6D6805F475
:100D00007012234D6D6805F48034022505EB924284
:100D10001CB9214D554305600BE01D4D6D6805F470
:100D200000351DB11C4D5543056002E0194D55437A
:100D3000056002E0174D056000BF00BF144D6D68EF
:100D400005F0F0010909154D6B5C0568DD40456053
:100D50000F4D6D6805F4E061090A104D6B5C456844
:100D6000DD4085600A4D6D6805F46051C90A0B4D80
:100D70006B5C4568DD40C560054D6D6805F440411C
:100D8000890B074D6B5CC568B5FBF3F5056130BD9C
:100D90000010024000127A0000093D00000000200F
:100DA0001000002010B5002400F02AF800F030F800
:100DB000082000F0A1F800F01BF8082000F09CF8D3
:100DC00001E0601C84B202210848FFF788FE08B1E8
:100DD000642CF6DB642C01D1002010BD00F010F86B
:100DE000082000F089F80120F7E70000000C01401E
:100DF00010B501210148FFF77DFE10BD000C014038
:100E000010B501210148FFF773FE10BD000C014031
:100E100008B504208DF803000220ADF8000003207F
:100E20008DF8020069460248FFF7CEFD08BD0000BC
:100E3000000C014008B514208DF803000220ADF825
:100E4000000003208DF8020069460448FFF7BCFD4E
:100E500002210248FFF74EFE08BD0000000C0140D1
:100E600008B514208DF803000220ADF8000003201F
:100E70008DF8020069460448FFF7A6FD02210248EA
:100E8000FFF736FE08BD0000000C014010B5FFF76B
:100E9000B7FF082000F030F8FFF7E2FF082000F06D
:100EA0002BF8FFF7A5FF082000F026F8FFF7A8FFB2
:100EB000082000F021F8FFF7ABFF082000F01CF835
:100EC00010BD10B5FFF79CFF082000F015F8FFF7E4
:100ED000B1FF082000F010F8FFF78AFF082000F0AB
:100EE0000BF8FFF78DFF082000F006F8FFF7B8FFBA
:100EF000082000F001F810BD10B50446A41E03E060
:100F00000120FFF755FD641E002CF9D110BD10B56E
:100F100000F002F810BD00000CB500200190009018
:100F20003348006840F480303149086000BF3048E1
:100F3000006800F4003000900198401C0190009877
:100F400018B90198B0F5A06FF1D12948006800F4F4
:100F5000003010B10120009001E0002000900098C6
:100F6000012843D12348006840F01000214908605F
:100F70000846006820F0030008600846006840F05A
:100F8000020008601A4840681949486008464068ED
:100F900048600846406840F4806048600846406801
:100FA00020F47C1048600846406840F4E81048602F
:100FB0000846006840F08070086000BF0C48006878
:100FC00000F000700028F9D00948406820F00300C4
:100FD000074948600846406840F00200486000BF8A
:100FE0000348406800F00C000828F9D10CBD00004F
:100FF000001002400020024010B5FFF731FF08202A
:10100000FFF77AFFFFF7F4FE0820FFF775FFFFF701
:1010100011FF0820FFF770FF10BD000010B5134846
:10102000006840F001001149086008464068104916
:1010300008400E494860084600680E4908400B49C0
:1010400008600846006820F4802008600846406870
:1010500020F4FE0048604FF41F008860FFF757FF40
:101060004FF000600449086010BD0000001002400D
:101070000000FFF8FFFFF6FE08ED00E021B18289D5
:1010800042F40052828104E082894DF6FF731A40D7
:101090008281704702460020B1F5007F00D100BF79
:1010A00013880B400BB1012000E000207047F0B521
:1010B0000346002400260025002040F66A17B942A6
:1010C00000D100BF1846C1F3421401F01F060127EA
:1010D00007FA06F5012C01D10C3004E0022C01D1F5
:1010E000103000E014301AB107682F43076002E0A7
:1010F0000768AF430760F0BD2DE9F04786B00546AD
:101100000E460024A24600BFA1460027B08900B1C8
:1011100000BF2F462C8A4CF6FF700440F088044331
:101120002C82AC894EF6F3100440B0883189084314
:10113000718908430443AC81AC8A4FF6FF400440F8
:10114000B0890443AC8201A8FFF7C2FD1F48874263
:1011500002D1DDF810A001E0DDF80CA0A88900F4B0
:10116000004040B10AEBCA0000EB0A1031684900A8
:10117000B0FBF1F807E00AEBCA0000EB0A10316897
:101180008900B0FBF1F86420B8FBF0F004012009FD
:10119000642101FB1089A88900F4004040B132208D
:1011A00000EBC900B0FBF1F000F00700044308E0D9
:1011B000322000EB09106421B0FBF1F000F00F00C9
:1011C00004432C8106B0BDE8F087000000380140E0
:1011D000C1F308028280704700B585B00121042068
:1011E000FFF766FD01218803FFF762FD4FF4806081
:1011F000ADF8100004208DF8130004A91948FFF77A
:10120000E3FB4FF40070ADF8100018208DF81300C8
:1012100003208DF8120004A91248FFF7D5FB002027
:10122000ADF80400ADF806004FF4E1300090002066
:10123000ADF80800ADF80C000C20ADF80A006946C6
:101240000948FFF759FF01210748FFF717FFFFF78C
:10125000E7FC012240F225510348FFF728FF05B0C3
:1012600000BD0000000801400038014070B5044690
:101270000D4629462046FFF7ABFF00BF80212046E0
:10128000FFF708FF0028F9D070BD00002DE9F04FEE
:1012900087B0834614461D462046294600F088F94B
:1012A0000746FFF7E5F806461098FFF7D4F807461B
:1012B0003A460B460020154900F07AFACDE90201C2
:1012C0003046FFF7B7F8074622462B46FEF7CEFF1B
:1012D000CDE90001DDE90223FEF7CBFFCDE90401F2
:1012E00000F066F98146FFF7C3F80690314658468C
:1012F00000F00EF82E215846FFF7B8FF5846069921
:1013000000F006F807B0BDE8F08F000000002440B0
:1013100070B505460C46002C04DB2146284600F03B
:101320001FF815E0E0174FF0004284EA020171EA6D
:10133000000104D107A1284600F085F808E06442C6
:101340002D212846FFF792FF2146284600F008F895
:1013500070BD00002D323134373438333634380024
:10136000FEB507460D4625B930213846FFF77EFF0A
:10137000FEBD00208DF80A00002458E00A21B5FBCC
:10138000F1F201FB125028B93021C4F109020DF825
:10139000021046E0012805D13121C4F109020DF8FF
:1013A00002103EE0022805D13221C4F109020DF8F5
:1013B000021036E0032805D13321C4F109020DF8EB
:1013C00002102EE0042805D13421C4F109020DF8E1
:1013D000021026E0052805D13521C4F109020DF8D7
:1013E00002101EE0062805D13621C4F109020DF8CD
:1013F000021016E0072805D13721C4F109020DF8C3
:1014000002100EE0082805D13821C4F109020DF8B8
:10141000021006E0092804D13921C4F109020DF8AF
:101420000210611CCCB20A21B5FBF1F500BF002D02
:10143000A4D1C4F10A00C6B20DEB0601384600F093
:1014400002F800BF94E770B506460C46002500BFC1
:10145000615D3046FFF70AFF6D1C605D0028F7D123
:1014600000BF80213046FFF715FE0028F9D070BD7F
:10147000490050EAC12018BF04204A0D18BF40F0AF
:10148000010040F2FF72B2EB515F08BF40F0020072
:10149000012808BF052070472DE9F0414F1E00EBE1
:1014A000C7010446D1E9000115461E4637F0060281
:1014B0000DD02A463346FEF7DCFE7F1E04EBC70341
:1014C000D3E90023FEF72EFE37F00602F1D1022FFA
:1014D00025D0042F13D0062F18BFBDE8F0812A466F
:1014E0003346FEF7C6FED4E90A23FEF71BFE2A4662
:1014F0003346FEF7BEFED4E90823FEF713FE2A4664
:101500003346FEF7B6FED4E90623FEF70BFE2A4665
:101510003346FEF7AEFED4E90423FEF703FE2A4667
:101520003346FEF7A6FED4E90223FEF7FBFD2A466A
:101530003346FEF79EFED4E90023BDE8F041FEF7F6
:10154000F1BD00000022134610460149FEF703BF1B
:101550000000F03FFEF7E6BD00221346104611469C
:10156000FEF7F9BE40F2013200204FF0E041FFF7F4
:101570002CB80000024A00201107FFF726B800002F
:1015800001FDFFFF02E008C8121F08C1002AFAD1BE
:1015900070477047002001E001C1121F002AFBD1F3
:1015A00070470000014908607047000014000020E7
:1015B0002DE9F041C1F30A52A2F2FF362F4A304B17
:1015C0000D460446142E2FDA002E12DAFEF7AAFD7D
:1015D00000221346FFF710F84CD2002DA4BF0024C0
:1015E000254647DA25F00040204318BF254D41D05D
:1015F00018E0DFF894C02CFA06F705EA070C5CEA5D
:10160000040C08BFBDE8F081FEF78CFD00221346F4
:10161000FEF7F2FF2ED2002D03DA4FF48010F040D7
:101620000544BD43002425E0332EC8BFBDE8F0814A
:10163000A6F1140C4FF0FF3727FA0CF73C4208BF15
:10164000BDE8F081FEF712FE00221346FEF7D4FF3C
:1016500010D2002D0DDA142E08BF6D1C09D0C6F172
:101660003400012101FA00F02044A04238BF6D1C73
:101670000446BC4329462046BDE8F0819C7500889D
:101680003CE4377E0000F0BFFFFF0F0086B0FFF79D
:10169000A3FDFFF747FA4FF4FA70FFF75EF9FFF783
:1016A000E0F800F01800182804D0FFF705F90A2028
:1016B000FFF753F95EE004A8FFF74AF80498FF2803
:1016C00007D10598FF2804D12BA12F48FFF7BBFEB7
:1016D0004CE064210498484300EB8000C0F355209F
:1016E000800A0390C8210598484300EB8000C0F3AE
:1016F00055204FF4FA71C1EB9020029023A12248AB
:10170000FFF7A1FE0298FEF795FE06460022214B48
:10171000FEF721FE0446012022460B4600901A489F
:10172000FFF7B4FD0A211848FFF7A0FD1AA11648DB
:10173000FFF789FE0398FEF77DFE06460022154B53
:10174000FEF709FE0446012022460B4600900E4893
:10175000FFF79CFD0A210C48FFF788FD10A10A48FD
:10176000FFF771FE0A210848FFF780FD4FF4FA6089
:10177000FFF7F3F89FE70000435243BCECD1E9CEFA
:10178000B4CDA8B9FDA3A10000380140CEC2B6C8AF
:10179000A3BA000000002440CAAAB6C8A3BA000039
:1017A000CAFDBEDDCDA8B9FDBCECD1E9A3A10A00FC
:1017B0002DE9F04D1D460C4698B0174621F000412A
:1017C00023F00043002814BF4FF0010C4FF0000C31
:1017D0000CEB440CFE4A0CEB02064FEA620C664529
:1017E0002BD33E0018BF012606EB45061644F94AE6
:1017F000964222D3F84A53EA070C02D0944205D10C
:1018000048B918B000201146BDE8F08D002808BF87
:101810004FF0000C01D04FF0010C0CEB440212F51C
:10182000001F0AD8002F14BF4FF0010C4FF0000C1E
:101830000CEB450212F5001F07D918B03A462B46AB
:101840002146BDE8F04DFFF785BE0022DFF88CA3EE
:10185000002CB8BF534526DADFF884C36345A8BF20
:10186000022220DADFF870C39C451CDCDFF874C369
:101870000CEB235CBCF1140F08DDCCF1340627FA25
:1018800006FC0CFA06F6BE420DD108E05FB9CCF1B9
:10189000140623FA06FC0CFA06F69E4203D10CF05D
:1018A0000102C2F1020251EA000C19D1002D17DA2F
:1018B000002C18BF022A01D0012A07D00220FFF70E
:1018C00071FE18B0BDE8F04DFFF73CBE0220FFF7F7
:1018D00069FEFFF737FE18B081F00041BDE8F08DDA
:1018E000B7F1000C6CD1534525D104F1804212F5BB
:1018F000801201BF00280020B74918B008BFBDE81A
:10190000F08DB548884207DC002DA1BF604629460E
:1019100018B0BDE8F08D07E0281E05DA80F0004120
:1019200018B06046BDE8F08DAF497944D1E90001B7
:1019300018B0BDE8F08DDFF8A0C2634525D1002DB9
:101940001FDA19B1514512D1D8B909E0002840F089
:10195000EC82A24A214618B062F31E01BDE8F08D68
:101960000020214618B060F31E01BDE8F08D08DAB2
:1019700018B02346BDE8F04D024600206146FEF750
:10198000EABC18B02146BDE8F08D514518DAB5F132
:10199000804F0DD0A5F1005CBCF1FF5C10D1B4F11B
:1019A000000C0DDB18B06146BDE8F04D00F0ECBB5B
:1019B000234618B00246BDE8F04D1946FEF759BC63
:1019C000060024F0004C3BD1D9B1514533D1002C55
:1019D00006DD002DA1BF0020514618B0BDE8F08DF6
:1019E000002C01DD002D1BDB002C13DA002D11DB98
:1019F000012A4FF0000014BF78497C4918B0BDE8B7
:101A0000F08D022A18BF002C0AD0012A08D1002C20
:101A100006DA0AE0002CB8BF002D11DA012A04D042
:101A2000002018B00146BDE8F08D18B000204FF03E
:101A30000041BDE8F08DA1F14050B0F17F601AD0B7
:101A4000012000EBE47050EA020421D0624C521EE7
:101A50004FF0000B104304BF4FF0000B644C65487F
:101A600083427CDD644A654893421FDD884217DB70
:101A7000002D25DB37E0002C00DA4AB1022A0CBF2A
:101A800001204FF0FF3018B0BDE8F04DFEF7D2BC9A
:101A90000120FFF787FD18B0BDE8F04DFFF75CBDF2
:101AA0004D4A8A4202DC002D0ADC1CE0814202DA47
:101AB000002D18DA04E0484B994220DD002D12DD9C
:101AC0000220FFF76FFDFFF74DFD05460E46002291
:101AD000534658462146FEF7CCFB18B066F31E016C
:101AE0002846BDE8F08D0220FFF75CFDFFF742FDC0
:101AF0000A46214618B062F31E01BDE8F08D0022AF
:101B000030466146FEF7AFFB80460E466FF001029D
:101B1000FEF75BFD4FF05532394BFEF7A7FB42460F
:101B20003346FEF7A6FB0022364BFEF79FFB8246AC
:101B300042463346049110461946FEF79AFB524638
:101B4000049BFEF796FB8A4600904FF0C0422E4B56
:101B500040463146FEF78DFB2C4A2B4B00E027E038
:101B6000CDE9060151460098FEF783FB82460191BC
:101B7000274A284B40463146FEF77BFB5246019BE5
:101B8000FEF771FB82460B4602460591DDE9060130
:101B9000FEF7C8FADDE90623002688463046FEF740
:101BA00062FB5246059BFEF761FB024600F07EB9E0
:101BB0000020B1F5801F07DA352230466146FEF776
:101BC00004FD06466FF0340000EB215024E00000D5
:101BD000FFFF1F00FFFF0F000000F03F0000F07F3D
:101BE0000000404301FCFFFF320900000000F0FF4D
:101BF0000000F0BF0000E0410000F043FFFFEF3FB6
:101C00005555D53F0000E03F4715F73FFE822B6555
:101C100044DF5DF80BAE543EA0F2FF300190C1F3FB
:101C2000130040F07F6141F040510291FE4988422B
:101C3000D8BF002004DDFD498142C8BF012001DD7D
:101C40000D9008E000200D900198401C0190029832
:101C5000A0F5801002900299F54878440B910D99F7
:101C600000EBC100D0E900230F9330460A920B9994
:101C7000FEF7F9FACDE90601DDE90A2130460F9BAE
:101C8000FEF750FA02460B460020EA49FEF763FBD6
:101C9000059102460B460090DDE90601FEF7E9FAE0
:101CA0001490E5488A464FF000087844029900688D
:101CB00012904FF0005040EA61010D980F9B01EB2C
:101CC000804000F5002109910A9A1298FEF7CBFA9C
:101CD00032460B9BFEF7CAFA42465346FEF7C9FA54
:101CE0000646029140465146099B129AFEF7C1FAF8
:101CF000DDE90623FEF7BAFA3246029BFEF7B3FA95
:101D0000059B009AFEF7B5FA0091149A0490534689
:101D100010461946FEF7ADFA06460246C7480B467E
:101D2000029106217844FFF7B7FBCDE90510029B2D
:101D3000324610461946FEF79CFADDE90532FEF7F9
:101D400098FA05910646534640461946149AFEF7FE
:101D5000E9F9009B049AFEF78CFA3246059BFEF7E0
:101D6000E1F9CDE905104246534610461946FEF703
:101D700080FA0022B24B02910A90FEF7D3F9DDE916
:101D80000532FEF7CFF90E464246AD4B4046FEF710
:101D90006AFA029B0A9AFEF766FADDE90532FEF757
:101DA00065FA424602910A90334610465146FEF7C4
:101DB00060FACDE906015346149A02990A98FEF793
:101DC00058FA8A4602903346424600990498FEF734
:101DD00050FA5346029AFEF7A5F982460B46024690
:101DE0000591DDE90601FEF79DF9DDE906230020F6
:101DF00088460646FEF737FA5246059BFEF736FA46
:101E0000824609914FF060428E4B30464146FEF7C4
:101E100030FA049006918C4A8A4B50460999FEF795
:101E200028FA82460291894A894B30464146FEF79C
:101E300020FA5246029BFEF775F9864B7B440D9AB9
:101E400003EBC203D3E90023FEF76CF90E90079170
:101E50000198FEF7EFFA0591DDE9061382460E9A26
:101E60000498FEF75FF97C4A7A440D9B02EBC303AA
:101E7000D3E9002300930292FEF754F95246059BE2
:101E8000FEF750F90026884652463046059BFEF77D
:101E9000EAF9009B029AFEF7E6F9069B049AFEF720
:101EA000E2F9079B0E9AFEF7E1F9024600200B4685
:101EB000029038462946FEF7DCF9824601912B460E
:101EC00038461946029AFEF7CEF932464346FEF7E7
:101ED000D0F95246019BFEF725F907468A4632465D
:101EE000434629460298FEF7C4F905460E463A468F
:101EF0005346FEF717F9594A8846914221DBA8EB71
:101F0000020353EA000210D12A463346FEF7ABF92A
:101F1000CDE90401524A534B38465146FEF702F9C7
:101F2000DDE90423FEF768FB21D20220FFF73AFB2C
:101F3000FFF718FB0A46214618B062F31E01BDE800
:101F4000F08D494B28F000429A4210D3474A08EBE3
:101F5000020353EA00027FF4C6AD2A463346FEF779
:101F600082F93A465346FEF747FB7FF6BCAD0022A6
:101F7000019228F000403E493E4A01EB2051824246
:101F800023DA481C4FF4801121FA00F040443A4A09
:101F9000C0F30A517A44394BA1F2FF31CB4020EA19
:101FA0000303C0F3130040F48010C1F11401C840D2
:101FB00012680190B8F1000FBCBF40420190284662
:101FC0003146FEF750F905460E462A463346384656
:101FD0005146FEF7A7F84FF000084246284B40460E
:101FE0000591FEF746F9CDE90601264A264B404603
:101FF0000599FEF73EF9009102902A463346404685
:102000000599FEF730F93A465346FEF72FF91F4A75
:102010001F4BFEF72EF9009B029AFEF783F8074646
:10202000884602460B4635E08E9803007AB60B00D0
:102030007A0500000000F03FB2050000E004000057
:102040000000084009C7EE3FFD033ADCF5015B14D0
:10205000E02F3EBEB80300007C030000000090406B
:10206000FE822B654715973C00CC904000346F3FB3
:1020700001FCFFFF0000E03FC8020000FFFF0F006F
:10208000432EE63F396CA80C615C20BEEF39FAFEA6
:10209000422EE63FDDE90601FEF744F8DDE90623BE
:1020A00005460E46FEF7DFF83A464346FEF7DEF8F1
:1020B0000F462A463346009010461946FEF7D9F8D7
:1020C000824602462E4888460B4605217844FFF793
:1020D000E3F952464346FEF7CCF82A463346FEF76C
:1020E000C5F880468A463B4628463146009AFEF7A8
:1020F000C0F83B46009AFEF715F8069100900022C2
:102100004FF0804340465146FEF7ADF80F460C9025
:102110004246534628463146FEF7ABF83B460C9AFA
:10212000FEF719F9069B009AFEF79DF82A463346FA
:10213000FEF799F80022134BFEF798F80546019830
:102140000E4601EB00510815002810DC28463146E8
:10215000019AFEF73AFAFFF78BF9042808BFFFF758
:1021600009FA28463146019AFEF72FFA05460B4632
:1021700018B02A4658462146BDE8F04DFEF779B81A
:10218000680100000000F03F2DE9F04106460F46CF
:10219000FEF75CFA041E0D4618BF0120284320F00C
:1021A0000040C0F17F6000F1E040C00F0ED0301C55
:1021B00018BF0120384320F00040C0F17F6000F1DB
:1021C000E040C00F04BF0120FFF7ECF9204629468C
:1021D000BDE8F08100000000000000000000F03FBA
:1021E000000000000000F83F0000000000000000B8
:1021F0000000004003B8E23F0000000000000000C3
:1022000006D0CF43EBFD4C3E033333333333E33F50
:10221000FFAB6FDBB66DDB3F4D268F515555D53F7C
:1022200001411DA96074D13F65DBC9934A86CD3F4A
:10223000EF4E454A287ECA3F3E5555555555C53F38
:1022400093BDBE166CC166BF2CDE25AF6A56113F2A
:10225000F16BD2C541BDBBBED0A4BE726937663E2C
:10226000000000000000000088220008000000209C
:102270001800000084150008A022000818000020A3
:10228000000400009415000800000000010203048F
:102290000102030406070809020406080000000002
:04000005080000ED02
:00000001FF
