:020000040800F2
:100000008004002001010008090100080B0100081C
:100010000D0100080F010008110100080000000098
:1000200000000000000000000000000013010008B4
:100030001501000800000000170100081901000860
:100040001B0100081B0100081B0100081B01000820
:100050001B0100081B0100081B0100081B01000810
:100060001B0100081B0100081B0100081B01000800
:100070001B0100081B0100081B0100081B010008F0
:100080001B0100081B0100081B0100081B010008E0
:100090001B0100081B0100081B0100081B010008D0
:1000A0001B0100081B0100081B0100081B010008C0
:1000B0001B0100081B0100081B0100081B010008B0
:1000C0001B0100081B0100081B0100081B010008A0
:1000D0001B0100081B0100081B0100081B01000890
:1000E0001B0100081B0100081B010008DFF80CD0F1
:1000F00000F018F8004800474D0500088004002073
:100100000648804706480047FEE7FEE7FEE7FEE7B1
:10011000FEE7FEE7FEE7FEE7FEE7FEE7CD040008A8
:10012000ED000008064C074D06E0E06840F00103D2
:1001300094E8070098471034AC42F6D3FFF7DAFF93
:10014000140600082406000800F0805111B103498C
:10015000086001E002494860704700000404024062
:100160000000024021B1026842F00102026004E096
:1001700002684FF6FE731A400260704700B58BB0FC
:100180000121084600F00EF9124800901248019033
:1001900000200290202003904020049080200590B1
:1001A0000001079080100690002008904FF4005046
:1001B000099040000A906946084800F027F84FF47B
:1001C0000010FFF7C1FF01210448FFF7CBFF0BB080
:1001D00000BD000094050008000000206C000240F3
:1001E00001460020002201F0805313B1054B1A682C
:1001F00001E0054B1A6802EA01030BB1012000E09F
:1002000000207047000402400000024010B50022A8
:10021000026847F6F0739A430C6A8B6823430C69B3
:1002200023434C6923438C692343CC6923434C6AA1
:1002300023438C6A23431A430260CB6843600B68F4
:1002400083604B68C36010BD10B500BF4FF4001051
:10025000FFF7C6FF0028F9D000210BE0074850F84F
:100260002100074A52F82120904201D0002010BD01
:10027000481CC1B22029F1DB0120F8E794050008F1
:10028000000000202DE9F041024600250026002054
:1002900000230024002791F803C00CF00F0591F80B
:1002A00003C00CF0100CBCF1000F03D091F802C099
:1002B0004CEA050591F800C0BCF1000F31D014687C
:1002C00000202BE04FF0010C0CFA00F3B1F800C055
:1002D0000CEA03069E4220D183004FF00F0C0CFA6B
:1002E00003F7BC4305FA03FC4CEA040491F803C08D
:1002F000BCF1280F06D14FF0010C0CFA00FCC2F83B
:1003000014C00AE091F803C0BCF1480F05D14FF0CA
:10031000010C0CFA00FCC2F810C0401C0828D1D314
:100320001460B1F800C0BCF1FF0F34DD5468002048
:100330002EE000F1080C4FF0010808FA0CF3B1F8B8
:1003400000C00CEA03069E4221D183004FF00F0C3F
:100350000CFA03F7BC4305FA03FC4CEA040491F8D9
:1003600003C0BCF1280F05D100F1080C08FA0CF805
:10037000C2F8148091F803C0BCF1480F07D100F116
:10038000080C4FF0010808FA0CF8C2F81080401C65
:100390000828CED35460BDE8F08141617047016107
:1003A0007047000029B1064A52690243044B5A6162
:1003B00004E0034A52698243014B5A6170470000CE
:1003C0000010024029B1064A92690243044B9A6127
:1003D00004E0034A92698243014B9A61704700002E
:1003E0000010024010B500F001F810BD0CB500205F
:1003F000019000903348006840F480303149086033
:1004000000BF3048006800F4003000900198401CA4
:100410000190009818B90198B0F5A06FF1D1294862
:10042000006800F4003010B10120009001E00020CD
:1004300000900098012843D12348006840F0100044
:10044000214908600846006820F00300086008465B
:10045000006840F0020008601A4840681949486086
:100460000846406848600846406840F4806048603C
:100470000846406820F47C1048600846406840F414
:10048000E81048600846006840F08070086000BFCF
:100490000C48006800F000700028F9D00948406856
:1004A00020F00300074948600846406840F0020019
:1004B000486000BF0348406800F00C000828F9D1EC
:1004C0000CBD0000001002400020024010B513488F
:1004D000006840F001001149086008464068104972
:1004E00008400E494860084600680E4908400B491C
:1004F00008600846006820F48020086008464068CC
:1005000020F4FE0048604FF41F008860FFF76AFF88
:100510004FF000600449086010BD00000010024068
:100520000000FFF8FFFFF6FE08ED00E002E008C85B
:10053000121F08C1002AFAD170477047002001E05D
:1005400001C1121F002AFBD17047000008B501212C
:100550000820FFF737FF10208DF803000120ADF8C9
:10056000000003208DF8020069460948FFF78AFE63
:1005700001210748FFF713FFFFF700FEFFF764FEB6
:1005800018B101210248FFF708FF00BFFEE7000095
:10059000000C01400000000001000000020000000B
:1005A0000300000004000000050000000600000039
:1005B000070000000F0000000E0000000D0000000A
:1005C0000C0000000B0000000A0000000900000001
:1005D00008000000100000001100000012000000E0
:1005E00013000000140000001500000016000000B9
:1005F000170000001F0000001E0000001D0000008A
:100600001C0000001B0000001A0000001900000080
:1006100018000000240600080000002080040000EC
:040620003C0500088D
:04000005080000ED02
:00000001FF
