:020000040800F2
:10000000A0040020450100084D0100084F01000830
:1000100051010008530100085501000800000000CC
:100020000000000000000000000000005701000870
:1000300059010008000000005B0100085D01000894
:100040005F0100085F0100085F0100085F01000810
:100050005F0100085F0100085F0100085F01000800
:100060005F0100085F0100085F0100085F010008F0
:100070005F0100085F0100085F0100085F010008E0
:100080005F0100085F0100085F0100085F010008D0
:100090005F0100085F0100085F0100085F010008C0
:1000A0005F0100085F0100085F0100085F010008B0
:1000B0005F0100085F0100085F0100085F010008A0
:1000C0005F0100085F0100085F0100085F01000890
:1000D0005F010008650E00085F0100085F0100086D
:1000E0005F0100085F0100085F0100085F01000870
:1000F0005F0100085F0100085F0100085F01000860
:100100005F0100085F0100085F0100085F0100084F
:100110005F0100085F0100085F0100085F0100083F
:100120005F0100085F0100085F0100085F0100082F
:10013000DFF80CD000F068F800480047D11500083F
:10014000A00400200648804706480047FEE7FEE777
:10015000FEE7FEE7FEE7FEE7FEE7FEE7FEE7FEE777
:10016000050E0008310100082DE9F05F054600206A
:1001700092469B4688460646814640241BE0284618
:1001800041464746224600F02FF853465A46C01AC9
:10019000914110D311461846224600F016F82D1A48
:1001A00067EB01084F4622460120002100F00DF8C0
:1001B00017EB00094E41201EA4F10104DFDC484684
:1001C00031462A464346BDE8F09F202A04DB203A08
:1001D00000FA02F1002070479140C2F1200320FA9A
:1001E00003F3194390407047202A04DB203A21FA98
:1001F00002F00021704721FA02F3D040C2F1200240
:100200009140084319467047064C074D06E0E068E8
:1002100040F0010394E8070098471034AC42F6D34D
:10022000FFF78AFFC0170008E017000870B5002428
:1002300000F090FB00F096FB082000F007FC002582
:1002400013E000F07FFB00F075F9002680210B48D9
:1002500000F018FA00B1012646EA4400C4B200F0EA
:1002600079FB00F067F9681CC5B2082DE9DB00F0E6
:1002700079FB082000F0EAFB204670BD000C01402D
:1002800070B586B00546002005900490039002905A
:10029000019000900024002600F06CF8502000F03F
:1002A0002FF900BF09E040F2E45000F0CFFB3046E8
:1002B000711C8EB2642800DB05E000F04AF800F003
:1002C00080008028EFD000BF00F0E9F9712000F035
:1002D00076F800F011FBFFF7A9FF059000F080FB16
:1002E000FFF7A4FF049000F07BFBFFF79FFF039054
:1002F00000F076FBFFF79AFF029000F071FBFFF72A
:1003000095FF019000F06CFBFFF790FF009000F06C
:1003100082FB00F065FD9DF81000204304029DF86B
:100320000C00204304029DF80800044324092C60BB
:1003300000249DF80800204304029DF80400204397
:1003400004029DF800000443C4F313046C6006B07B
:1003500070BD10B500F0A3F9712000F030F800F086
:10036000CBFAFFF763FF044600F055FB00F038FDC1
:10037000204610BD10B500F092F9702000F01FF873
:1003800000F0BAFAAC2000F01AF800F0B5FA332009
:1003900000F015F800F0B0FA002000F010F800F0BE
:1003A000ABFA00F01DFD10BD10B51B2000F08DF95B
:1003B0001C2000F08AF91E2000F087F910BD2DE9FD
:1003C000F041044625468027002613E000F0C2FADB
:1003D00000F0A2F807EA050010B100F0D5FA01E03C
:1003E00000F0E8FA00F0AEFA00F096F86806050EA4
:1003F000701CC6B2082EE9DB00F0ACFA082000F051
:1004000025FB00F0AFFA082000F020FBBDE8F081EA
:100410002DE9F04106460F46154600F0B1FCA0203C
:1004200000F05AFC00F0D6FB00B125E0F8B200F075
:1004300053FC00F0CFFB00B11EE000F0A1FCA120B6
:1004400000F04AFC00F0C6FB00B115E000240CE00F
:1004500000F0DEFB3055681EA04202D000F020FC08
:1004600001E000F069FC601C84B2AC42F0DB00F0FB
:10047000A3FC0120BDE8F08100F09EFC0020F9E71C
:100480002DE9F047074688469146464600242CE071
:1004900014B106F00700E8B900F08EFC00250AE070
:1004A00000F06EFCA02000F017FC00F093FB00B9F8
:1004B00004E0681C85B2B5F57A7FF1DB00BFB5F5C5
:1004C0007A7F00D118E0F0B200F006FC00F082FB69
:1004D00000B111E0385D00F0FFFB00F07BFB00B1E4
:1004E0000AE0701C86B2601C84B24C45D0DB00F080
:1004F00063FC0120BDE8F08700F05EFC0020F9E716
:1005000010B5044603E04FF47A7000F09FFA201E05
:10051000A4F10104F7D110BD00B5012000F01BF8D3
:10052000012000F018F8012000F015F8012000F07B
:1005300012F800BD00B5012000F00DF8012000F018
:100540000AF8012000F007F8012000F004F801206B
:1005500000F001F800BD014604E0002000E0401C6E
:100560000228FCD30A1EA1F10101F6D170472DE942
:10057000F041024600250026002000230024002729
:1005800091F803C00CF00F0591F803C00CF0100CAB
:10059000BCF1000F03D091F802C04CEA050591F8B8
:1005A00000C0BCF1000F31D0146800202BE04FF0E8
:1005B000010C0CFA00F3B1F800C00CEA03069E42ED
:1005C00020D183004FF00F0C0CFA03F7BC4305FA5F
:1005D00003FC4CEA040491F803C0BCF1280F06D1D7
:1005E0004FF0010C0CFA00FCC2F814C00AE091F8BC
:1005F00003C0BCF1480F05D14FF0010C0CFA00FC10
:10060000C2F810C0401C0828D1D31460B1F800C053
:10061000BCF1FF0F34DD546800202EE000F1080C1F
:100620004FF0010808FA0CF3B1F800C00CEA030619
:100630009E4221D183004FF00F0C0CFA03F7BC430C
:1006400005FA03FC4CEA040491F803C0BCF1280F3E
:1006500005D100F1080C08FA0CF8C2F8148091F8E2
:1006600003C0BCF1480F07D100F1080C4FF001089E
:1006700008FA0CF8C2F81080401C0828CED3546049
:10068000BDE8F0810246002093680B400BB10120C9
:1006900000E000207047416170470161704710B56C
:1006A00000F072F9082000F0D1F900F04BF90820B1
:1006B00000F0CCF900F07EF9082000F0C7F900F056
:1006C00049F9082000F0C2F910BD2DE9F0410446B7
:1006D000FFF7E5FF7020FFF772FE00F00DF92046EE
:1006E000FFF76DFE00F008F90020FFF768FE00F04C
:1006F00003F90020FFF763FE00F0FEF800F070FB46
:100700000520FFF7FDFEFFF7CAFF7120FFF757FE38
:1007100000F0F2F8FFF78AFD074600F061F9FFF7F5
:1007200085FD054600F05CF9FFF780FD064600F008
:1007300072F900F055FB0A20FFF7E2FEFFF7AFFF6A
:100740007020FFF73CFE00F0D7F844F0B000FFF750
:1007500036FE00F0D1F82846FFF731FE00F0CCF865
:100760003046FFF72CFE00F0C7F800F039FB0025FB
:100770000026BDE8F08108B501208DF803008DF852
:1007800001008DF8020025208DF80000684600F079
:1007900001F808BD70B5002100230F22C47804B30E
:1007A000154C246804F4E064C4F5E064210AC1F146
:1007B0000403CA40447804FA03F1847814402143C6
:1007C00009010E4C0678A155047804F01F05012498
:1007D000AC4005786D11AD0005F1E025C5F800418C
:1007E00009E0047804F01F050124AC40044D0678AC
:1007F000761145F8264070BD0CED00E000E400E005
:1008000080E100E029B1064A92690243044B9A61F3
:1008100004E0034A92698243014B9A6170470000E9
:100820000010024030B500210022002400232D4D8D
:100830006D6805F00C0121B1042905D0082923D1E8
:1008400005E0294D056022E0274D05601FE0254D9C
:100850006D6805F47012234D6D6805F4803402252F
:1008600005EB92421CB9214D554305600BE01D4D2F
:100870006D6805F400351DB11C4D5543056002E05F
:10088000194D5543056002E0174D056000BF00BFDC
:10089000144D6D6805F0F0010909154D6B5C056894
:1008A000DD4045600F4D6D6805F4E061090A104DAB
:1008B0006B5C4568DD4085600A4D6D6805F46051EC
:1008C000C90A0B4D6B5C4568DD40C560054D6D6820
:1008D00005F44041890B074D6B5CC568B5FBF3F52A
:1008E000056130BD0010024000127A0000093D0091
:1008F000010000201100002010B5002400F02AF8AB
:1009000000F030F8082000F0A1F800F01BF80820F3
:1009100000F09CF801E0601C84B280210848FFF7D9
:10092000B1FE08B1642CF6DB642C01D1002010BDAF
:1009300000F010F8082000F089F80120F7E7000027
:10094000000C014010B540210148FFF7A6FE10BD84
:10095000000C014010B540210148FFF79CFE10BD7E
:10096000000C014008B504208DF803008020ADF88C
:10097000000003208DF8020069460248FFF7F7FDEA
:1009800008BD0000000C014008B514208DF80300DC
:100990008020ADF8000003208DF80200694604486D
:1009A000FFF7E5FD80210248FFF777FE08BD000054
:1009B000000C014008B514208DF803008020ADF82C
:1009C000000003208DF8020069460448FFF7CFFDC0
:1009D00080210248FFF75FFE08BD0000000C0140C7
:1009E00010B5FFF7B7FF082000F030F8FFF7E2FF7F
:1009F000082000F02BF8FFF7A5FF082000F026F8EC
:100A0000FFF7A8FF082000F021F8FFF7ABFF082050
:100A100000F01CF810BD10B5FFF79CFF082000F097
:100A200015F8FFF7B1FF082000F010F8FFF78AFF74
:100A3000082000F00BF8FFF78DFF082000F006F803
:100A4000FFF7B8FF082000F001F810BD10B504460C
:100A5000A41E03E00120FFF77EFD641E002CF9D1E7
:100A600010BD10B500F002F810BD00000CB500205C
:100A7000019000903348006840F4803031490860AC
:100A800000BF3048006800F4003000900198401C1E
:100A90000190009818B90198B0F5A06FF1D12948DC
:100AA000006800F4003010B10120009001E0002047
:100AB00000900098012843D12348006840F01000BE
:100AC000214908600846006820F0030008600846D5
:100AD000006840F0020008601A4840681949486000
:100AE0000846406848600846406840F480604860B6
:100AF0000846406820F47C1048600846406840F48E
:100B0000E81048600846006840F08070086000BF48
:100B10000C48006800F000700028F9D009484068CF
:100B200020F00300074948600846406840F0020092
:100B3000486000BF0348406800F00C000828F9D165
:100B40000CBD00000010024000200240002001E027
:100B5000411CC8B22828FBDB704710B5044603E0EF
:100B60004FF47A7000F000F9201EA4F10104F7D1CF
:100B700010BD014604E0002000E0401C0228FCD328
:100B80000A1EA1F10101F6D17047000008B501214C
:100B90000820FFF737FE14208DF8030003208DF89E
:100BA00002004020ADF8000069460948FFF7DFFC6D
:100BB0008020ADF8000069460548FFF7D8FC4021C9
:100BC0000348FFF76AFD80210148FFF766FD08BD75
:100BD000000C014010B5002480210C48FFF75DFD9A
:100BE000FFF7B4FF40210948FFF757FDFFF7AEFFBD
:100BF00080210648FFF746FD00B10124402103484B
:100C0000FFF749FDFFF7A2FF204610BD000C014091
:100C100070B500F021F80024002516E06006040EEF
:100C200040210C48FFF739FDFFF790FF802109486C
:100C3000FFF728FD08B1601CC4B240210548FFF74A
:100C40002AFDFFF783FF681CC5B2082DE6DB2046AE
:100C500070BD0000000C014008B504208DF80300B1
:100C600003208DF802008020ADF80000694602489C
:100C7000FFF77DFC08BD0000000C014008B5142002
:100C80008DF8030003208DF802008020ADF80000ED
:100C900069460248FFF76BFC08BD0000000C0140EC
:100CA00010B5FFF7EBFF80210A48FFF7F4FCFFF7D0
:100CB0004DFF40210748FFF7F0FCFFF747FF4021B9
:100CC0000448FFF7E8FCFFF741FF80210148FFF7E8
:100CD000E4FC10BD000C014070B50446FFF7CEFFE8
:100CE000002523E004F0800020B180211148FFF7A7
:100CF000D4FC03E080210F48FFF7CDFCFFF726FF6F
:100D000040210C48FFF7C9FCFFF720FF40210948AC
:100D1000FFF7C1FC072D03D180210648FFF7BDFC7A
:100D20006006040EFFF712FF681C85B2082DD9DBA0
:100D300070BD0000000C014010B5FFF79FFF80213F
:100D40000848FFF7AAFCFFF701FF40210548FFF71D
:100D5000A4FCFFF7FBFE40210248FFF79CFCFFF7D5
:100D6000F5FE10BD000C014010B50446A41E03E0C2
:100D70000120FFF7FEFE641E002CF9D110BD00001B
:100D800010B5FFF77BFF80210A48FFF786FC402162
:100D90000848FFF782FCFFF7D9FE80210548FFF7DE
:100DA0007AFCFFF7D3FE40210248FFF774FCFFF7FF
:100DB000CDFE10BD000C014010B5FFF75FFF802194
:100DC0000648FFF768FC40210448FFF766FCFFF780
:100DD000BDFE80210148FFF760FC10BD000C014002
:100DE00010B5FFF7E7FD0820FFF730FEFFF7AAFD7B
:100DF0000820FFF72BFEFFF7C7FD0820FFF726FEB0
:100E000010BD000010B51348006840F00100114902
:100E1000086008464068104908400E494860084686
:100E200000680E4908400B4908600846006820F435
:100E3000802008600846406820F4FE0048604FF4B7
:100E40001F008860FFF70DFE4FF000600449086046
:100E500010BD0000001002400000FFF8FFFFF6FE8A
:100E600008ED00E010B540F225510D4800F037F8CC
:100E700058B10B4800F0EEF8C1B20A480278007889
:100E8000401C084B18700848815440F22441044823
:100E900000F025F810B1024800F0DCF810BD0000A9
:100EA00000380140000000201C00002021B1828990
:100EB00042F40052828104E082894DF6FF731A40A9
:100EC0008281704702460020B1F5007F00D100BF4B
:100ED00013880B400BB1012000E00020704770B573
:100EE0000246002400230025002040F66A16B14285
:100EF00000D100BFC1F3421501F01F03012606FA1D
:100F000003F3012D02D19689334006E0022D02D170
:100F1000168A334001E0968A33400C12012606FA05
:100F200004F41688344013B10CB1012000E0002015
:100F300070BDF0B50346002400260025002040F6D1
:100F40006A17B94200D100BF1846C1F3421401F03C
:100F50001F06012707FA06F5012C01D10C3004E029
:100F6000022C01D1103000E014301AB107682F4371
:100F7000076002E00768AF430760F0BD2DE9F04766
:100F800086B005460E460024A24600BFA1460027B3
:100F9000B08900B100BF2F462C8A4CF6FF70044088
:100FA000F08804432C82AC894EF6F3100440B088DC
:100FB00031890843718908430443AC81AC8A4FF6F8
:100FC000FF400440B0890443AC8201A8FFF72AFC2B
:100FD0001F48874202D1DDF810A001E0DDF80CA027
:100FE000A88900F4004040B10AEBCA0000EB0A10E7
:100FF00031684900B0FBF1F807E00AEBCA0000EBEA
:101000000A1031688900B0FBF1F86420B8FBF0F0F9
:1010100004012009642101FB1089A88900F4004023
:1010200040B1322000EBC900B0FBF1F000F0070046
:10103000044308E0322000EB09106421B0FBF1F01A
:1010400000F00F0004432C8106B0BDE8F0870000DB
:101050000038014001468888C0F308007047C1F39A
:10106000080282807047000000B585B0012104208D
:10107000FFF7C8FB01218803FFF7C4FB4FF4806032
:10108000ADF8100004208DF8130004A91C48FFF7E8
:101090006EFA4FF40070ADF8100018208DF81300B0
:1010A00003208DF8120004A91548FFF760FA00200C
:1010B000ADF80400ADF806004FF4E13000900020D8
:1010C000ADF80800ADF80C000C20ADF80A00694638
:1010D0000C48FFF753FF01210A48FFF7E7FEFFF72F
:1010E0004AFB012240F225510648FFF722FF012268
:1010F00040F224410348FFF71CFF05B000BD00008B
:1011000000080140003801400FB4054B10B503A999
:10111000044A029800F018F810BC5DF814FB0000B7
:10112000AD1500081800002002E008C8121F08C111
:10113000002AFAD170477047002001E001C1121F58
:10114000002AFBD1704700002DE9FF4F8DB00F46FC
:101150000546002606E025280BD0DDE90F12904752
:101160006D1C761C28780028F5D111B03046BDE8FA
:10117000F08F0024A246A1460122EC4900E004437E
:1011800015F8013F203B02FA03F00842F7D1287816
:101190002A2810D06FF02F022878A0F130010929F9
:1011A00014D80AEB8A0102EB410144F0020400EB7F
:1011B000010A6D1CF0E701CF5FEA000A03D544F491
:1011C0000054CAF1000A44F002046D1C28782E284D
:1011D00017D115F8010F44F004042A280ED06FF03F
:1011E0002F022878A0F1300109290AD809EB8901DA
:1011F00002EB410100EB01096D1CF2E757F8049B7B
:101200006D1C28786C280FD006DC4C2817D0682875
:101210000DD06A2814D104E0742810D07A280FD198
:101220000DE044F400140AE044F4801401E044F4B6
:1012300040146978814202D104F580146D1C6D1C44
:101240002A786E2A1FD00CDC632A31D004DC002AF5
:101250008BD0582A11D1A3E0642A68D0692A0CD116
:1012600065E0732A2ED004DC6F2A73D0702A04D173
:101270009BE0752A6FD0782A6ED01046DDE90F12F8
:101280009047761C50E1C4F30250022806D0032890
:1012900009D0042801CF09D0066045E101CFF1173C
:1012A000C0E9006140E101CF06803DE106703BE10D
:1012B00017F8040B8DF8000000208DF80100EB46B4
:1012C000012003E057F804BB4FF0FF3061074FF0F7
:1012D000000102D40DE008F10101884649450FDA0A
:1012E0008045F8DB1BF808100029F4D108E008F16C
:1012F000010188468142FADB1BF808100029F6D16B
:10130000DDE90F23AAEB08008146214600F036F9FB
:10131000304400EB080604E0DDE90F121BF8010B76
:101320009047B8F10108F7D221464846F7E00A2174
:10133000C4F302534FF0000B0891022B04D001CFED
:10134000C117032B09D00AE0FF1D27F00707F7E8B4
:10135000020108E032E01FE020E000B2C117042BD8
:1013600001D140B2C117031E71F1000307DA4FF03B
:10137000000CD0EB0C006CEB01012D2302E02305E7
:1013800004D52B238DF82430012303E0E30701D09B
:101390002023F7E7984658E00A2110E010210EE0DC
:1013A00010204FF0000B08900CE010214FF0000BC4
:1013B00044F004044FF00809089103E008214FF0BD
:1013C000000B0891C4F30253022B04D001CF00217B
:1013D000032B06D006E0FF1D27F00707F7E8020100
:1013E00003E080B2042B00D1C0B24FF00008230705
:1013F0002BD5702A07D0DDF820C08CF0100C5CEAE9
:101400000B0C05D00EE040238DF82430012308E0BA
:1014100050EA010306D030238DF824308DF82520C2
:1014200002239846DDF820C08CF0080C5CEA0B0C17
:101430000BD150EA010301D1630706D530238DF8A3
:1014400024304FF00108A9F10109582A04D038A22C
:101450000B9208AA0A920BE03AA2F9E75B46089AB7
:10146000FEF782FE0B9B9B5C0A9A521E0A92137037
:1014700050EA0102F2D10A98ADEB000000F1200B16
:10148000600702D524F4803401E04FF00109D9450A
:1014900002DDA9EB0B0000E0002000EB0B01414452
:1014A0000890AAEB010AE00306D4DDE90F232146E8
:1014B000504600F063F806444FF0000908E009A91F
:1014C00011F80900DDE90F12904709F10109761CB6
:1014D000C145F4DBE0030CD5DDE90F23214650467E
:1014E00000F04CF8064404E0DDE90F12302090478C
:1014F000761C0899481E08900029F5DC08E00A9837
:101500000A990078491C0A91DDE90F129047761C70
:10151000BBF10001ABF1010BF1DC21465046DDE9E6
:101520000F2300F019F806446D1C1BE60928010082
:101530003031323334353637383961626364656649
:10154000000000003031323334353637383941420B
:1015500043444546000000002DE9F04104460025C3
:101560001E461746880404D405E039462020B047BB
:101570006D1C641EF9D52846BDE8F0812DE9F041C7
:10158000044600251E469046C80301D5302700E0DA
:101590002027880404D505E041463846B0476D1C35
:1015A000641EF9D52846BDE8F081000070B50446F8
:1015B0000D46E1B20548FFF752FD00BF8021034808
:1015C000FFF780FC0028F9D0204670BD00380140AC
:1015D00088B0FFF749FDFFF7D9FA4FF4FA70FFF72B
:1015E000BCFAFEF7B6FE00F01800182804D0FEF78B
:1015F000DBFE0A20FEF784FFDBE06E48007830282F
:1016000072D106A8FEF73CFE64210698484300EB21
:101610008000C0F35520800A0190C82107984843F4
:1016200000EB8000C0F355204FF4FA71C1EB90201D
:101630000090002040E068B90099002903DB2B21CD
:101640008DF8101036E02D218DF8101000994942C8
:1016500000912FE0012808D16422009991FBF2F15A
:101660003031C9B28DF8111024E002280CD10A22C1
:10167000009991FBF2F191FBF2F302FB131130316F
:10168000C9B28DF8121015E0032803D12E218DF870
:1016900013100FE004280AD10A22009991FBF2F3FB
:1016A00002FB13113031C9B28DF8141002E0002191
:1016B0008DF81510411C88B20628BCDB06220021DB
:1016C00004A8FEF7DDFE002041E070B90199002971
:1016D00003DB2B218DF8101037E02D218DF8101031
:1016E00001994942019130E03EE0012808D164228D
:1016F000019991FBF2F13031C9B28DF8111024E05B
:1017000002280CD10A22019991FBF2F191FBF2F32C
:1017100002FB13113031C9B28DF8121015E0032805
:1017200003D12E218DF813100FE004280AD10A22CC
:10173000019991FBF2F302FB13113031C9B28DF81C
:10174000141002E000218DF81510411C88B2062803
:10175000BBDB0622114604A8FEF792FE00201549C5
:1017600008701549087024E01248007831280ED11D
:101770000622002102A8FEF74BFE02A90FA0FFF7E8
:10178000C3FC00200B4908700B49087011E00948A0
:10179000007832280DD10622114602A8FEF738FE45
:1017A00002A906A0FFF7B0FC002002490870024918
:1017B000087022E71C0000200000002025730A00AA
:1017C000E0170008000000201C000000281100089D
:1017D000FC1700081C0000208404000038110008D9
:1017E00000000000000102030401020304060708D0
:0C17F000090204060800000000000000D0
:0400000508000131BD
:00000001FF
